{
  "_format": "hh-sol-artifact-1",
  "contractName": "DogeFood",
  "sourceName": "contracts/DogeFood.sol",
  "abi": [
    {
      "inputs": [
        {
          "internalType": "string",
          "name": "_name",
          "type": "string"
        },
        {
          "internalType": "string",
          "name": "_symbol",
          "type": "string"
        },
        {
          "internalType": "string",
          "name": "_baseTokenURI",
          "type": "string"
        },
        {
          "internalType": "address",
          "name": "initialOwner",
          "type": "address"
        }
      ],
      "stateMutability": "nonpayable",
      "type": "constructor"
    },
    {
      "inputs": [
        {
          "internalType": "address",
          "name": "sender",
          "type": "address"
        },
        {
          "internalType": "uint256",
          "name": "tokenId",
          "type": "uint256"
        },
        {
          "internalType": "address",
          "name": "owner",
          "type": "address"
        }
      ],
      "name": "ERC721IncorrectOwner",
      "type": "error"
    },
    {
      "inputs": [
        {
          "internalType": "address",
          "name": "operator",
          "type": "address"
        },
        {
          "internalType": "uint256",
          "name": "tokenId",
          "type": "uint256"
        }
      ],
      "name": "ERC721InsufficientApproval",
      "type": "error"
    },
    {
      "inputs": [
        {
          "internalType": "address",
          "name": "approver",
          "type": "address"
        }
      ],
      "name": "ERC721InvalidApprover",
      "type": "error"
    },
    {
      "inputs": [
        {
          "internalType": "address",
          "name": "operator",
          "type": "address"
        }
      ],
      "name": "ERC721InvalidOperator",
      "type": "error"
    },
    {
      "inputs": [
        {
          "internalType": "address",
          "name": "owner",
          "type": "address"
        }
      ],
      "name": "ERC721InvalidOwner",
      "type": "error"
    },
    {
      "inputs": [
        {
          "internalType": "address",
          "name": "receiver",
          "type": "address"
        }
      ],
      "name": "ERC721InvalidReceiver",
      "type": "error"
    },
    {
      "inputs": [
        {
          "internalType": "address",
          "name": "sender",
          "type": "address"
        }
      ],
      "name": "ERC721InvalidSender",
      "type": "error"
    },
    {
      "inputs": [
        {
          "internalType": "uint256",
          "name": "tokenId",
          "type": "uint256"
        }
      ],
      "name": "ERC721NonexistentToken",
      "type": "error"
    },
    {
      "inputs": [
        {
          "internalType": "address",
          "name": "owner",
          "type": "address"
        }
      ],
      "name": "OwnableInvalidOwner",
      "type": "error"
    },
    {
      "inputs": [
        {
          "internalType": "address",
          "name": "account",
          "type": "address"
        }
      ],
      "name": "OwnableUnauthorizedAccount",
      "type": "error"
    },
    {
      "anonymous": false,
      "inputs": [
        {
          "indexed": true,
          "internalType": "address",
          "name": "owner",
          "type": "address"
        },
        {
          "indexed": true,
          "internalType": "address",
          "name": "approved",
          "type": "address"
        },
        {
          "indexed": true,
          "internalType": "uint256",
          "name": "tokenId",
          "type": "uint256"
        }
      ],
      "name": "Approval",
      "type": "event"
    },
    {
      "anonymous": false,
      "inputs": [
        {
          "indexed": true,
          "internalType": "address",
          "name": "owner",
          "type": "address"
        },
        {
          "indexed": true,
          "internalType": "address",
          "name": "operator",
          "type": "address"
        },
        {
          "indexed": false,
          "internalType": "bool",
          "name": "approved",
          "type": "bool"
        }
      ],
      "name": "ApprovalForAll",
      "type": "event"
    },
    {
      "anonymous": false,
      "inputs": [
        {
          "indexed": true,
          "internalType": "address",
          "name": "to",
          "type": "address"
        },
        {
          "indexed": true,
          "internalType": "uint256",
          "name": "tokenId",
          "type": "uint256"
        }
      ],
      "name": "DogeNFTMinted",
      "type": "event"
    },
    {
      "anonymous": false,
      "inputs": [
        {
          "indexed": true,
          "internalType": "address",
          "name": "previousOwner",
          "type": "address"
        },
        {
          "indexed": true,
          "internalType": "address",
          "name": "newOwner",
          "type": "address"
        }
      ],
      "name": "OwnershipTransferred",
      "type": "event"
    },
    {
      "anonymous": false,
      "inputs": [
        {
          "indexed": true,
          "internalType": "address",
          "name": "from",
          "type": "address"
        },
        {
          "indexed": true,
          "internalType": "address",
          "name": "to",
          "type": "address"
        },
        {
          "indexed": true,
          "internalType": "uint256",
          "name": "tokenId",
          "type": "uint256"
        }
      ],
      "name": "Transfer",
      "type": "event"
    },
    {
      "inputs": [],
      "name": "MAX_SUPPLY",
      "outputs": [
        {
          "internalType": "uint256",
          "name": "",
          "type": "uint256"
        }
      ],
      "stateMutability": "view",
      "type": "function"
    },
    {
      "inputs": [
        {
          "internalType": "address",
          "name": "to",
          "type": "address"
        },
        {
          "internalType": "uint256",
          "name": "tokenId",
          "type": "uint256"
        }
      ],
      "name": "approve",
      "outputs": [],
      "stateMutability": "nonpayable",
      "type": "function"
    },
    {
      "inputs": [
        {
          "internalType": "address",
          "name": "owner",
          "type": "address"
        }
      ],
      "name": "balanceOf",
      "outputs": [
        {
          "internalType": "uint256",
          "name": "",
          "type": "uint256"
        }
      ],
      "stateMutability": "view",
      "type": "function"
    },
    {
      "inputs": [],
      "name": "baseTokenURI",
      "outputs": [
        {
          "internalType": "string",
          "name": "",
          "type": "string"
        }
      ],
      "stateMutability": "view",
      "type": "function"
    },
    {
      "inputs": [
        {
          "internalType": "address[]",
          "name": "addresses",
          "type": "address[]"
        }
      ],
      "name": "batchMint",
      "outputs": [],
      "stateMutability": "nonpayable",
      "type": "function"
    },
    {
      "inputs": [
        {
          "internalType": "uint256",
          "name": "tokenId",
          "type": "uint256"
        }
      ],
      "name": "getApproved",
      "outputs": [
        {
          "internalType": "address",
          "name": "",
          "type": "address"
        }
      ],
      "stateMutability": "view",
      "type": "function"
    },
    {
      "inputs": [
        {
          "internalType": "address",
          "name": "owner",
          "type": "address"
        },
        {
          "internalType": "address",
          "name": "operator",
          "type": "address"
        }
      ],
      "name": "isApprovedForAll",
      "outputs": [
        {
          "internalType": "bool",
          "name": "",
          "type": "bool"
        }
      ],
      "stateMutability": "view",
      "type": "function"
    },
    {
      "inputs": [
        {
          "internalType": "address",
          "name": "to",
          "type": "address"
        }
      ],
      "name": "mint",
      "outputs": [],
      "stateMutability": "nonpayable",
      "type": "function"
    },
    {
      "inputs": [],
      "name": "name",
      "outputs": [
        {
          "internalType": "string",
          "name": "",
          "type": "string"
        }
      ],
      "stateMutability": "view",
      "type": "function"
    },
    {
      "inputs": [],
      "name": "owner",
      "outputs": [
        {
          "internalType": "address",
          "name": "",
          "type": "address"
        }
      ],
      "stateMutability": "view",
      "type": "function"
    },
    {
      "inputs": [
        {
          "internalType": "uint256",
          "name": "tokenId",
          "type": "uint256"
        }
      ],
      "name": "ownerOf",
      "outputs": [
        {
          "internalType": "address",
          "name": "",
          "type": "address"
        }
      ],
      "stateMutability": "view",
      "type": "function"
    },
    {
      "inputs": [],
      "name": "renounceOwnership",
      "outputs": [],
      "stateMutability": "nonpayable",
      "type": "function"
    },
    {
      "inputs": [
        {
          "internalType": "address",
          "name": "from",
          "type": "address"
        },
        {
          "internalType": "address",
          "name": "to",
          "type": "address"
        },
        {
          "internalType": "uint256",
          "name": "tokenId",
          "type": "uint256"
        }
      ],
      "name": "safeTransferFrom",
      "outputs": [],
      "stateMutability": "nonpayable",
      "type": "function"
    },
    {
      "inputs": [
        {
          "internalType": "address",
          "name": "from",
          "type": "address"
        },
        {
          "internalType": "address",
          "name": "to",
          "type": "address"
        },
        {
          "internalType": "uint256",
          "name": "tokenId",
          "type": "uint256"
        },
        {
          "internalType": "bytes",
          "name": "data",
          "type": "bytes"
        }
      ],
      "name": "safeTransferFrom",
      "outputs": [],
      "stateMutability": "nonpayable",
      "type": "function"
    },
    {
      "inputs": [
        {
          "internalType": "address",
          "name": "operator",
          "type": "address"
        },
        {
          "internalType": "bool",
          "name": "approved",
          "type": "bool"
        }
      ],
      "name": "setApprovalForAll",
      "outputs": [],
      "stateMutability": "nonpayable",
      "type": "function"
    },
    {
      "inputs": [
        {
          "internalType": "string",
          "name": "_baseTokenURI",
          "type": "string"
        }
      ],
      "name": "setBaseURI",
      "outputs": [],
      "stateMutability": "nonpayable",
      "type": "function"
    },
    {
      "inputs": [
        {
          "internalType": "bytes4",
          "name": "interfaceId",
          "type": "bytes4"
        }
      ],
      "name": "supportsInterface",
      "outputs": [
        {
          "internalType": "bool",
          "name": "",
          "type": "bool"
        }
      ],
      "stateMutability": "view",
      "type": "function"
    },
    {
      "inputs": [],
      "name": "symbol",
      "outputs": [
        {
          "internalType": "string",
          "name": "",
          "type": "string"
        }
      ],
      "stateMutability": "view",
      "type": "function"
    },
    {
      "inputs": [
        {
          "internalType": "uint256",
          "name": "tokenId",
          "type": "uint256"
        }
      ],
      "name": "tokenURI",
      "outputs": [
        {
          "internalType": "string",
          "name": "",
          "type": "string"
        }
      ],
      "stateMutability": "view",
      "type": "function"
    },
    {
      "inputs": [],
      "name": "totalSupply",
      "outputs": [
        {
          "internalType": "uint256",
          "name": "",
          "type": "uint256"
        }
      ],
      "stateMutability": "view",
      "type": "function"
    },
    {
      "inputs": [
        {
          "internalType": "address",
          "name": "from",
          "type": "address"
        },
        {
          "internalType": "address",
          "name": "to",
          "type": "address"
        },
        {
          "internalType": "uint256",
          "name": "tokenId",
          "type": "uint256"
        }
      ],
      "name": "transferFrom",
      "outputs": [],
      "stateMutability": "nonpayable",
      "type": "function"
    },
    {
      "inputs": [
        {
          "internalType": "address",
          "name": "newOwner",
          "type": "address"
        }
      ],
      "name": "transferOwnership",
      "outputs": [],
      "stateMutability": "nonpayable",
      "type": "function"
    }
  ],
  "bytecode": "0x60806040523480156200001157600080fd5b50604051620019bd380380620019bd8339810160408190526200003491620001c2565b808484600062000045838262000304565b50600162000054828262000304565b5050506001600160a01b0381166200008657604051631e4fbdf760e01b81526000600482015260240160405180910390fd5b6200009181620000ab565b506008620000a0838262000304565b5050505050620003d0565b600680546001600160a01b038381166001600160a01b0319831681179093556040519116919082907f8be0079c531659141344cd1fd0a4f28419497f9722a3daafe3b4186f6b6457e090600090a35050565b634e487b7160e01b600052604160045260246000fd5b600082601f8301126200012557600080fd5b81516001600160401b0380821115620001425762000142620000fd565b604051601f8301601f19908116603f011681019082821181831017156200016d576200016d620000fd565b816040528381526020925086838588010111156200018a57600080fd5b600091505b83821015620001ae57858201830151818301840152908201906200018f565b600093810190920192909252949350505050565b60008060008060808587031215620001d957600080fd5b84516001600160401b0380821115620001f157600080fd5b620001ff8883890162000113565b955060208701519150808211156200021657600080fd5b620002248883890162000113565b945060408701519150808211156200023b57600080fd5b506200024a8782880162000113565b606087015190935090506001600160a01b03811681146200026a57600080fd5b939692955090935050565b600181811c908216806200028a57607f821691505b602082108103620002ab57634e487b7160e01b600052602260045260246000fd5b50919050565b601f821115620002ff57600081815260208120601f850160051c81016020861015620002da5750805b601f850160051c820191505b81811015620002fb57828155600101620002e6565b5050505b505050565b81516001600160401b03811115620003205762000320620000fd565b620003388162000331845462000275565b84620002b1565b602080601f831160018114620003705760008415620003575750858301515b600019600386901b1c1916600185901b178555620002fb565b600085815260208120601f198616915b82811015620003a15788860151825594840194600190910190840162000380565b5085821015620003c05787850151600019600388901b60f8161c191681555b5050505050600190811b01905550565b6115dd80620003e06000396000f3fe608060405234801561001057600080fd5b50600436106101425760003560e01c806370a08231116100b8578063b88d4fde1161007c578063b88d4fde14610285578063c87b56dd14610298578063d547cfb7146102ab578063d67b06c1146102b3578063e985e9c5146102c6578063f2fde38b146102d957600080fd5b806370a082311461023e578063715018a6146102515780638da5cb5b1461025957806395d89b411461026a578063a22cb4651461027257600080fd5b806323b872dd1161010a57806323b872dd146101d657806332cb6b0c146101e957806342842e0e146101f257806355f804b3146102055780636352211e146102185780636a6278421461022b57600080fd5b806301ffc9a71461014757806306fdde031461016f578063081812fc14610184578063095ea7b3146101af57806318160ddd146101c4575b600080fd5b61015a61015536600461101b565b6102ec565b60405190151581526020015b60405180910390f35b61017761033e565b6040516101669190611088565b61019761019236600461109b565b6103d0565b6040516001600160a01b039091168152602001610166565b6101c26101bd3660046110d0565b6103f9565b005b6007545b604051908152602001610166565b6101c26101e43660046110fa565b610408565b6101c86101a481565b6101c26102003660046110fa565b610498565b6101c26102133660046111c2565b6104b8565b61019761022636600461109b565b6104cc565b6101c261023936600461120b565b6104d7565b6101c861024c36600461120b565b610582565b6101c26105ca565b6006546001600160a01b0316610197565b6101776105de565b6101c2610280366004611226565b6105ed565b6101c2610293366004611262565b6105f8565b6101776102a636600461109b565b610610565b610177610678565b6101c26102c13660046112de565b610706565b61015a6102d4366004611353565b610830565b6101c26102e736600461120b565b61085e565b60006001600160e01b031982166380ac58cd60e01b148061031d57506001600160e01b03198216635b5e139f60e01b145b8061033857506301ffc9a760e01b6001600160e01b03198316145b92915050565b60606000805461034d90611386565b80601f016020809104026020016040519081016040528092919081815260200182805461037990611386565b80156103c65780601f1061039b576101008083540402835291602001916103c6565b820191906000526020600020905b8154815290600101906020018083116103a957829003601f168201915b5050505050905090565b60006103db8261089c565b506000828152600460205260409020546001600160a01b0316610338565b6104048282336108d5565b5050565b6001600160a01b03821661043757604051633250574960e11b8152600060048201526024015b60405180910390fd5b60006104448383336108e2565b9050836001600160a01b0316816001600160a01b031614610492576040516364283d7b60e01b81526001600160a01b038086166004830152602482018490528216604482015260640161042e565b50505050565b6104b3838383604051806020016040528060008152506105f8565b505050565b6104c06109db565b60086104048282611406565b60006103388261089c565b6104df6109db565b6101a4600754106105275760405162461bcd60e51b815260206004820152601260248201527113585e081cdd5c1c1b1e481c995858da195960721b604482015260640161042e565b600780549081906000610539836114dc565b91905055506105488282610a08565b60405181906001600160a01b038416907fc4e32c3befbb29cb905f564947dce9c36eb7a7f0f4b6eff92279ab3eb94e3c2090600090a35050565b60006001600160a01b0382166105ae576040516322718ad960e21b81526000600482015260240161042e565b506001600160a01b031660009081526003602052604090205490565b6105d26109db565b6105dc6000610a22565b565b60606001805461034d90611386565b610404338383610a74565b610603848484610408565b6104923385858585610b13565b606061061b8261089c565b506000610626610c3e565b905060008151116106465760405180602001604052806000815250610671565b8061065084610c4d565b6040516020016106619291906114f5565b6040516020818303038152906040525b9392505050565b6008805461068590611386565b80601f01602080910402602001604051908101604052809291908181526020018280546106b190611386565b80156106fe5780601f106106d3576101008083540402835291602001916106fe565b820191906000526020600020905b8154815290600101906020018083116106e157829003601f168201915b505050505081565b61070e6109db565b6007546101a490610720908390611524565b111561076e5760405162461bcd60e51b815260206004820152601760248201527f576f756c6420657863656564206d617820737570706c79000000000000000000604482015260640161042e565b60005b818110156104b35760078054908190600061078b836114dc565b91905055506107c08484848181106107a5576107a5611537565b90506020020160208101906107ba919061120b565b82610a08565b808484848181106107d3576107d3611537565b90506020020160208101906107e8919061120b565b6001600160a01b03167fc4e32c3befbb29cb905f564947dce9c36eb7a7f0f4b6eff92279ab3eb94e3c2060405160405180910390a35080610828816114dc565b915050610771565b6001600160a01b03918216600090815260056020908152604080832093909416825291909152205460ff1690565b6108666109db565b6001600160a01b03811661089057604051631e4fbdf760e01b81526000600482015260240161042e565b61089981610a22565b50565b6000818152600260205260408120546001600160a01b03168061033857604051637e27328960e01b81526004810184905260240161042e565b6104b38383836001610ce0565b6000828152600260205260408120546001600160a01b039081169083161561090f5761090f818486610de6565b6001600160a01b0381161561094d5761092c600085600080610ce0565b6001600160a01b038116600090815260036020526040902080546000190190555b6001600160a01b0385161561097c576001600160a01b0385166000908152600360205260409020805460010190555b60008481526002602052604080822080546001600160a01b0319166001600160a01b0389811691821790925591518793918516917fddf252ad1be2c89b69c2b068fc378daa952ba7f163c4a11628f55a4df523b3ef91a4949350505050565b6006546001600160a01b031633146105dc5760405163118cdaa760e01b815233600482015260240161042e565b610404828260405180602001604052806000815250610e4a565b600680546001600160a01b038381166001600160a01b0319831681179093556040519116919082907f8be0079c531659141344cd1fd0a4f28419497f9722a3daafe3b4186f6b6457e090600090a35050565b6001600160a01b038216610aa657604051630b61174360e31b81526001600160a01b038316600482015260240161042e565b6001600160a01b03838116600081815260056020908152604080832094871680845294825291829020805460ff191686151590811790915591519182527f17307eab39ab6107e8899845ad3d59bd9653f200f220920489ca2b5937696c31910160405180910390a3505050565b6001600160a01b0383163b15610c3757604051630a85bd0160e11b81526001600160a01b0384169063150b7a0290610b5590889088908790879060040161154d565b6020604051808303816000875af1925050508015610b90575060408051601f3d908101601f19168201909252610b8d9181019061158a565b60015b610bf9573d808015610bbe576040519150601f19603f3d011682016040523d82523d6000602084013e610bc3565b606091505b508051600003610bf157604051633250574960e11b81526001600160a01b038516600482015260240161042e565b805160208201fd5b6001600160e01b03198116630a85bd0160e11b14610c3557604051633250574960e11b81526001600160a01b038516600482015260240161042e565b505b5050505050565b60606008805461034d90611386565b60606000610c5a83610e62565b600101905060008167ffffffffffffffff811115610c7a57610c7a611136565b6040519080825280601f01601f191660200182016040528015610ca4576020820181803683370190505b5090508181016020015b600019016f181899199a1a9b1b9c1cb0b131b232b360811b600a86061a8153600a8504945084610cae57509392505050565b8080610cf457506001600160a01b03821615155b15610db6576000610d048461089c565b90506001600160a01b03831615801590610d305750826001600160a01b0316816001600160a01b031614155b8015610d435750610d418184610830565b155b15610d6c5760405163a9fbf51f60e01b81526001600160a01b038416600482015260240161042e565b8115610db45783856001600160a01b0316826001600160a01b03167f8c5be1e5ebec7d5bd14f71427d1e84f3dd0314c0f7b2291e5b200ac8c7c3b92560405160405180910390a45b505b5050600090815260046020526040902080546001600160a01b0319166001600160a01b0392909216919091179055565b610df1838383610f3a565b6104b3576001600160a01b038316610e1f57604051637e27328960e01b81526004810182905260240161042e565b60405163177e802f60e01b81526001600160a01b03831660048201526024810182905260440161042e565b610e548383610fa0565b6104b3336000858585610b13565b60008072184f03e93ff9f4daa797ed6e38ed64bf6a1f0160401b8310610ea15772184f03e93ff9f4daa797ed6e38ed64bf6a1f0160401b830492506040015b6d04ee2d6d415b85acef81000000008310610ecd576d04ee2d6d415b85acef8100000000830492506020015b662386f26fc100008310610eeb57662386f26fc10000830492506010015b6305f5e1008310610f03576305f5e100830492506008015b6127108310610f1757612710830492506004015b60648310610f29576064830492506002015b600a83106103385760010192915050565b60006001600160a01b03831615801590610f985750826001600160a01b0316846001600160a01b03161480610f745750610f748484610830565b80610f9857506000828152600460205260409020546001600160a01b038481169116145b949350505050565b6001600160a01b038216610fca57604051633250574960e11b81526000600482015260240161042e565b6000610fd8838360006108e2565b90506001600160a01b038116156104b3576040516339e3563760e11b81526000600482015260240161042e565b6001600160e01b03198116811461089957600080fd5b60006020828403121561102d57600080fd5b813561067181611005565b60005b8381101561105357818101518382015260200161103b565b50506000910152565b60008151808452611074816020860160208601611038565b601f01601f19169290920160200192915050565b602081526000610671602083018461105c565b6000602082840312156110ad57600080fd5b5035919050565b80356001600160a01b03811681146110cb57600080fd5b919050565b600080604083850312156110e357600080fd5b6110ec836110b4565b946020939093013593505050565b60008060006060848603121561110f57600080fd5b611118846110b4565b9250611126602085016110b4565b9150604084013590509250925092565b634e487b7160e01b600052604160045260246000fd5b600067ffffffffffffffff8084111561116757611167611136565b604051601f8501601f19908116603f0116810190828211818310171561118f5761118f611136565b816040528093508581528686860111156111a857600080fd5b858560208301376000602087830101525050509392505050565b6000602082840312156111d457600080fd5b813567ffffffffffffffff8111156111eb57600080fd5b8201601f810184136111fc57600080fd5b610f988482356020840161114c565b60006020828403121561121d57600080fd5b610671826110b4565b6000806040838503121561123957600080fd5b611242836110b4565b91506020830135801515811461125757600080fd5b809150509250929050565b6000806000806080858703121561127857600080fd5b611281856110b4565b935061128f602086016110b4565b925060408501359150606085013567ffffffffffffffff8111156112b257600080fd5b8501601f810187136112c357600080fd5b6112d28782356020840161114c565b91505092959194509250565b600080602083850312156112f157600080fd5b823567ffffffffffffffff8082111561130957600080fd5b818501915085601f83011261131d57600080fd5b81358181111561132c57600080fd5b8660208260051b850101111561134157600080fd5b60209290920196919550909350505050565b6000806040838503121561136657600080fd5b61136f836110b4565b915061137d602084016110b4565b90509250929050565b600181811c9082168061139a57607f821691505b6020821081036113ba57634e487b7160e01b600052602260045260246000fd5b50919050565b601f8211156104b357600081815260208120601f850160051c810160208610156113e75750805b601f850160051c820191505b81811015610c35578281556001016113f3565b815167ffffffffffffffff81111561142057611420611136565b6114348161142e8454611386565b846113c0565b602080601f83116001811461146957600084156114515750858301515b600019600386901b1c1916600185901b178555610c35565b600085815260208120601f198616915b8281101561149857888601518255948401946001909101908401611479565b50858210156114b65787850151600019600388901b60f8161c191681555b5050505050600190811b01905550565b634e487b7160e01b600052601160045260246000fd5b6000600182016114ee576114ee6114c6565b5060010190565b60008351611507818460208801611038565b83519083019061151b818360208801611038565b01949350505050565b80820180821115610338576103386114c6565b634e487b7160e01b600052603260045260246000fd5b6001600160a01b03858116825284166020820152604081018390526080606082018190526000906115809083018461105c565b9695505050505050565b60006020828403121561159c57600080fd5b81516106718161100556fea264697066735822122066071d2ccf7e184c01ca6d210dcc401cf4493155b6036b7ae3f068b6967652e364736f6c63430008140033",
  "linkReferences": {},
  "deployedLinkReferences": {}
}