{
  "address": "0x1277F70716AfadA4e62790210a08F690aA48B1Eb",
  "abi": [
    {
      "inputs": [
        {
          "internalType": "address",
          "name": "labToken_",
          "type": "address"
        },
        {
          "internalType": "address",
          "name": "bondingCurve_",
          "type": "address"
        },
        {
          "internalType": "address payable",
          "name": "treasury_",
          "type": "address"
        },
        {
          "internalType": "address",
          "name": "owner_",
          "type": "address"
        }
      ],
      "stateMutability": "nonpayable",
      "type": "constructor"
    },
    {
      "inputs": [
        {
          "internalType": "address",
          "name": "owner",
          "type": "address"
        }
      ],
      "name": "OwnableInvalidOwner",
      "type": "error"
    },
    {
      "inputs": [
        {
          "internalType": "address",
          "name": "account",
          "type": "address"
        }
      ],
      "name": "OwnableUnauthorizedAccount",
      "type": "error"
    },
    {
      "inputs": [],
      "name": "ReentrancyGuardReentrantCall",
      "type": "error"
    },
    {
      "anonymous": false,
      "inputs": [
        {
          "indexed": true,
          "internalType": "address",
          "name": "bondingCurve",
          "type": "address"
        }
      ],
      "name": "BondingCurveUpdated",
      "type": "event"
    },
    {
      "anonymous": false,
      "inputs": [
        {
          "indexed": true,
          "internalType": "address",
          "name": "previousOwner",
          "type": "address"
        },
        {
          "indexed": true,
          "internalType": "address",
          "name": "newOwner",
          "type": "address"
        }
      ],
      "name": "OwnershipTransferred",
      "type": "event"
    },
    {
      "anonymous": false,
      "inputs": [
        {
          "indexed": true,
          "internalType": "uint256",
          "name": "paymentId",
          "type": "uint256"
        },
        {
          "indexed": true,
          "internalType": "address",
          "name": "payer",
          "type": "address"
        },
        {
          "indexed": false,
          "internalType": "address",
          "name": "token",
          "type": "address"
        },
        {
          "indexed": false,
          "internalType": "uint256",
          "name": "amount",
          "type": "uint256"
        },
        {
          "indexed": false,
          "internalType": "string",
          "name": "feature",
          "type": "string"
        }
      ],
      "name": "PaymentReceived",
      "type": "event"
    },
    {
      "anonymous": false,
      "inputs": [
        {
          "indexed": true,
          "internalType": "address",
          "name": "treasury",
          "type": "address"
        }
      ],
      "name": "TreasuryUpdated",
      "type": "event"
    },
    {
      "inputs": [],
      "name": "bondingCurve",
      "outputs": [
        {
          "internalType": "address",
          "name": "",
          "type": "address"
        }
      ],
      "stateMutability": "view",
      "type": "function"
    },
    {
      "inputs": [
        {
          "internalType": "address",
          "name": "token",
          "type": "address"
        }
      ],
      "name": "isAcceptedToken",
      "outputs": [
        {
          "internalType": "bool",
          "name": "",
          "type": "bool"
        }
      ],
      "stateMutability": "view",
      "type": "function"
    },
    {
      "inputs": [],
      "name": "labToken",
      "outputs": [
        {
          "internalType": "address",
          "name": "",
          "type": "address"
        }
      ],
      "stateMutability": "view",
      "type": "function"
    },
    {
      "inputs": [],
      "name": "nextPaymentId",
      "outputs": [
        {
          "internalType": "uint256",
          "name": "",
          "type": "uint256"
        }
      ],
      "stateMutability": "view",
      "type": "function"
    },
    {
      "inputs": [],
      "name": "owner",
      "outputs": [
        {
          "internalType": "address",
          "name": "",
          "type": "address"
        }
      ],
      "stateMutability": "view",
      "type": "function"
    },
    {
      "inputs": [
        {
          "internalType": "address",
          "name": "token",
          "type": "address"
        },
        {
          "internalType": "uint256",
          "name": "amount",
          "type": "uint256"
        },
        {
          "internalType": "string",
          "name": "feature",
          "type": "string"
        }
      ],
      "name": "pay",
      "outputs": [
        {
          "internalType": "uint256",
          "name": "paymentId",
          "type": "uint256"
        }
      ],
      "stateMutability": "payable",
      "type": "function"
    },
    {
      "inputs": [],
      "name": "renounceOwnership",
      "outputs": [],
      "stateMutability": "nonpayable",
      "type": "function"
    },
    {
      "inputs": [
        {
          "internalType": "address",
          "name": "bondingCurve_",
          "type": "address"
        }
      ],
      "name": "setBondingCurve",
      "outputs": [],
      "stateMutability": "nonpayable",
      "type": "function"
    },
    {
      "inputs": [
        {
          "internalType": "address payable",
          "name": "treasury_",
          "type": "address"
        }
      ],
      "name": "setTreasury",
      "outputs": [],
      "stateMutability": "nonpayable",
      "type": "function"
    },
    {
      "inputs": [
        {
          "internalType": "address",
          "name": "newOwner",
          "type": "address"
        }
      ],
      "name": "transferOwnership",
      "outputs": [],
      "stateMutability": "nonpayable",
      "type": "function"
    },
    {
      "inputs": [],
      "name": "treasury",
      "outputs": [
        {
          "internalType": "address payable",
          "name": "",
          "type": "address"
        }
      ],
      "stateMutability": "view",
      "type": "function"
    }
  ],
  "transactionHash": "0x527be46a810de73fe0d99fe9de2cfb3c7311ed034f065e643effa6ba361bf3d0",
  "args": [
    "0x4C38525e3fE1C7a904463621Ecef8ED22B97120f",
    "0x5C1E7deb7BD89d4AEB7B57B7b6D1Ad266886f848",
    "0x17083489ff064340d2971e3538F600FCB3211515",
    "0x0aCD0De8A6A25E37588fF181DB97117cdb39EDB7"
  ],
  "numDeployments": 1,
  "solcInputHash": "f4135481a12e30f0c3bbada1ed1bfc3b",
  "bytecode": "0x60a060405260016004553480156200001657600080fd5b5060405162001d3b38038062001d3b83398181016040528101906200003c919062000454565b80600073ffffffffffffffffffffffffffffffffffffffff168173ffffffffffffffffffffffffffffffffffffffff1603620000b25760006040517f1e4fbdf7000000000000000000000000000000000000000000000000000000008152600401620000a99190620004d7565b60405180910390fd5b620000c381620002e160201b60201c565b5060018081905550600073ffffffffffffffffffffffffffffffffffffffff168473ffffffffffffffffffffffffffffffffffffffff16036200013d576040517f08c379a000000000000000000000000000000000000000000000000000000000815260040162000134906200057b565b60405180910390fd5b600073ffffffffffffffffffffffffffffffffffffffff168373ffffffffffffffffffffffffffffffffffffffff1603620001af576040517f08c379a0000000000000000000000000000000000000000000000000000000008152600401620001a69062000613565b60405180910390fd5b600073ffffffffffffffffffffffffffffffffffffffff168273ffffffffffffffffffffffffffffffffffffffff160362000221576040517f08c379a0000000000000000000000000000000000000000000000000000000008152600401620002189062000685565b60405180910390fd5b8373ffffffffffffffffffffffffffffffffffffffff1660808173ffffffffffffffffffffffffffffffffffffffff168152505082600260006101000a81548173ffffffffffffffffffffffffffffffffffffffff021916908373ffffffffffffffffffffffffffffffffffffffff16021790555081600360006101000a81548173ffffffffffffffffffffffffffffffffffffffff021916908373ffffffffffffffffffffffffffffffffffffffff16021790555050505050620006a7565b60008060009054906101000a900473ffffffffffffffffffffffffffffffffffffffff169050816000806101000a81548173ffffffffffffffffffffffffffffffffffffffff021916908373ffffffffffffffffffffffffffffffffffffffff1602179055508173ffffffffffffffffffffffffffffffffffffffff168173ffffffffffffffffffffffffffffffffffffffff167f8be0079c531659141344cd1fd0a4f28419497f9722a3daafe3b4186f6b6457e060405160405180910390a35050565b600080fd5b600073ffffffffffffffffffffffffffffffffffffffff82169050919050565b6000620003d782620003aa565b9050919050565b620003e981620003ca565b8114620003f557600080fd5b50565b6000815190506200040981620003de565b92915050565b60006200041c82620003aa565b9050919050565b6200042e816200040f565b81146200043a57600080fd5b50565b6000815190506200044e8162000423565b92915050565b60008060008060808587031215620004715762000470620003a5565b5b60006200048187828801620003f8565b94505060206200049487828801620003f8565b9350506040620004a7878288016200043d565b9250506060620004ba87828801620003f8565b91505092959194509250565b620004d181620003ca565b82525050565b6000602082019050620004ee6000830184620004c6565b92915050565b600082825260208201905092915050565b7f47616d655061796d656e74476174657761793a20626164204c414220746f6b6560008201527f6e00000000000000000000000000000000000000000000000000000000000000602082015250565b600062000563602183620004f4565b9150620005708262000505565b604082019050919050565b60006020820190508181036000830152620005968162000554565b9050919050565b7f47616d655061796d656e74476174657761793a2062616420626f6e64696e672060008201527f6375727665000000000000000000000000000000000000000000000000000000602082015250565b6000620005fb602583620004f4565b915062000608826200059d565b604082019050919050565b600060208201905081810360008301526200062e81620005ec565b9050919050565b7f47616d655061796d656e74476174657761793a20626164207472656173757279600082015250565b60006200066d602083620004f4565b91506200067a8262000635565b602082019050919050565b60006020820190508181036000830152620006a0816200065e565b9050919050565b608051611671620006ca600039600081816102b001526108a701526116716000f3fe60806040526004361061009c5760003560e01c8063715018a611610064578063715018a61461018d5780638da5cb5b146101a45780639b22b920146101cf578063eff1d50e146101fa578063f0f4426014610225578063f2fde38b1461024e5761009c565b80633b6e750f146100a157806343ff1fb8146100de5780634a4bdb301461010757806361d027b3146101375780636a031bee14610162575b600080fd5b3480156100ad57600080fd5b506100c860048036038101906100c39190610cc0565b610277565b6040516100d59190610d08565b60405180910390f35b3480156100ea57600080fd5b5061010560048036038101906101009190610cc0565b6103b0565b005b610121600480360381019061011c9190610dbe565b6104ae565b60405161012e9190610e41565b60405180910390f35b34801561014357600080fd5b5061014c61087f565b6040516101599190610e7d565b60405180910390f35b34801561016e57600080fd5b506101776108a5565b6040516101849190610ea7565b60405180910390f35b34801561019957600080fd5b506101a26108c9565b005b3480156101b057600080fd5b506101b96108dd565b6040516101c69190610ea7565b60405180910390f35b3480156101db57600080fd5b506101e4610906565b6040516101f19190610e41565b60405180910390f35b34801561020657600080fd5b5061020f61090c565b60405161021c9190610ea7565b60405180910390f35b34801561023157600080fd5b5061024c60048036038101906102479190610eee565b610932565b005b34801561025a57600080fd5b5061027560048036038101906102709190610cc0565b610a30565b005b60008073ffffffffffffffffffffffffffffffffffffffff168273ffffffffffffffffffffffffffffffffffffffff1614806102fe57507f000000000000000000000000000000000000000000000000000000000000000073ffffffffffffffffffffffffffffffffffffffff168273ffffffffffffffffffffffffffffffffffffffff16145b1561030c57600190506103ab565b600260009054906101000a900473ffffffffffffffffffffffffffffffffffffffff1673ffffffffffffffffffffffffffffffffffffffff166368a4c8b7836040518263ffffffff1660e01b81526004016103679190610ea7565b602060405180830381865afa158015610384573d6000803e3d6000fd5b505050506040513d601f19601f820116820180604052508101906103a89190610f47565b90505b919050565b6103b8610ab6565b600073ffffffffffffffffffffffffffffffffffffffff168173ffffffffffffffffffffffffffffffffffffffff1603610427576040517f08c379a000000000000000000000000000000000000000000000000000000000815260040161041e90610ff7565b60405180910390fd5b80600260006101000a81548173ffffffffffffffffffffffffffffffffffffffff021916908373ffffffffffffffffffffffffffffffffffffffff1602179055508073ffffffffffffffffffffffffffffffffffffffff167fc4fda5d836a9aaafabd3088c5f5dcabfe179c3b392b09dbac0e8727667f3c77660405160405180910390a250565b60006104b8610b3d565b600083839050116104fe576040517f08c379a00000000000000000000000000000000000000000000000000000000081526004016104f590611089565b60405180910390fd5b61050785610277565b610546576040517f08c379a000000000000000000000000000000000000000000000000000000000815260040161053d9061111b565b60405180910390fd5b60008073ffffffffffffffffffffffffffffffffffffffff168673ffffffffffffffffffffffffffffffffffffffff160361069557600034116105be576040517f08c379a00000000000000000000000000000000000000000000000000000000081526004016105b590611187565b60405180910390fd5b3490506000600360009054906101000a900473ffffffffffffffffffffffffffffffffffffffff1673ffffffffffffffffffffffffffffffffffffffff1682604051610609906111d8565b60006040518083038185875af1925050503d8060008114610646576040519150601f19603f3d011682016040523d82523d6000602084013e61064b565b606091505b505090508061068f576040517f08c379a00000000000000000000000000000000000000000000000000000000081526004016106869061125f565b60405180910390fd5b50610800565b600034146106d8576040517f08c379a00000000000000000000000000000000000000000000000000000000081526004016106cf906112f1565b60405180910390fd5b6000851161071b576040517f08c379a000000000000000000000000000000000000000000000000000000000815260040161071290611383565b60405180910390fd5b8490508573ffffffffffffffffffffffffffffffffffffffff166323b872dd33600360009054906101000a900473ffffffffffffffffffffffffffffffffffffffff16846040518463ffffffff1660e01b815260040161077d93929190611402565b6020604051808303816000875af115801561079c573d6000803e3d6000fd5b505050506040513d601f19601f820116820180604052508101906107c09190610f47565b6107ff576040517f08c379a00000000000000000000000000000000000000000000000000000000081526004016107f6906114ab565b60405180910390fd5b5b60046000815480929190610813906114fa565b9190505591503373ffffffffffffffffffffffffffffffffffffffff16827f62b4265ef816f751a94c5c93fa40a90302c6924509b973ed4094dcf30c6c61ed88848888604051610866949392919061158f565b60405180910390a350610877610b83565b949350505050565b600360009054906101000a900473ffffffffffffffffffffffffffffffffffffffff1681565b7f000000000000000000000000000000000000000000000000000000000000000081565b6108d1610ab6565b6108db6000610b8c565b565b60008060009054906101000a900473ffffffffffffffffffffffffffffffffffffffff16905090565b60045481565b600260009054906101000a900473ffffffffffffffffffffffffffffffffffffffff1681565b61093a610ab6565b600073ffffffffffffffffffffffffffffffffffffffff168173ffffffffffffffffffffffffffffffffffffffff16036109a9576040517f08c379a00000000000000000000000000000000000000000000000000000000081526004016109a09061161b565b60405180910390fd5b80600360006101000a81548173ffffffffffffffffffffffffffffffffffffffff021916908373ffffffffffffffffffffffffffffffffffffffff1602179055508073ffffffffffffffffffffffffffffffffffffffff167f7dae230f18360d76a040c81f050aa14eb9d6dc7901b20fc5d855e2a20fe814d160405160405180910390a250565b610a38610ab6565b600073ffffffffffffffffffffffffffffffffffffffff168173ffffffffffffffffffffffffffffffffffffffff1603610aaa5760006040517f1e4fbdf7000000000000000000000000000000000000000000000000000000008152600401610aa19190610ea7565b60405180910390fd5b610ab381610b8c565b50565b610abe610c50565b73ffffffffffffffffffffffffffffffffffffffff16610adc6108dd565b73ffffffffffffffffffffffffffffffffffffffff1614610b3b57610aff610c50565b6040517f118cdaa7000000000000000000000000000000000000000000000000000000008152600401610b329190610ea7565b60405180910390fd5b565b600260015403610b79576040517f3ee5aeb500000000000000000000000000000000000000000000000000000000815260040160405180910390fd5b6002600181905550565b60018081905550565b60008060009054906101000a900473ffffffffffffffffffffffffffffffffffffffff169050816000806101000a81548173ffffffffffffffffffffffffffffffffffffffff021916908373ffffffffffffffffffffffffffffffffffffffff1602179055508173ffffffffffffffffffffffffffffffffffffffff168173ffffffffffffffffffffffffffffffffffffffff167f8be0079c531659141344cd1fd0a4f28419497f9722a3daafe3b4186f6b6457e060405160405180910390a35050565b600033905090565b600080fd5b600080fd5b600073ffffffffffffffffffffffffffffffffffffffff82169050919050565b6000610c8d82610c62565b9050919050565b610c9d81610c82565b8114610ca857600080fd5b50565b600081359050610cba81610c94565b92915050565b600060208284031215610cd657610cd5610c58565b5b6000610ce484828501610cab565b91505092915050565b60008115159050919050565b610d0281610ced565b82525050565b6000602082019050610d1d6000830184610cf9565b92915050565b6000819050919050565b610d3681610d23565b8114610d4157600080fd5b50565b600081359050610d5381610d2d565b92915050565b600080fd5b600080fd5b600080fd5b60008083601f840112610d7e57610d7d610d59565b5b8235905067ffffffffffffffff811115610d9b57610d9a610d5e565b5b602083019150836001820283011115610db757610db6610d63565b5b9250929050565b60008060008060608587031215610dd857610dd7610c58565b5b6000610de687828801610cab565b9450506020610df787828801610d44565b935050604085013567ffffffffffffffff811115610e1857610e17610c5d565b5b610e2487828801610d68565b925092505092959194509250565b610e3b81610d23565b82525050565b6000602082019050610e566000830184610e32565b92915050565b6000610e6782610c62565b9050919050565b610e7781610e5c565b82525050565b6000602082019050610e926000830184610e6e565b92915050565b610ea181610c82565b82525050565b6000602082019050610ebc6000830184610e98565b92915050565b610ecb81610e5c565b8114610ed657600080fd5b50565b600081359050610ee881610ec2565b92915050565b600060208284031215610f0457610f03610c58565b5b6000610f1284828501610ed9565b91505092915050565b610f2481610ced565b8114610f2f57600080fd5b50565b600081519050610f4181610f1b565b92915050565b600060208284031215610f5d57610f5c610c58565b5b6000610f6b84828501610f32565b91505092915050565b600082825260208201905092915050565b7f47616d655061796d656e74476174657761793a2062616420626f6e64696e672060008201527f6375727665000000000000000000000000000000000000000000000000000000602082015250565b6000610fe1602583610f74565b9150610fec82610f85565b604082019050919050565b6000602082019050818103600083015261101081610fd4565b9050919050565b7f47616d655061796d656e74476174657761793a2066656174757265207265717560008201527f6972656400000000000000000000000000000000000000000000000000000000602082015250565b6000611073602483610f74565b915061107e82611017565b604082019050919050565b600060208201905081810360008301526110a281611066565b9050919050565b7f47616d655061796d656e74476174657761793a20746f6b656e206e6f7420616360008201527f6365707465640000000000000000000000000000000000000000000000000000602082015250565b6000611105602683610f74565b9150611110826110a9565b604082019050919050565b60006020820190508181036000830152611134816110f8565b9050919050565b7f47616d655061796d656e74476174657761793a2073656e6420444f4745000000600082015250565b6000611171601d83610f74565b915061117c8261113b565b602082019050919050565b600060208201905081810360008301526111a081611164565b9050919050565b600081905092915050565b50565b60006111c26000836111a7565b91506111cd826111b2565b600082019050919050565b60006111e3826111b5565b9150819050919050565b7f47616d655061796d656e74476174657761793a20444f474520666f727761726460008201527f206661696c656400000000000000000000000000000000000000000000000000602082015250565b6000611249602783610f74565b9150611254826111ed565b604082019050919050565b600060208201905081810360008301526112788161123c565b9050919050565b7f47616d655061796d656e74476174657761793a20756e6578706563746564204460008201527f4f47452073656e74000000000000000000000000000000000000000000000000602082015250565b60006112db602883610f74565b91506112e68261127f565b604082019050919050565b6000602082019050818103600083015261130a816112ce565b9050919050565b7f47616d655061796d656e74476174657761793a20616d6f756e74206d7573742060008201527f6265203e20300000000000000000000000000000000000000000000000000000602082015250565b600061136d602683610f74565b915061137882611311565b604082019050919050565b6000602082019050818103600083015261139c81611360565b9050919050565b6000819050919050565b60006113c86113c36113be84610c62565b6113a3565b610c62565b9050919050565b60006113da826113ad565b9050919050565b60006113ec826113cf565b9050919050565b6113fc816113e1565b82525050565b60006060820190506114176000830186610e98565b61142460208301856113f3565b6114316040830184610e32565b949350505050565b7f47616d655061796d656e74476174657761793a20746f6b656e207472616e736660008201527f6572206661696c65640000000000000000000000000000000000000000000000602082015250565b6000611495602983610f74565b91506114a082611439565b604082019050919050565b600060208201905081810360008301526114c481611488565b9050919050565b7f4e487b7100000000000000000000000000000000000000000000000000000000600052601160045260246000fd5b600061150582610d23565b91507fffffffffffffffffffffffffffffffffffffffffffffffffffffffffffffffff8203611537576115366114cb565b5b600182019050919050565b82818337600083830152505050565b6000601f19601f8301169050919050565b600061156e8385610f74565b935061157b838584611542565b61158483611551565b840190509392505050565b60006060820190506115a46000830187610e98565b6115b16020830186610e32565b81810360408301526115c4818486611562565b905095945050505050565b7f47616d655061796d656e74476174657761793a20626164207472656173757279600082015250565b6000611605602083610f74565b9150611610826115cf565b602082019050919050565b60006020820190508181036000830152611634816115f8565b905091905056fea2646970667358221220b7f8f5ef9b82d9f9295735f58d91fd70f6bd0127167be58051aaebf4d052acf464736f6c63430008180033",
  "devdoc": {
    "details": "Single entry point for in-game spending that isn't LAB's existing reward flow: extra lives, marketplace purchases, Lab Surge wagers, tournament entries, and anything future utilities add. Accepts native DOGE, the LAB token, or any token that has graduated off its bonding curve - unlaunched or still-bonding tokens are rejected, so a curve can't be used for in-game spend before the market has actually vetted it. This contract doesn't track game state (lives, wager pots, purchase history) - that lives in the backend's Game Payments collection, keyed off the payment_id in the PaymentReceived event below. It just verifies the payment is in an accepted currency and forwards it to LauncherTreasury. Payouts (e.g. a Lab Surge winner receiving the pot) go back out the same way any protocol spend does, as a Treasury owner withdrawal, rather than this contract holding funds in escrow.",
    "errors": {
      "OwnableInvalidOwner(address)": [
        {
          "details": "The owner is not a valid owner account. (eg. `address(0)`)"
        }
      ],
      "OwnableUnauthorizedAccount(address)": [
        {
          "details": "The caller account is not authorized to perform an operation."
        }
      ],
      "ReentrancyGuardReentrantCall()": [
        {
          "details": "Unauthorized reentrant call."
        }
      ]
    },
    "kind": "dev",
    "methods": {
      "owner()": {
        "details": "Returns the address of the current owner."
      },
      "pay(address,uint256,string)": {
        "params": {
          "amount": "required for ERC20 payments; ignored for native DOGE (msg.value is used instead).",
          "feature": "short tag identifying what's being paid for, e.g. \"extra_life\", \"marketplace:<listingId>\", \"lab_surge:<matchId>\".",
          "token": "address(0) for native DOGE, otherwise an ERC20 (LAB or a graduated launcher token)."
        }
      },
      "renounceOwnership()": {
        "details": "Leaves the contract without owner. It will not be possible to call `onlyOwner` functions. Can only be called by the current owner. NOTE: Renouncing ownership will leave the contract without an owner, thereby disabling any functionality that is only available to the owner."
      },
      "transferOwnership(address)": {
        "details": "Transfers ownership of the contract to a new account (`newOwner`). Can only be called by the current owner."
      }
    },
    "title": "GamePaymentGateway",
    "version": 1
  },
  "userdoc": {
    "kind": "user",
    "methods": {},
    "version": 1
  },
  "storageLayout": {
    "storage": [
      {
        "astId": 8,
        "contract": "contracts/GamePaymentGateway.sol:GamePaymentGateway",
        "label": "_owner",
        "offset": 0,
        "slot": "0",
        "type": "t_address"
      },
      {
        "astId": 2769,
        "contract": "contracts/GamePaymentGateway.sol:GamePaymentGateway",
        "label": "_status",
        "offset": 0,
        "slot": "1",
        "type": "t_uint256"
      },
      {
        "astId": 8961,
        "contract": "contracts/GamePaymentGateway.sol:GamePaymentGateway",
        "label": "bondingCurve",
        "offset": 0,
        "slot": "2",
        "type": "t_address"
      },
      {
        "astId": 8963,
        "contract": "contracts/GamePaymentGateway.sol:GamePaymentGateway",
        "label": "treasury",
        "offset": 0,
        "slot": "3",
        "type": "t_address_payable"
      },
      {
        "astId": 8966,
        "contract": "contracts/GamePaymentGateway.sol:GamePaymentGateway",
        "label": "nextPaymentId",
        "offset": 0,
        "slot": "4",
        "type": "t_uint256"
      }
    ],
    "types": {
      "t_address": {
        "encoding": "inplace",
        "label": "address",
        "numberOfBytes": "20"
      },
      "t_address_payable": {
        "encoding": "inplace",
        "label": "address payable",
        "numberOfBytes": "20"
      },
      "t_uint256": {
        "encoding": "inplace",
        "label": "uint256",
        "numberOfBytes": "32"
      }
    }
  }
}