{
  "address": "0x7c19D7533D6FFd6969352ff60Dd55387EcAF8DDE",
  "abi": [
    {
      "inputs": [
        {
          "internalType": "address",
          "name": "bondingCurve_",
          "type": "address"
        },
        {
          "internalType": "address",
          "name": "owner_",
          "type": "address"
        }
      ],
      "stateMutability": "nonpayable",
      "type": "constructor"
    },
    {
      "inputs": [
        {
          "internalType": "address",
          "name": "owner",
          "type": "address"
        }
      ],
      "name": "OwnableInvalidOwner",
      "type": "error"
    },
    {
      "inputs": [
        {
          "internalType": "address",
          "name": "account",
          "type": "address"
        }
      ],
      "name": "OwnableUnauthorizedAccount",
      "type": "error"
    },
    {
      "anonymous": false,
      "inputs": [
        {
          "indexed": true,
          "internalType": "address",
          "name": "bondingCurve",
          "type": "address"
        }
      ],
      "name": "BondingCurveUpdated",
      "type": "event"
    },
    {
      "anonymous": false,
      "inputs": [
        {
          "indexed": true,
          "internalType": "address",
          "name": "previousOwner",
          "type": "address"
        },
        {
          "indexed": true,
          "internalType": "address",
          "name": "newOwner",
          "type": "address"
        }
      ],
      "name": "OwnershipTransferred",
      "type": "event"
    },
    {
      "anonymous": false,
      "inputs": [
        {
          "indexed": true,
          "internalType": "address",
          "name": "router",
          "type": "address"
        }
      ],
      "name": "RouterUpdated",
      "type": "event"
    },
    {
      "anonymous": false,
      "inputs": [
        {
          "indexed": true,
          "internalType": "address",
          "name": "token",
          "type": "address"
        },
        {
          "indexed": true,
          "internalType": "address",
          "name": "pair",
          "type": "address"
        },
        {
          "indexed": false,
          "internalType": "address",
          "name": "creator",
          "type": "address"
        },
        {
          "indexed": false,
          "internalType": "uint256",
          "name": "dogeAmount",
          "type": "uint256"
        },
        {
          "indexed": false,
          "internalType": "uint256",
          "name": "tokenAmount",
          "type": "uint256"
        },
        {
          "indexed": false,
          "internalType": "uint256",
          "name": "liquidity",
          "type": "uint256"
        }
      ],
      "name": "TokenGraduated",
      "type": "event"
    },
    {
      "inputs": [],
      "name": "BPS_DENOMINATOR",
      "outputs": [
        {
          "internalType": "uint256",
          "name": "",
          "type": "uint256"
        }
      ],
      "stateMutability": "view",
      "type": "function"
    },
    {
      "inputs": [],
      "name": "BURN_ADDRESS",
      "outputs": [
        {
          "internalType": "address",
          "name": "",
          "type": "address"
        }
      ],
      "stateMutability": "view",
      "type": "function"
    },
    {
      "inputs": [],
      "name": "bondingCurve",
      "outputs": [
        {
          "internalType": "address",
          "name": "",
          "type": "address"
        }
      ],
      "stateMutability": "view",
      "type": "function"
    },
    {
      "inputs": [
        {
          "internalType": "address",
          "name": "token",
          "type": "address"
        },
        {
          "internalType": "uint256",
          "name": "tokenAmount",
          "type": "uint256"
        },
        {
          "internalType": "address",
          "name": "creator",
          "type": "address"
        }
      ],
      "name": "graduate",
      "outputs": [],
      "stateMutability": "payable",
      "type": "function"
    },
    {
      "inputs": [],
      "name": "liquiditySlippageBps",
      "outputs": [
        {
          "internalType": "uint256",
          "name": "",
          "type": "uint256"
        }
      ],
      "stateMutability": "view",
      "type": "function"
    },
    {
      "inputs": [],
      "name": "owner",
      "outputs": [
        {
          "internalType": "address",
          "name": "",
          "type": "address"
        }
      ],
      "stateMutability": "view",
      "type": "function"
    },
    {
      "inputs": [
        {
          "internalType": "address",
          "name": "",
          "type": "address"
        }
      ],
      "name": "pairOf",
      "outputs": [
        {
          "internalType": "address",
          "name": "",
          "type": "address"
        }
      ],
      "stateMutability": "view",
      "type": "function"
    },
    {
      "inputs": [],
      "name": "renounceOwnership",
      "outputs": [],
      "stateMutability": "nonpayable",
      "type": "function"
    },
    {
      "inputs": [],
      "name": "router",
      "outputs": [
        {
          "internalType": "contract IDexRouter",
          "name": "",
          "type": "address"
        }
      ],
      "stateMutability": "view",
      "type": "function"
    },
    {
      "inputs": [
        {
          "internalType": "address",
          "name": "bondingCurve_",
          "type": "address"
        }
      ],
      "name": "setBondingCurve",
      "outputs": [],
      "stateMutability": "nonpayable",
      "type": "function"
    },
    {
      "inputs": [
        {
          "internalType": "uint256",
          "name": "bps",
          "type": "uint256"
        }
      ],
      "name": "setLiquiditySlippageBps",
      "outputs": [],
      "stateMutability": "nonpayable",
      "type": "function"
    },
    {
      "inputs": [
        {
          "internalType": "address",
          "name": "router_",
          "type": "address"
        }
      ],
      "name": "setRouter",
      "outputs": [],
      "stateMutability": "nonpayable",
      "type": "function"
    },
    {
      "inputs": [
        {
          "internalType": "address",
          "name": "token",
          "type": "address"
        },
        {
          "internalType": "address",
          "name": "to",
          "type": "address"
        },
        {
          "internalType": "uint256",
          "name": "amount",
          "type": "uint256"
        }
      ],
      "name": "sweep",
      "outputs": [],
      "stateMutability": "nonpayable",
      "type": "function"
    },
    {
      "inputs": [
        {
          "internalType": "address",
          "name": "newOwner",
          "type": "address"
        }
      ],
      "name": "transferOwnership",
      "outputs": [],
      "stateMutability": "nonpayable",
      "type": "function"
    },
    {
      "stateMutability": "payable",
      "type": "receive"
    }
  ],
  "transactionHash": "0xf4c7ea090b09f251010631e9cc70f8f1d170d9bcb139a16f593808492720d489",
  "args": [
    "0x5C1E7deb7BD89d4AEB7B57B7b6D1Ad266886f848",
    "0x0aCD0De8A6A25E37588fF181DB97117cdb39EDB7"
  ],
  "numDeployments": 1,
  "solcInputHash": "f4135481a12e30f0c3bbada1ed1bfc3b",
  "bytecode": "0x608060405261012c6003553480156200001757600080fd5b506040516200227d3803806200227d83398181016040528101906200003d9190620002ae565b80600073ffffffffffffffffffffffffffffffffffffffff168173ffffffffffffffffffffffffffffffffffffffff1603620000b35760006040517f1e4fbdf7000000000000000000000000000000000000000000000000000000008152600401620000aa919062000306565b60405180910390fd5b620000c4816200018060201b60201c565b50600073ffffffffffffffffffffffffffffffffffffffff168273ffffffffffffffffffffffffffffffffffffffff160362000137576040517f08c379a00000000000000000000000000000000000000000000000000000000081526004016200012e90620003aa565b60405180910390fd5b81600160006101000a81548173ffffffffffffffffffffffffffffffffffffffff021916908373ffffffffffffffffffffffffffffffffffffffff1602179055505050620003cc565b60008060009054906101000a900473ffffffffffffffffffffffffffffffffffffffff169050816000806101000a81548173ffffffffffffffffffffffffffffffffffffffff021916908373ffffffffffffffffffffffffffffffffffffffff1602179055508173ffffffffffffffffffffffffffffffffffffffff168173ffffffffffffffffffffffffffffffffffffffff167f8be0079c531659141344cd1fd0a4f28419497f9722a3daafe3b4186f6b6457e060405160405180910390a35050565b600080fd5b600073ffffffffffffffffffffffffffffffffffffffff82169050919050565b6000620002768262000249565b9050919050565b620002888162000269565b81146200029457600080fd5b50565b600081519050620002a8816200027d565b92915050565b60008060408385031215620002c857620002c762000244565b5b6000620002d88582860162000297565b9250506020620002eb8582860162000297565b9150509250929050565b620003008162000269565b82525050565b60006020820190506200031d6000830184620002f5565b92915050565b600082825260208201905092915050565b7f47726164756174696f6e4d616e616765723a2062616420626f6e64696e67206360008201527f7572766500000000000000000000000000000000000000000000000000000000602082015250565b60006200039260248362000323565b91506200039f8262000334565b604082019050919050565b60006020820190508181036000830152620003c58162000383565b9050919050565b611ea180620003dc6000396000f3fe6080604052600436106100e15760003560e01c8063c0fa47a41161007f578063f2fde38b11610059578063f2fde38b14610284578063f887ea40146102ad578063f90f7fe4146102d8578063fccc281314610301576100e8565b8063c0fa47a414610212578063e1a452181461022e578063eff1d50e14610259576100e8565b8063715018a6116100bb578063715018a61461016a5780638da5cb5b14610181578063a7465bdb146101ac578063c0d78655146101e9576100e8565b806307042173146100ed57806343ff1fb81461011857806362c0676714610141576100e8565b366100e857005b600080fd5b3480156100f957600080fd5b5061010261032c565b60405161010f91906111fa565b60405180910390f35b34801561012457600080fd5b5061013f600480360381019061013a9190611278565b610332565b005b34801561014d57600080fd5b50610168600480360381019061016391906112d1565b610430565b005b34801561017657600080fd5b5061017f610650565b005b34801561018d57600080fd5b50610196610664565b6040516101a39190611333565b60405180910390f35b3480156101b857600080fd5b506101d360048036038101906101ce9190611278565b61068d565b6040516101e09190611333565b60405180910390f35b3480156101f557600080fd5b50610210600480360381019061020b9190611278565b6106c0565b005b61022c6004803603810190610227919061134e565b6107be565b005b34801561023a57600080fd5b50610243610f59565b60405161025091906111fa565b60405180910390f35b34801561026557600080fd5b5061026e610f5f565b60405161027b9190611333565b60405180910390f35b34801561029057600080fd5b506102ab60048036038101906102a69190611278565b610f85565b005b3480156102b957600080fd5b506102c261100b565b6040516102cf9190611400565b60405180910390f35b3480156102e457600080fd5b506102ff60048036038101906102fa919061141b565b611031565b005b34801561030d57600080fd5b50610316611088565b6040516103239190611333565b60405180910390f35b60035481565b61033a61108e565b600073ffffffffffffffffffffffffffffffffffffffff168173ffffffffffffffffffffffffffffffffffffffff16036103a9576040517f08c379a00000000000000000000000000000000000000000000000000000000081526004016103a0906114cb565b60405180910390fd5b80600160006101000a81548173ffffffffffffffffffffffffffffffffffffffff021916908373ffffffffffffffffffffffffffffffffffffffff1602179055508073ffffffffffffffffffffffffffffffffffffffff167fc4fda5d836a9aaafabd3088c5f5dcabfe179c3b392b09dbac0e8727667f3c77660405160405180910390a250565b61043861108e565b600073ffffffffffffffffffffffffffffffffffffffff168273ffffffffffffffffffffffffffffffffffffffff16036104a7576040517f08c379a000000000000000000000000000000000000000000000000000000000815260040161049e90611537565b60405180910390fd5b600073ffffffffffffffffffffffffffffffffffffffff168373ffffffffffffffffffffffffffffffffffffffff160361058d5760008273ffffffffffffffffffffffffffffffffffffffff168260405161050190611588565b60006040518083038185875af1925050503d806000811461053e576040519150601f19603f3d011682016040523d82523d6000602084013e610543565b606091505b5050905080610587576040517f08c379a000000000000000000000000000000000000000000000000000000000815260040161057e9061160f565b60405180910390fd5b5061064b565b8273ffffffffffffffffffffffffffffffffffffffff1663a9059cbb83836040518363ffffffff1660e01b81526004016105c892919061162f565b6020604051808303816000875af11580156105e7573d6000803e3d6000fd5b505050506040513d601f19601f8201168201806040525081019061060b9190611690565b61064a576040517f08c379a00000000000000000000000000000000000000000000000000000000081526004016106419061172f565b60405180910390fd5b5b505050565b61065861108e565b6106626000611115565b565b60008060009054906101000a900473ffffffffffffffffffffffffffffffffffffffff16905090565b60046020528060005260406000206000915054906101000a900473ffffffffffffffffffffffffffffffffffffffff1681565b6106c861108e565b600073ffffffffffffffffffffffffffffffffffffffff168173ffffffffffffffffffffffffffffffffffffffff1603610737576040517f08c379a000000000000000000000000000000000000000000000000000000000815260040161072e9061179b565b60405180910390fd5b80600260006101000a81548173ffffffffffffffffffffffffffffffffffffffff021916908373ffffffffffffffffffffffffffffffffffffffff1602179055508073ffffffffffffffffffffffffffffffffffffffff167f7aed1d3e8155a07ccf395e44ea3109a0e2d6c9b29bbbe9f142d9790596f4dc8060405160405180910390a250565b600160009054906101000a900473ffffffffffffffffffffffffffffffffffffffff1673ffffffffffffffffffffffffffffffffffffffff163373ffffffffffffffffffffffffffffffffffffffff161461084e576040517f08c379a00000000000000000000000000000000000000000000000000000000081526004016108459061182d565b60405180910390fd5b600073ffffffffffffffffffffffffffffffffffffffff16600260009054906101000a900473ffffffffffffffffffffffffffffffffffffffff1673ffffffffffffffffffffffffffffffffffffffff16036108df576040517f08c379a00000000000000000000000000000000000000000000000000000000081526004016108d6906118bf565b60405180910390fd5b6000341180156108ef5750600082115b61092e576040517f08c379a000000000000000000000000000000000000000000000000000000000815260040161092590611951565b60405180910390fd5b600073ffffffffffffffffffffffffffffffffffffffff16600460008573ffffffffffffffffffffffffffffffffffffffff1673ffffffffffffffffffffffffffffffffffffffff16815260200190815260200160002060009054906101000a900473ffffffffffffffffffffffffffffffffffffffff1673ffffffffffffffffffffffffffffffffffffffff16146109fc576040517f08c379a00000000000000000000000000000000000000000000000000000000081526004016109f3906119e3565b60405180910390fd5b600061271060035484610a0f9190611a32565b610a199190611aa3565b83610a249190611ad4565b9050600061271060035434610a399190611a32565b610a439190611aa3565b34610a4e9190611ad4565b90508473ffffffffffffffffffffffffffffffffffffffff1663095ea7b3600260009054906101000a900473ffffffffffffffffffffffffffffffffffffffff16866040518363ffffffff1660e01b8152600401610aad92919061162f565b6020604051808303816000875af1158015610acc573d6000803e3d6000fd5b505050506040513d601f19601f82011682018060405250810190610af09190611690565b610b2f576040517f08c379a0000000000000000000000000000000000000000000000000000000008152600401610b2690611b7a565b60405180910390fd5b6000600260009054906101000a900473ffffffffffffffffffffffffffffffffffffffff1673ffffffffffffffffffffffffffffffffffffffff1663f305d719348888878761dead61038442610b859190611b9a565b6040518863ffffffff1660e01b8152600401610ba696959493929190611bce565b60606040518083038185885af1158015610bc4573d6000803e3d6000fd5b50505050506040513d601f19601f82011682018060405250810190610be99190611c44565b925050506000600260009054906101000a900473ffffffffffffffffffffffffffffffffffffffff1673ffffffffffffffffffffffffffffffffffffffff1663c45a01556040518163ffffffff1660e01b8152600401602060405180830381865afa158015610c5c573d6000803e3d6000fd5b505050506040513d601f19601f82011682018060405250810190610c809190611cac565b73ffffffffffffffffffffffffffffffffffffffff1663e6a4390588600260009054906101000a900473ffffffffffffffffffffffffffffffffffffffff1673ffffffffffffffffffffffffffffffffffffffff1663ad5c46486040518163ffffffff1660e01b8152600401602060405180830381865afa158015610d09573d6000803e3d6000fd5b505050506040513d601f19601f82011682018060405250810190610d2d9190611cac565b6040518363ffffffff1660e01b8152600401610d4a929190611cd9565b602060405180830381865afa158015610d67573d6000803e3d6000fd5b505050506040513d601f19601f82011682018060405250810190610d8b9190611cac565b9050600073ffffffffffffffffffffffffffffffffffffffff168173ffffffffffffffffffffffffffffffffffffffff1603610dfc576040517f08c379a0000000000000000000000000000000000000000000000000000000008152600401610df390611d74565b60405180910390fd5b80600460008973ffffffffffffffffffffffffffffffffffffffff1673ffffffffffffffffffffffffffffffffffffffff16815260200190815260200160002060006101000a81548173ffffffffffffffffffffffffffffffffffffffff021916908373ffffffffffffffffffffffffffffffffffffffff1602179055508673ffffffffffffffffffffffffffffffffffffffff166385da047c826040518263ffffffff1660e01b8152600401610eb39190611333565b600060405180830381600087803b158015610ecd57600080fd5b505af1158015610ee1573d6000803e3d6000fd5b505050508073ffffffffffffffffffffffffffffffffffffffff168773ffffffffffffffffffffffffffffffffffffffff167fe0c01cf91b3ada998e6163978b21351c02e42caef18c922614cff4f09800d32b87348a87604051610f489493929190611d94565b60405180910390a350505050505050565b61271081565b600160009054906101000a900473ffffffffffffffffffffffffffffffffffffffff1681565b610f8d61108e565b600073ffffffffffffffffffffffffffffffffffffffff168173ffffffffffffffffffffffffffffffffffffffff1603610fff5760006040517f1e4fbdf7000000000000000000000000000000000000000000000000000000008152600401610ff69190611333565b60405180910390fd5b61100881611115565b50565b600260009054906101000a900473ffffffffffffffffffffffffffffffffffffffff1681565b61103961108e565b6107d081111561107e576040517f08c379a000000000000000000000000000000000000000000000000000000000815260040161107590611e4b565b60405180910390fd5b8060038190555050565b61dead81565b6110966111d9565b73ffffffffffffffffffffffffffffffffffffffff166110b4610664565b73ffffffffffffffffffffffffffffffffffffffff1614611113576110d76111d9565b6040517f118cdaa700000000000000000000000000000000000000000000000000000000815260040161110a9190611333565b60405180910390fd5b565b60008060009054906101000a900473ffffffffffffffffffffffffffffffffffffffff169050816000806101000a81548173ffffffffffffffffffffffffffffffffffffffff021916908373ffffffffffffffffffffffffffffffffffffffff1602179055508173ffffffffffffffffffffffffffffffffffffffff168173ffffffffffffffffffffffffffffffffffffffff167f8be0079c531659141344cd1fd0a4f28419497f9722a3daafe3b4186f6b6457e060405160405180910390a35050565b600033905090565b6000819050919050565b6111f4816111e1565b82525050565b600060208201905061120f60008301846111eb565b92915050565b600080fd5b600073ffffffffffffffffffffffffffffffffffffffff82169050919050565b60006112458261121a565b9050919050565b6112558161123a565b811461126057600080fd5b50565b6000813590506112728161124c565b92915050565b60006020828403121561128e5761128d611215565b5b600061129c84828501611263565b91505092915050565b6112ae816111e1565b81146112b957600080fd5b50565b6000813590506112cb816112a5565b92915050565b6000806000606084860312156112ea576112e9611215565b5b60006112f886828701611263565b935050602061130986828701611263565b925050604061131a868287016112bc565b9150509250925092565b61132d8161123a565b82525050565b60006020820190506113486000830184611324565b92915050565b60008060006060848603121561136757611366611215565b5b600061137586828701611263565b9350506020611386868287016112bc565b925050604061139786828701611263565b9150509250925092565b6000819050919050565b60006113c66113c16113bc8461121a565b6113a1565b61121a565b9050919050565b60006113d8826113ab565b9050919050565b60006113ea826113cd565b9050919050565b6113fa816113df565b82525050565b600060208201905061141560008301846113f1565b92915050565b60006020828403121561143157611430611215565b5b600061143f848285016112bc565b91505092915050565b600082825260208201905092915050565b7f47726164756174696f6e4d616e616765723a2062616420626f6e64696e67206360008201527f7572766500000000000000000000000000000000000000000000000000000000602082015250565b60006114b5602483611448565b91506114c082611459565b604082019050919050565b600060208201905081810360008301526114e4816114a8565b9050919050565b7f47726164756174696f6e4d616e616765723a2062616420726563697069656e74600082015250565b6000611521602083611448565b915061152c826114eb565b602082019050919050565b6000602082019050818103600083015261155081611514565b9050919050565b600081905092915050565b50565b6000611572600083611557565b915061157d82611562565b600082019050919050565b600061159382611565565b9150819050919050565b7f47726164756174696f6e4d616e616765723a20444f474520737765657020666160008201527f696c656400000000000000000000000000000000000000000000000000000000602082015250565b60006115f9602483611448565b91506116048261159d565b604082019050919050565b60006020820190508181036000830152611628816115ec565b9050919050565b60006040820190506116446000830185611324565b61165160208301846111eb565b9392505050565b60008115159050919050565b61166d81611658565b811461167857600080fd5b50565b60008151905061168a81611664565b92915050565b6000602082840312156116a6576116a5611215565b5b60006116b48482850161167b565b91505092915050565b7f47726164756174696f6e4d616e616765723a20746f6b656e207377656570206660008201527f61696c6564000000000000000000000000000000000000000000000000000000602082015250565b6000611719602583611448565b9150611724826116bd565b604082019050919050565b600060208201905081810360008301526117488161170c565b9050919050565b7f47726164756174696f6e4d616e616765723a2062616420726f75746572000000600082015250565b6000611785601d83611448565b91506117908261174f565b602082019050919050565b600060208201905081810360008301526117b481611778565b9050919050565b7f47726164756174696f6e4d616e616765723a206e6f7420626f6e64696e67206360008201527f7572766500000000000000000000000000000000000000000000000000000000602082015250565b6000611817602483611448565b9150611822826117bb565b604082019050919050565b600060208201905081810360008301526118468161180a565b9050919050565b7f47726164756174696f6e4d616e616765723a20726f75746572206e6f7420636f60008201527f6e66696775726564000000000000000000000000000000000000000000000000602082015250565b60006118a9602883611448565b91506118b48261184d565b604082019050919050565b600060208201905081810360008301526118d88161189c565b9050919050565b7f47726164756174696f6e4d616e616765723a206e6f7468696e6720746f20736560008201527f656420706f6f6c20776974680000000000000000000000000000000000000000602082015250565b600061193b602c83611448565b9150611946826118df565b604082019050919050565b6000602082019050818103600083015261196a8161192e565b9050919050565b7f47726164756174696f6e4d616e616765723a20616c726561647920677261647560008201527f6174656400000000000000000000000000000000000000000000000000000000602082015250565b60006119cd602483611448565b91506119d882611971565b604082019050919050565b600060208201905081810360008301526119fc816119c0565b9050919050565b7f4e487b7100000000000000000000000000000000000000000000000000000000600052601160045260246000fd5b6000611a3d826111e1565b9150611a48836111e1565b9250828202611a56816111e1565b91508282048414831517611a6d57611a6c611a03565b5b5092915050565b7f4e487b7100000000000000000000000000000000000000000000000000000000600052601260045260246000fd5b6000611aae826111e1565b9150611ab9836111e1565b925082611ac957611ac8611a74565b5b828204905092915050565b6000611adf826111e1565b9150611aea836111e1565b9250828203905081811115611b0257611b01611a03565b5b92915050565b7f47726164756174696f6e4d616e616765723a20617070726f7665206661696c6560008201527f6400000000000000000000000000000000000000000000000000000000000000602082015250565b6000611b64602183611448565b9150611b6f82611b08565b604082019050919050565b60006020820190508181036000830152611b9381611b57565b9050919050565b6000611ba5826111e1565b9150611bb0836111e1565b9250828201905080821115611bc857611bc7611a03565b5b92915050565b600060c082019050611be36000830189611324565b611bf060208301886111eb565b611bfd60408301876111eb565b611c0a60608301866111eb565b611c176080830185611324565b611c2460a08301846111eb565b979650505050505050565b600081519050611c3e816112a5565b92915050565b600080600060608486031215611c5d57611c5c611215565b5b6000611c6b86828701611c2f565b9350506020611c7c86828701611c2f565b9250506040611c8d86828701611c2f565b9150509250925092565b600081519050611ca68161124c565b92915050565b600060208284031215611cc257611cc1611215565b5b6000611cd084828501611c97565b91505092915050565b6000604082019050611cee6000830185611324565b611cfb6020830184611324565b9392505050565b7f47726164756174696f6e4d616e616765723a2070616972206e6f7420666f756e60008201527f6400000000000000000000000000000000000000000000000000000000000000602082015250565b6000611d5e602183611448565b9150611d6982611d02565b604082019050919050565b60006020820190508181036000830152611d8d81611d51565b9050919050565b6000608082019050611da96000830187611324565b611db660208301866111eb565b611dc360408301856111eb565b611dd060608301846111eb565b95945050505050565b7f47726164756174696f6e4d616e616765723a20736c69707061676520746f6f2060008201527f6869676800000000000000000000000000000000000000000000000000000000602082015250565b6000611e35602483611448565b9150611e4082611dd9565b604082019050919050565b60006020820190508181036000830152611e6481611e28565b905091905056fea2646970667358221220056092f6ddb6a679f31293908ccee4fd4ace1a000a12128c0692264fbe5403be64736f6c63430008180033",
  "devdoc": {
    "details": "Receives a token's remaining supply and raised DOGE from BondingCurve once it hits its target, and turns that into a permanently locked DEX position: it adds the liquidity, burns the LP tokens to a dead address (the simplest, most trustless form of \"Liquidity Locked\" - nobody, not even DogeFood Lab, can ever be the one who pulls it), and flips on the token's post-graduation swap fee against the new pair. The DEX router address is NOT hardcoded - DogeOS's router/factory addresses should be set via setRouter() once known. graduate() reverts until that's configured, so a missing router blocks graduation loudly instead of silently sending funds somewhere wrong.",
    "errors": {
      "OwnableInvalidOwner(address)": [
        {
          "details": "The owner is not a valid owner account. (eg. `address(0)`)"
        }
      ],
      "OwnableUnauthorizedAccount(address)": [
        {
          "details": "The caller account is not authorized to perform an operation."
        }
      ]
    },
    "kind": "dev",
    "methods": {
      "graduate(address,uint256,address)": {
        "details": "Called once by BondingCurve when a curve's graduation target is reached. Expects tokenAmount of `token` to already have been transferred here, and the DOGE amount to arrive as msg.value."
      },
      "owner()": {
        "details": "Returns the address of the current owner."
      },
      "renounceOwnership()": {
        "details": "Leaves the contract without owner. It will not be possible to call `onlyOwner` functions. Can only be called by the current owner. NOTE: Renouncing ownership will leave the contract without an owner, thereby disabling any functionality that is only available to the owner."
      },
      "setRouter(address)": {
        "details": "Must be called with DogeOS's live DEX router address before the first token can graduate."
      },
      "sweep(address,address,uint256)": {
        "details": "Recovers rounding dust left behind after addLiquidityETH (it can use slightly less than the full amounts offered). Does not touch tokens/DOGE mid-graduation since graduate() is a single atomic call."
      },
      "transferOwnership(address)": {
        "details": "Transfers ownership of the contract to a new account (`newOwner`). Can only be called by the current owner."
      }
    },
    "stateVariables": {
      "liquiditySlippageBps": {
        "details": "Basis points of slippage tolerance allowed when seeding the pool (e.g. 300 = 3%). Applies to both the token and DOGE side."
      }
    },
    "title": "GraduationManager",
    "version": 1
  },
  "userdoc": {
    "kind": "user",
    "methods": {},
    "version": 1
  },
  "storageLayout": {
    "storage": [
      {
        "astId": 8,
        "contract": "contracts/GraduationManager.sol:GraduationManager",
        "label": "_owner",
        "offset": 0,
        "slot": "0",
        "type": "t_address"
      },
      {
        "astId": 9302,
        "contract": "contracts/GraduationManager.sol:GraduationManager",
        "label": "bondingCurve",
        "offset": 0,
        "slot": "1",
        "type": "t_address"
      },
      {
        "astId": 9305,
        "contract": "contracts/GraduationManager.sol:GraduationManager",
        "label": "router",
        "offset": 0,
        "slot": "2",
        "type": "t_contract(IDexRouter)9278"
      },
      {
        "astId": 9309,
        "contract": "contracts/GraduationManager.sol:GraduationManager",
        "label": "liquiditySlippageBps",
        "offset": 0,
        "slot": "3",
        "type": "t_uint256"
      },
      {
        "astId": 9316,
        "contract": "contracts/GraduationManager.sol:GraduationManager",
        "label": "pairOf",
        "offset": 0,
        "slot": "4",
        "type": "t_mapping(t_address,t_address)"
      }
    ],
    "types": {
      "t_address": {
        "encoding": "inplace",
        "label": "address",
        "numberOfBytes": "20"
      },
      "t_contract(IDexRouter)9278": {
        "encoding": "inplace",
        "label": "contract IDexRouter",
        "numberOfBytes": "20"
      },
      "t_mapping(t_address,t_address)": {
        "encoding": "mapping",
        "key": "t_address",
        "label": "mapping(address => address)",
        "numberOfBytes": "32",
        "value": "t_address"
      },
      "t_uint256": {
        "encoding": "inplace",
        "label": "uint256",
        "numberOfBytes": "32"
      }
    }
  }
}