{
  "address": "0x4C38525e3fE1C7a904463621Ecef8ED22B97120f",
  "abi": [
    {
      "inputs": [
        {
          "internalType": "address",
          "name": "_owner",
          "type": "address"
        },
        {
          "internalType": "address",
          "name": "_rewardDistributor",
          "type": "address"
        },
        {
          "internalType": "address",
          "name": "_publicSale",
          "type": "address"
        },
        {
          "internalType": "address",
          "name": "_liquidity",
          "type": "address"
        },
        {
          "internalType": "address",
          "name": "_marketing",
          "type": "address"
        },
        {
          "internalType": "address",
          "name": "_teamVesting",
          "type": "address"
        }
      ],
      "stateMutability": "nonpayable",
      "type": "constructor"
    },
    {
      "inputs": [
        {
          "internalType": "address",
          "name": "spender",
          "type": "address"
        },
        {
          "internalType": "uint256",
          "name": "allowance",
          "type": "uint256"
        },
        {
          "internalType": "uint256",
          "name": "needed",
          "type": "uint256"
        }
      ],
      "name": "ERC20InsufficientAllowance",
      "type": "error"
    },
    {
      "inputs": [
        {
          "internalType": "address",
          "name": "sender",
          "type": "address"
        },
        {
          "internalType": "uint256",
          "name": "balance",
          "type": "uint256"
        },
        {
          "internalType": "uint256",
          "name": "needed",
          "type": "uint256"
        }
      ],
      "name": "ERC20InsufficientBalance",
      "type": "error"
    },
    {
      "inputs": [
        {
          "internalType": "address",
          "name": "approver",
          "type": "address"
        }
      ],
      "name": "ERC20InvalidApprover",
      "type": "error"
    },
    {
      "inputs": [
        {
          "internalType": "address",
          "name": "receiver",
          "type": "address"
        }
      ],
      "name": "ERC20InvalidReceiver",
      "type": "error"
    },
    {
      "inputs": [
        {
          "internalType": "address",
          "name": "sender",
          "type": "address"
        }
      ],
      "name": "ERC20InvalidSender",
      "type": "error"
    },
    {
      "inputs": [
        {
          "internalType": "address",
          "name": "spender",
          "type": "address"
        }
      ],
      "name": "ERC20InvalidSpender",
      "type": "error"
    },
    {
      "inputs": [
        {
          "internalType": "address",
          "name": "owner",
          "type": "address"
        }
      ],
      "name": "OwnableInvalidOwner",
      "type": "error"
    },
    {
      "inputs": [
        {
          "internalType": "address",
          "name": "account",
          "type": "address"
        }
      ],
      "name": "OwnableUnauthorizedAccount",
      "type": "error"
    },
    {
      "anonymous": false,
      "inputs": [
        {
          "indexed": true,
          "internalType": "address",
          "name": "owner",
          "type": "address"
        },
        {
          "indexed": true,
          "internalType": "address",
          "name": "spender",
          "type": "address"
        },
        {
          "indexed": false,
          "internalType": "uint256",
          "name": "value",
          "type": "uint256"
        }
      ],
      "name": "Approval",
      "type": "event"
    },
    {
      "anonymous": false,
      "inputs": [
        {
          "indexed": true,
          "internalType": "address",
          "name": "previousOwner",
          "type": "address"
        },
        {
          "indexed": true,
          "internalType": "address",
          "name": "newOwner",
          "type": "address"
        }
      ],
      "name": "OwnershipTransferred",
      "type": "event"
    },
    {
      "anonymous": false,
      "inputs": [
        {
          "indexed": true,
          "internalType": "address",
          "name": "newDistributor",
          "type": "address"
        }
      ],
      "name": "RewardDistributorUpdated",
      "type": "event"
    },
    {
      "anonymous": false,
      "inputs": [
        {
          "indexed": false,
          "internalType": "uint256",
          "name": "amount",
          "type": "uint256"
        }
      ],
      "name": "TeamTokensReleased",
      "type": "event"
    },
    {
      "anonymous": false,
      "inputs": [
        {
          "indexed": true,
          "internalType": "address",
          "name": "from",
          "type": "address"
        },
        {
          "indexed": true,
          "internalType": "address",
          "name": "to",
          "type": "address"
        },
        {
          "indexed": false,
          "internalType": "uint256",
          "name": "value",
          "type": "uint256"
        }
      ],
      "name": "Transfer",
      "type": "event"
    },
    {
      "inputs": [],
      "name": "COMMUNITY_ALLOCATION",
      "outputs": [
        {
          "internalType": "uint256",
          "name": "",
          "type": "uint256"
        }
      ],
      "stateMutability": "view",
      "type": "function"
    },
    {
      "inputs": [],
      "name": "LIQUIDITY_ALLOCATION",
      "outputs": [
        {
          "internalType": "uint256",
          "name": "",
          "type": "uint256"
        }
      ],
      "stateMutability": "view",
      "type": "function"
    },
    {
      "inputs": [],
      "name": "MARKETING_ALLOCATION",
      "outputs": [
        {
          "internalType": "uint256",
          "name": "",
          "type": "uint256"
        }
      ],
      "stateMutability": "view",
      "type": "function"
    },
    {
      "inputs": [],
      "name": "PUBLIC_SALE_ALLOCATION",
      "outputs": [
        {
          "internalType": "uint256",
          "name": "",
          "type": "uint256"
        }
      ],
      "stateMutability": "view",
      "type": "function"
    },
    {
      "inputs": [],
      "name": "TEAM_ALLOCATION",
      "outputs": [
        {
          "internalType": "uint256",
          "name": "",
          "type": "uint256"
        }
      ],
      "stateMutability": "view",
      "type": "function"
    },
    {
      "inputs": [],
      "name": "TOTAL_SUPPLY",
      "outputs": [
        {
          "internalType": "uint256",
          "name": "",
          "type": "uint256"
        }
      ],
      "stateMutability": "view",
      "type": "function"
    },
    {
      "inputs": [
        {
          "internalType": "address",
          "name": "owner",
          "type": "address"
        },
        {
          "internalType": "address",
          "name": "spender",
          "type": "address"
        }
      ],
      "name": "allowance",
      "outputs": [
        {
          "internalType": "uint256",
          "name": "",
          "type": "uint256"
        }
      ],
      "stateMutability": "view",
      "type": "function"
    },
    {
      "inputs": [
        {
          "internalType": "address",
          "name": "spender",
          "type": "address"
        },
        {
          "internalType": "uint256",
          "name": "value",
          "type": "uint256"
        }
      ],
      "name": "approve",
      "outputs": [
        {
          "internalType": "bool",
          "name": "",
          "type": "bool"
        }
      ],
      "stateMutability": "nonpayable",
      "type": "function"
    },
    {
      "inputs": [
        {
          "internalType": "address",
          "name": "account",
          "type": "address"
        }
      ],
      "name": "balanceOf",
      "outputs": [
        {
          "internalType": "uint256",
          "name": "",
          "type": "uint256"
        }
      ],
      "stateMutability": "view",
      "type": "function"
    },
    {
      "inputs": [],
      "name": "decimals",
      "outputs": [
        {
          "internalType": "uint8",
          "name": "",
          "type": "uint8"
        }
      ],
      "stateMutability": "view",
      "type": "function"
    },
    {
      "inputs": [],
      "name": "getReleasableAmount",
      "outputs": [
        {
          "internalType": "uint256",
          "name": "",
          "type": "uint256"
        }
      ],
      "stateMutability": "view",
      "type": "function"
    },
    {
      "inputs": [],
      "name": "name",
      "outputs": [
        {
          "internalType": "string",
          "name": "",
          "type": "string"
        }
      ],
      "stateMutability": "view",
      "type": "function"
    },
    {
      "inputs": [],
      "name": "owner",
      "outputs": [
        {
          "internalType": "address",
          "name": "",
          "type": "address"
        }
      ],
      "stateMutability": "view",
      "type": "function"
    },
    {
      "inputs": [],
      "name": "releaseTeamTokens",
      "outputs": [],
      "stateMutability": "nonpayable",
      "type": "function"
    },
    {
      "inputs": [],
      "name": "renounceOwnership",
      "outputs": [],
      "stateMutability": "nonpayable",
      "type": "function"
    },
    {
      "inputs": [],
      "name": "rewardDistributor",
      "outputs": [
        {
          "internalType": "address",
          "name": "",
          "type": "address"
        }
      ],
      "stateMutability": "view",
      "type": "function"
    },
    {
      "inputs": [
        {
          "internalType": "address",
          "name": "_rewardDistributor",
          "type": "address"
        }
      ],
      "name": "setRewardDistributor",
      "outputs": [],
      "stateMutability": "nonpayable",
      "type": "function"
    },
    {
      "inputs": [],
      "name": "symbol",
      "outputs": [
        {
          "internalType": "string",
          "name": "",
          "type": "string"
        }
      ],
      "stateMutability": "view",
      "type": "function"
    },
    {
      "inputs": [],
      "name": "teamCliffEnd",
      "outputs": [
        {
          "internalType": "uint256",
          "name": "",
          "type": "uint256"
        }
      ],
      "stateMutability": "view",
      "type": "function"
    },
    {
      "inputs": [],
      "name": "teamTokensReleased",
      "outputs": [
        {
          "internalType": "uint256",
          "name": "",
          "type": "uint256"
        }
      ],
      "stateMutability": "view",
      "type": "function"
    },
    {
      "inputs": [],
      "name": "teamVesting",
      "outputs": [
        {
          "internalType": "address",
          "name": "",
          "type": "address"
        }
      ],
      "stateMutability": "view",
      "type": "function"
    },
    {
      "inputs": [],
      "name": "teamVestingEnd",
      "outputs": [
        {
          "internalType": "uint256",
          "name": "",
          "type": "uint256"
        }
      ],
      "stateMutability": "view",
      "type": "function"
    },
    {
      "inputs": [],
      "name": "totalSupply",
      "outputs": [
        {
          "internalType": "uint256",
          "name": "",
          "type": "uint256"
        }
      ],
      "stateMutability": "view",
      "type": "function"
    },
    {
      "inputs": [
        {
          "internalType": "address",
          "name": "to",
          "type": "address"
        },
        {
          "internalType": "uint256",
          "name": "value",
          "type": "uint256"
        }
      ],
      "name": "transfer",
      "outputs": [
        {
          "internalType": "bool",
          "name": "",
          "type": "bool"
        }
      ],
      "stateMutability": "nonpayable",
      "type": "function"
    },
    {
      "inputs": [
        {
          "internalType": "address",
          "name": "from",
          "type": "address"
        },
        {
          "internalType": "address",
          "name": "to",
          "type": "address"
        },
        {
          "internalType": "uint256",
          "name": "value",
          "type": "uint256"
        }
      ],
      "name": "transferFrom",
      "outputs": [
        {
          "internalType": "bool",
          "name": "",
          "type": "bool"
        }
      ],
      "stateMutability": "nonpayable",
      "type": "function"
    },
    {
      "inputs": [
        {
          "internalType": "address",
          "name": "newOwner",
          "type": "address"
        }
      ],
      "name": "transferOwnership",
      "outputs": [],
      "stateMutability": "nonpayable",
      "type": "function"
    }
  ],
  "transactionHash": "0xa19348959489e98787b4d44d2154300ec30be141ca8e4e6c993367a4df22d9e9",
  "args": [
    "0x0aCD0De8A6A25E37588fF181DB97117cdb39EDB7",
    "0x0000000000000000000000000000000000000000",
    "0x0aCD0De8A6A25E37588fF181DB97117cdb39EDB7",
    "0x0aCD0De8A6A25E37588fF181DB97117cdb39EDB7",
    "0x0aCD0De8A6A25E37588fF181DB97117cdb39EDB7",
    "0x0aCD0De8A6A25E37588fF181DB97117cdb39EDB7"
  ],
  "numDeployments": 1,
  "solcInputHash": "f4135481a12e30f0c3bbada1ed1bfc3b",
  "bytecode": "0x60806040523480156200001157600080fd5b50604051620025fc380380620025fc8339818101604052810190620000379190620006e8565b856040518060400160405280600981526020017f4c414220546f6b656e00000000000000000000000000000000000000000000008152506040518060400160405280600381526020017f4c414200000000000000000000000000000000000000000000000000000000008152508160039081620000b59190620009fe565b508060049081620000c79190620009fe565b505050600073ffffffffffffffffffffffffffffffffffffffff168173ffffffffffffffffffffffffffffffffffffffff16036200013f5760006040517f1e4fbdf700000000000000000000000000000000000000000000000000000000815260040162000136919062000af6565b60405180910390fd5b6200015081620002fb60201b60201c565b5084600660006101000a81548173ffffffffffffffffffffffffffffffffffffffff021916908373ffffffffffffffffffffffffffffffffffffffff16021790555080600760006101000a81548173ffffffffffffffffffffffffffffffffffffffff021916908373ffffffffffffffffffffffffffffffffffffffff1602179055506301e1338042620001e5919062000b42565b6008819055506301e13380600854620001ff919062000b42565b600981905550600073ffffffffffffffffffffffffffffffffffffffff168573ffffffffffffffffffffffffffffffffffffffff16146200025d5762000257856af330ebef7f58e6e6000000620003c160201b60201c565b6200027b565b6200027a306af330ebef7f58e6e6000000620003c160201b60201c565b5b62000298846a22bdd88fed9efc6a000000620003c160201b60201c565b620002b5836a22bdd88fed9efc6a000000620003c160201b60201c565b620002d2826a115eec47f6cf7e35000000620003c160201b60201c565b620002ef306a115eec47f6cf7e35000000620003c160201b60201c565b50505050505062000be8565b6000600560009054906101000a900473ffffffffffffffffffffffffffffffffffffffff16905081600560006101000a81548173ffffffffffffffffffffffffffffffffffffffff021916908373ffffffffffffffffffffffffffffffffffffffff1602179055508173ffffffffffffffffffffffffffffffffffffffff168173ffffffffffffffffffffffffffffffffffffffff167f8be0079c531659141344cd1fd0a4f28419497f9722a3daafe3b4186f6b6457e060405160405180910390a35050565b600073ffffffffffffffffffffffffffffffffffffffff168273ffffffffffffffffffffffffffffffffffffffff1603620004365760006040517fec442f050000000000000000000000000000000000000000000000000000000081526004016200042d919062000af6565b60405180910390fd5b6200044a600083836200044e60201b60201c565b5050565b600073ffffffffffffffffffffffffffffffffffffffff168373ffffffffffffffffffffffffffffffffffffffff1603620004a457806002600082825462000497919062000b42565b925050819055506200057a565b60008060008573ffffffffffffffffffffffffffffffffffffffff1673ffffffffffffffffffffffffffffffffffffffff1681526020019081526020016000205490508181101562000533578381836040517fe450d38c0000000000000000000000000000000000000000000000000000000081526004016200052a9392919062000b8e565b60405180910390fd5b8181036000808673ffffffffffffffffffffffffffffffffffffffff1673ffffffffffffffffffffffffffffffffffffffff16815260200190815260200160002081905550505b600073ffffffffffffffffffffffffffffffffffffffff168273ffffffffffffffffffffffffffffffffffffffff1603620005c5578060026000828254039250508190555062000612565b806000808473ffffffffffffffffffffffffffffffffffffffff1673ffffffffffffffffffffffffffffffffffffffff168152602001908152602001600020600082825401925050819055505b8173ffffffffffffffffffffffffffffffffffffffff168373ffffffffffffffffffffffffffffffffffffffff167fddf252ad1be2c89b69c2b068fc378daa952ba7f163c4a11628f55a4df523b3ef8360405162000671919062000bcb565b60405180910390a3505050565b600080fd5b600073ffffffffffffffffffffffffffffffffffffffff82169050919050565b6000620006b08262000683565b9050919050565b620006c281620006a3565b8114620006ce57600080fd5b50565b600081519050620006e281620006b7565b92915050565b60008060008060008060c087890312156200070857620007076200067e565b5b60006200071889828a01620006d1565b96505060206200072b89828a01620006d1565b95505060406200073e89828a01620006d1565b94505060606200075189828a01620006d1565b93505060806200076489828a01620006d1565b92505060a06200077789828a01620006d1565b9150509295509295509295565b600081519050919050565b7f4e487b7100000000000000000000000000000000000000000000000000000000600052604160045260246000fd5b7f4e487b7100000000000000000000000000000000000000000000000000000000600052602260045260246000fd5b600060028204905060018216806200080657607f821691505b6020821081036200081c576200081b620007be565b5b50919050565b60008190508160005260206000209050919050565b60006020601f8301049050919050565b600082821b905092915050565b600060088302620008867fffffffffffffffffffffffffffffffffffffffffffffffffffffffffffffffff8262000847565b62000892868362000847565b95508019841693508086168417925050509392505050565b6000819050919050565b6000819050919050565b6000620008df620008d9620008d384620008aa565b620008b4565b620008aa565b9050919050565b6000819050919050565b620008fb83620008be565b620009136200090a82620008e6565b84845462000854565b825550505050565b600090565b6200092a6200091b565b62000937818484620008f0565b505050565b5b818110156200095f576200095360008262000920565b6001810190506200093d565b5050565b601f821115620009ae57620009788162000822565b620009838462000837565b8101602085101562000993578190505b620009ab620009a28562000837565b8301826200093c565b50505b505050565b600082821c905092915050565b6000620009d360001984600802620009b3565b1980831691505092915050565b6000620009ee8383620009c0565b9150826002028217905092915050565b62000a098262000784565b67ffffffffffffffff81111562000a255762000a246200078f565b5b62000a318254620007ed565b62000a3e82828562000963565b600060209050601f83116001811462000a76576000841562000a61578287015190505b62000a6d8582620009e0565b86555062000add565b601f19841662000a868662000822565b60005b8281101562000ab05784890151825560018201915060208501945060208101905062000a89565b8683101562000ad0578489015162000acc601f891682620009c0565b8355505b6001600288020188555050505b505050505050565b62000af081620006a3565b82525050565b600060208201905062000b0d600083018462000ae5565b92915050565b7f4e487b7100000000000000000000000000000000000000000000000000000000600052601160045260246000fd5b600062000b4f82620008aa565b915062000b5c83620008aa565b925082820190508082111562000b775762000b7662000b13565b5b92915050565b62000b8881620008aa565b82525050565b600060608201905062000ba5600083018662000ae5565b62000bb4602083018562000b7d565b62000bc3604083018462000b7d565b949350505050565b600060208201905062000be2600083018462000b7d565b92915050565b611a048062000bf86000396000f3fe608060405234801561001057600080fd5b506004361061018e5760003560e01c80638e80bd39116100de578063acc2166a11610097578063dd62ed3e11610071578063dd62ed3e14610445578063f2fde38b14610475578063f9428f3814610491578063fd99cbed146104af5761018e565b8063acc2166a146103eb578063bc4e0b0414610409578063cd881742146104275761018e565b80638e80bd3914610327578063902d55a51461034557806395d89b4114610363578063993eb1c514610381578063a1809b951461039f578063a9059cbb146103bb5761018e565b8063313ce5671161014b57806370a082311161012557806370a08231146102b1578063715018a6146102e15780638401b968146102eb5780638da5cb5b146103095761018e565b8063313ce567146102575780633dc762f014610275578063619f3d6c146102935761018e565b806306fdde0314610193578063095ea7b3146101b157806314c411c7146101e157806318160ddd146101eb578063234978791461020957806323b872dd14610227575b600080fd5b61019b6104cd565b6040516101a891906113d2565b60405180910390f35b6101cb60048036038101906101c6919061148d565b61055f565b6040516101d891906114e8565b60405180910390f35b6101e9610582565b005b6101f36106e5565b6040516102009190611512565b60405180910390f35b6102116106ef565b60405161021e9190611512565b60405180910390f35b610241600480360381019061023c919061152d565b6106f5565b60405161024e91906114e8565b60405180910390f35b61025f610724565b60405161026c919061159c565b60405180910390f35b61027d61072d565b60405161028a9190611512565b60405180910390f35b61029b61073c565b6040516102a891906115c6565b60405180910390f35b6102cb60048036038101906102c691906115e1565b610762565b6040516102d89190611512565b60405180910390f35b6102e96107aa565b005b6102f36107be565b6040516103009190611512565b60405180910390f35b6103116107cd565b60405161031e91906115c6565b60405180910390f35b61032f6107f7565b60405161033c9190611512565b60405180910390f35b61034d610806565b60405161035a9190611512565b60405180910390f35b61036b610816565b60405161037891906113d2565b60405180910390f35b6103896108a8565b6040516103969190611512565b60405180910390f35b6103b960048036038101906103b491906115e1565b6108b7565b005b6103d560048036038101906103d0919061148d565b610a42565b6040516103e291906114e8565b60405180910390f35b6103f3610a65565b60405161040091906115c6565b60405180910390f35b610411610a8b565b60405161041e9190611512565b60405180910390f35b61042f610a91565b60405161043c9190611512565b60405180910390f35b61045f600480360381019061045a919061160e565b610a97565b60405161046c9190611512565b60405180910390f35b61048f600480360381019061048a91906115e1565b610b1e565b005b610499610ba4565b6040516104a69190611512565b60405180910390f35b6104b7610bb3565b6040516104c49190611512565b60405180910390f35b6060600380546104dc9061167d565b80601f01602080910402602001604051908101604052809291908181526020018280546105089061167d565b80156105555780601f1061052a57610100808354040283529160200191610555565b820191906000526020600020905b81548152906001019060200180831161053857829003601f168201915b5050505050905090565b60008061056a610bc2565b9050610577818585610bca565b600191505092915050565b6008544210156105c7576040517f08c379a00000000000000000000000000000000000000000000000000000000081526004016105be906116fa565b60405180910390fd5b6a115eec47f6cf7e35000000600a5410610616576040517f08c379a000000000000000000000000000000000000000000000000000000000815260040161060d90611766565b60405180910390fd5b6000610620610bdc565b905060008111610665576040517f08c379a000000000000000000000000000000000000000000000000000000000815260040161065c906117d2565b60405180910390fd5b80600a60008282546106779190611821565b925050819055506106ab30600760009054906101000a900473ffffffffffffffffffffffffffffffffffffffff1683610c71565b7f4856c68262aaf0ccd29dbcbf45f154ee742d5b1ee2afac2ca5606a9b656cd256816040516106da9190611512565b60405180910390a150565b6000600254905090565b60085481565b600080610700610bc2565b905061070d858285610d65565b610718858585610c71565b60019150509392505050565b60006012905090565b6a22bdd88fed9efc6a00000081565b600760009054906101000a900473ffffffffffffffffffffffffffffffffffffffff1681565b60008060008373ffffffffffffffffffffffffffffffffffffffff1673ffffffffffffffffffffffffffffffffffffffff168152602001908152602001600020549050919050565b6107b2610df9565b6107bc6000610e80565b565b60006107c8610bdc565b905090565b6000600560009054906101000a900473ffffffffffffffffffffffffffffffffffffffff16905090565b6a115eec47f6cf7e3500000081565b6b015b6a759f4835dc2400000081565b6060600480546108259061167d565b80601f01602080910402602001604051908101604052809291908181526020018280546108519061167d565b801561089e5780601f106108735761010080835404028352916020019161089e565b820191906000526020600020905b81548152906001019060200180831161088157829003601f168201915b5050505050905090565b6af330ebef7f58e6e600000081565b6108bf610df9565b600073ffffffffffffffffffffffffffffffffffffffff168173ffffffffffffffffffffffffffffffffffffffff160361092e576040517f08c379a0000000000000000000000000000000000000000000000000000000008152600401610925906118a1565b60405180910390fd5b600073ffffffffffffffffffffffffffffffffffffffff16600660009054906101000a900473ffffffffffffffffffffffffffffffffffffffff1673ffffffffffffffffffffffffffffffffffffffff1614801561099f57506af330ebef7f58e6e600000061099c30610762565b10155b156109bb576109ba30826af330ebef7f58e6e6000000610c71565b5b80600660006101000a81548173ffffffffffffffffffffffffffffffffffffffff021916908373ffffffffffffffffffffffffffffffffffffffff1602179055508073ffffffffffffffffffffffffffffffffffffffff167f15057bbec20fe352ac8931e529ade6a9ce138c954ffc87d6aa3423dd066c4acd60405160405180910390a250565b600080610a4d610bc2565b9050610a5a818585610c71565b600191505092915050565b600660009054906101000a900473ffffffffffffffffffffffffffffffffffffffff1681565b60095481565b600a5481565b6000600160008473ffffffffffffffffffffffffffffffffffffffff1673ffffffffffffffffffffffffffffffffffffffff16815260200190815260200160002060008373ffffffffffffffffffffffffffffffffffffffff1673ffffffffffffffffffffffffffffffffffffffff16815260200190815260200160002054905092915050565b610b26610df9565b600073ffffffffffffffffffffffffffffffffffffffff168173ffffffffffffffffffffffffffffffffffffffff1603610b985760006040517f1e4fbdf7000000000000000000000000000000000000000000000000000000008152600401610b8f91906115c6565b60405180910390fd5b610ba181610e80565b50565b6a22bdd88fed9efc6a00000081565b6a115eec47f6cf7e3500000081565b600033905090565b610bd78383836001610f46565b505050565b6000600854421015610bf15760009050610c6e565b60006009544210610c0f576a115eec47f6cf7e350000009050610c5c565b6000600854600954610c2191906118c1565b9050600060085442610c3391906118c1565b905081816a115eec47f6cf7e35000000610c4d91906118f5565b610c579190611966565b925050505b600a5481610c6a91906118c1565b9150505b90565b600073ffffffffffffffffffffffffffffffffffffffff168373ffffffffffffffffffffffffffffffffffffffff1603610ce35760006040517f96c6fd1e000000000000000000000000000000000000000000000000000000008152600401610cda91906115c6565b60405180910390fd5b600073ffffffffffffffffffffffffffffffffffffffff168273ffffffffffffffffffffffffffffffffffffffff1603610d555760006040517fec442f05000000000000000000000000000000000000000000000000000000008152600401610d4c91906115c6565b60405180910390fd5b610d6083838361111d565b505050565b6000610d718484610a97565b90507fffffffffffffffffffffffffffffffffffffffffffffffffffffffffffffffff8114610df35781811015610de3578281836040517ffb8f41b2000000000000000000000000000000000000000000000000000000008152600401610dda93929190611997565b60405180910390fd5b610df284848484036000610f46565b5b50505050565b610e01610bc2565b73ffffffffffffffffffffffffffffffffffffffff16610e1f6107cd565b73ffffffffffffffffffffffffffffffffffffffff1614610e7e57610e42610bc2565b6040517f118cdaa7000000000000000000000000000000000000000000000000000000008152600401610e7591906115c6565b60405180910390fd5b565b6000600560009054906101000a900473ffffffffffffffffffffffffffffffffffffffff16905081600560006101000a81548173ffffffffffffffffffffffffffffffffffffffff021916908373ffffffffffffffffffffffffffffffffffffffff1602179055508173ffffffffffffffffffffffffffffffffffffffff168173ffffffffffffffffffffffffffffffffffffffff167f8be0079c531659141344cd1fd0a4f28419497f9722a3daafe3b4186f6b6457e060405160405180910390a35050565b600073ffffffffffffffffffffffffffffffffffffffff168473ffffffffffffffffffffffffffffffffffffffff1603610fb85760006040517fe602df05000000000000000000000000000000000000000000000000000000008152600401610faf91906115c6565b60405180910390fd5b600073ffffffffffffffffffffffffffffffffffffffff168373ffffffffffffffffffffffffffffffffffffffff160361102a5760006040517f94280d6200000000000000000000000000000000000000000000000000000000815260040161102191906115c6565b60405180910390fd5b81600160008673ffffffffffffffffffffffffffffffffffffffff1673ffffffffffffffffffffffffffffffffffffffff16815260200190815260200160002060008573ffffffffffffffffffffffffffffffffffffffff1673ffffffffffffffffffffffffffffffffffffffff168152602001908152602001600020819055508015611117578273ffffffffffffffffffffffffffffffffffffffff168473ffffffffffffffffffffffffffffffffffffffff167f8c5be1e5ebec7d5bd14f71427d1e84f3dd0314c0f7b2291e5b200ac8c7c3b9258460405161110e9190611512565b60405180910390a35b50505050565b600073ffffffffffffffffffffffffffffffffffffffff168373ffffffffffffffffffffffffffffffffffffffff160361116f5780600260008282546111639190611821565b92505081905550611242565b60008060008573ffffffffffffffffffffffffffffffffffffffff1673ffffffffffffffffffffffffffffffffffffffff168152602001908152602001600020549050818110156111fb578381836040517fe450d38c0000000000000000000000000000000000000000000000000000000081526004016111f293929190611997565b60405180910390fd5b8181036000808673ffffffffffffffffffffffffffffffffffffffff1673ffffffffffffffffffffffffffffffffffffffff16815260200190815260200160002081905550505b600073ffffffffffffffffffffffffffffffffffffffff168273ffffffffffffffffffffffffffffffffffffffff160361128b57806002600082825403925050819055506112d8565b806000808473ffffffffffffffffffffffffffffffffffffffff1673ffffffffffffffffffffffffffffffffffffffff168152602001908152602001600020600082825401925050819055505b8173ffffffffffffffffffffffffffffffffffffffff168373ffffffffffffffffffffffffffffffffffffffff167fddf252ad1be2c89b69c2b068fc378daa952ba7f163c4a11628f55a4df523b3ef836040516113359190611512565b60405180910390a3505050565b600081519050919050565b600082825260208201905092915050565b60005b8381101561137c578082015181840152602081019050611361565b60008484015250505050565b6000601f19601f8301169050919050565b60006113a482611342565b6113ae818561134d565b93506113be81856020860161135e565b6113c781611388565b840191505092915050565b600060208201905081810360008301526113ec8184611399565b905092915050565b600080fd5b600073ffffffffffffffffffffffffffffffffffffffff82169050919050565b6000611424826113f9565b9050919050565b61143481611419565b811461143f57600080fd5b50565b6000813590506114518161142b565b92915050565b6000819050919050565b61146a81611457565b811461147557600080fd5b50565b60008135905061148781611461565b92915050565b600080604083850312156114a4576114a36113f4565b5b60006114b285828601611442565b92505060206114c385828601611478565b9150509250929050565b60008115159050919050565b6114e2816114cd565b82525050565b60006020820190506114fd60008301846114d9565b92915050565b61150c81611457565b82525050565b60006020820190506115276000830184611503565b92915050565b600080600060608486031215611546576115456113f4565b5b600061155486828701611442565b935050602061156586828701611442565b925050604061157686828701611478565b9150509250925092565b600060ff82169050919050565b61159681611580565b82525050565b60006020820190506115b1600083018461158d565b92915050565b6115c081611419565b82525050565b60006020820190506115db60008301846115b7565b92915050565b6000602082840312156115f7576115f66113f4565b5b600061160584828501611442565b91505092915050565b60008060408385031215611625576116246113f4565b5b600061163385828601611442565b925050602061164485828601611442565b9150509250929050565b7f4e487b7100000000000000000000000000000000000000000000000000000000600052602260045260246000fd5b6000600282049050600182168061169557607f821691505b6020821081036116a8576116a761164e565b5b50919050565b7f436c69666620706572696f64206e6f7420656e64656400000000000000000000600082015250565b60006116e460168361134d565b91506116ef826116ae565b602082019050919050565b60006020820190508181036000830152611713816116d7565b9050919050565b7f416c6c207465616d20746f6b656e732072656c65617365640000000000000000600082015250565b600061175060188361134d565b915061175b8261171a565b602082019050919050565b6000602082019050818103600083015261177f81611743565b9050919050565b7f4e6f20746f6b656e7320746f2072656c65617365000000000000000000000000600082015250565b60006117bc60148361134d565b91506117c782611786565b602082019050919050565b600060208201905081810360008301526117eb816117af565b9050919050565b7f4e487b7100000000000000000000000000000000000000000000000000000000600052601160045260246000fd5b600061182c82611457565b915061183783611457565b925082820190508082111561184f5761184e6117f2565b5b92915050565b7f496e76616c696420616464726573730000000000000000000000000000000000600082015250565b600061188b600f8361134d565b915061189682611855565b602082019050919050565b600060208201905081810360008301526118ba8161187e565b9050919050565b60006118cc82611457565b91506118d783611457565b92508282039050818111156118ef576118ee6117f2565b5b92915050565b600061190082611457565b915061190b83611457565b925082820261191981611457565b915082820484148315176119305761192f6117f2565b5b5092915050565b7f4e487b7100000000000000000000000000000000000000000000000000000000600052601260045260246000fd5b600061197182611457565b915061197c83611457565b92508261198c5761198b611937565b5b828204905092915050565b60006060820190506119ac60008301866115b7565b6119b96020830185611503565b6119c66040830184611503565b94935050505056fea26469706673582212207b4557252a6fe8cb5aeaf6de07782ff34f606001c455fe05c80bb84bdce6555864736f6c63430008180033",
  "devdoc": {
    "errors": {
      "ERC20InsufficientAllowance(address,uint256,uint256)": [
        {
          "details": "Indicates a failure with the `spender`’s `allowance`. Used in transfers.",
          "params": {
            "allowance": "Amount of tokens a `spender` is allowed to operate with.",
            "needed": "Minimum amount required to perform a transfer.",
            "spender": "Address that may be allowed to operate on tokens without being their owner."
          }
        }
      ],
      "ERC20InsufficientBalance(address,uint256,uint256)": [
        {
          "details": "Indicates an error related to the current `balance` of a `sender`. Used in transfers.",
          "params": {
            "balance": "Current balance for the interacting account.",
            "needed": "Minimum amount required to perform a transfer.",
            "sender": "Address whose tokens are being transferred."
          }
        }
      ],
      "ERC20InvalidApprover(address)": [
        {
          "details": "Indicates a failure with the `approver` of a token to be approved. Used in approvals.",
          "params": {
            "approver": "Address initiating an approval operation."
          }
        }
      ],
      "ERC20InvalidReceiver(address)": [
        {
          "details": "Indicates a failure with the token `receiver`. Used in transfers.",
          "params": {
            "receiver": "Address to which tokens are being transferred."
          }
        }
      ],
      "ERC20InvalidSender(address)": [
        {
          "details": "Indicates a failure with the token `sender`. Used in transfers.",
          "params": {
            "sender": "Address whose tokens are being transferred."
          }
        }
      ],
      "ERC20InvalidSpender(address)": [
        {
          "details": "Indicates a failure with the `spender` to be approved. Used in approvals.",
          "params": {
            "spender": "Address that may be allowed to operate on tokens without being their owner."
          }
        }
      ],
      "OwnableInvalidOwner(address)": [
        {
          "details": "The owner is not a valid owner account. (eg. `address(0)`)"
        }
      ],
      "OwnableUnauthorizedAccount(address)": [
        {
          "details": "The caller account is not authorized to perform an operation."
        }
      ]
    },
    "events": {
      "Approval(address,address,uint256)": {
        "details": "Emitted when the allowance of a `spender` for an `owner` is set by a call to {approve}. `value` is the new allowance."
      },
      "Transfer(address,address,uint256)": {
        "details": "Emitted when `value` tokens are moved from one account (`from`) to another (`to`). Note that `value` may be zero."
      }
    },
    "kind": "dev",
    "methods": {
      "allowance(address,address)": {
        "details": "See {IERC20-allowance}."
      },
      "approve(address,uint256)": {
        "details": "See {IERC20-approve}. NOTE: If `value` is the maximum `uint256`, the allowance is not updated on `transferFrom`. This is semantically equivalent to an infinite approval. Requirements: - `spender` cannot be the zero address."
      },
      "balanceOf(address)": {
        "details": "See {IERC20-balanceOf}."
      },
      "decimals()": {
        "details": "Returns the number of decimals used to get its user representation. For example, if `decimals` equals `2`, a balance of `505` tokens should be displayed to a user as `5.05` (`505 / 10 ** 2`). Tokens usually opt for a value of 18, imitating the relationship between Ether and Wei. This is the default value returned by this function, unless it's overridden. NOTE: This information is only used for _display_ purposes: it in no way affects any of the arithmetic of the contract, including {IERC20-balanceOf} and {IERC20-transfer}."
      },
      "name()": {
        "details": "Returns the name of the token."
      },
      "owner()": {
        "details": "Returns the address of the current owner."
      },
      "renounceOwnership()": {
        "details": "Leaves the contract without owner. It will not be possible to call `onlyOwner` functions. Can only be called by the current owner. NOTE: Renouncing ownership will leave the contract without an owner, thereby disabling any functionality that is only available to the owner."
      },
      "symbol()": {
        "details": "Returns the symbol of the token, usually a shorter version of the name."
      },
      "totalSupply()": {
        "details": "See {IERC20-totalSupply}."
      },
      "transfer(address,uint256)": {
        "details": "See {IERC20-transfer}. Requirements: - `to` cannot be the zero address. - the caller must have a balance of at least `value`."
      },
      "transferFrom(address,address,uint256)": {
        "details": "See {IERC20-transferFrom}. Skips emitting an {Approval} event indicating an allowance update. This is not required by the ERC. See {xref-ERC20-_approve-address-address-uint256-bool-}[_approve]. NOTE: Does not update the allowance if the current allowance is the maximum `uint256`. Requirements: - `from` and `to` cannot be the zero address. - `from` must have a balance of at least `value`. - the caller must have allowance for ``from``'s tokens of at least `value`."
      },
      "transferOwnership(address)": {
        "details": "Transfers ownership of the contract to a new account (`newOwner`). Can only be called by the current owner."
      }
    },
    "version": 1
  },
  "userdoc": {
    "kind": "user",
    "methods": {},
    "version": 1
  },
  "storageLayout": {
    "storage": [
      {
        "astId": 339,
        "contract": "contracts/LABToken.sol:LABToken",
        "label": "_balances",
        "offset": 0,
        "slot": "0",
        "type": "t_mapping(t_address,t_uint256)"
      },
      {
        "astId": 345,
        "contract": "contracts/LABToken.sol:LABToken",
        "label": "_allowances",
        "offset": 0,
        "slot": "1",
        "type": "t_mapping(t_address,t_mapping(t_address,t_uint256))"
      },
      {
        "astId": 347,
        "contract": "contracts/LABToken.sol:LABToken",
        "label": "_totalSupply",
        "offset": 0,
        "slot": "2",
        "type": "t_uint256"
      },
      {
        "astId": 349,
        "contract": "contracts/LABToken.sol:LABToken",
        "label": "_name",
        "offset": 0,
        "slot": "3",
        "type": "t_string_storage"
      },
      {
        "astId": 351,
        "contract": "contracts/LABToken.sol:LABToken",
        "label": "_symbol",
        "offset": 0,
        "slot": "4",
        "type": "t_string_storage"
      },
      {
        "astId": 8,
        "contract": "contracts/LABToken.sol:LABToken",
        "label": "_owner",
        "offset": 0,
        "slot": "5",
        "type": "t_address"
      },
      {
        "astId": 9721,
        "contract": "contracts/LABToken.sol:LABToken",
        "label": "rewardDistributor",
        "offset": 0,
        "slot": "6",
        "type": "t_address"
      },
      {
        "astId": 9723,
        "contract": "contracts/LABToken.sol:LABToken",
        "label": "teamVesting",
        "offset": 0,
        "slot": "7",
        "type": "t_address"
      },
      {
        "astId": 9725,
        "contract": "contracts/LABToken.sol:LABToken",
        "label": "teamCliffEnd",
        "offset": 0,
        "slot": "8",
        "type": "t_uint256"
      },
      {
        "astId": 9727,
        "contract": "contracts/LABToken.sol:LABToken",
        "label": "teamVestingEnd",
        "offset": 0,
        "slot": "9",
        "type": "t_uint256"
      },
      {
        "astId": 9729,
        "contract": "contracts/LABToken.sol:LABToken",
        "label": "teamTokensReleased",
        "offset": 0,
        "slot": "10",
        "type": "t_uint256"
      }
    ],
    "types": {
      "t_address": {
        "encoding": "inplace",
        "label": "address",
        "numberOfBytes": "20"
      },
      "t_mapping(t_address,t_mapping(t_address,t_uint256))": {
        "encoding": "mapping",
        "key": "t_address",
        "label": "mapping(address => mapping(address => uint256))",
        "numberOfBytes": "32",
        "value": "t_mapping(t_address,t_uint256)"
      },
      "t_mapping(t_address,t_uint256)": {
        "encoding": "mapping",
        "key": "t_address",
        "label": "mapping(address => uint256)",
        "numberOfBytes": "32",
        "value": "t_uint256"
      },
      "t_string_storage": {
        "encoding": "bytes",
        "label": "string",
        "numberOfBytes": "32"
      },
      "t_uint256": {
        "encoding": "inplace",
        "label": "uint256",
        "numberOfBytes": "32"
      }
    }
  }
}