{
  "address": "0x17083489ff064340d2971e3538F600FCB3211515",
  "abi": [
    {
      "inputs": [
        {
          "internalType": "address",
          "name": "owner_",
          "type": "address"
        }
      ],
      "stateMutability": "nonpayable",
      "type": "constructor"
    },
    {
      "inputs": [
        {
          "internalType": "address",
          "name": "owner",
          "type": "address"
        }
      ],
      "name": "OwnableInvalidOwner",
      "type": "error"
    },
    {
      "inputs": [
        {
          "internalType": "address",
          "name": "account",
          "type": "address"
        }
      ],
      "name": "OwnableUnauthorizedAccount",
      "type": "error"
    },
    {
      "anonymous": false,
      "inputs": [
        {
          "indexed": true,
          "internalType": "address",
          "name": "from",
          "type": "address"
        },
        {
          "indexed": false,
          "internalType": "uint256",
          "name": "amount",
          "type": "uint256"
        }
      ],
      "name": "NativeReceived",
      "type": "event"
    },
    {
      "anonymous": false,
      "inputs": [
        {
          "indexed": true,
          "internalType": "address",
          "name": "to",
          "type": "address"
        },
        {
          "indexed": false,
          "internalType": "uint256",
          "name": "amount",
          "type": "uint256"
        }
      ],
      "name": "NativeWithdrawn",
      "type": "event"
    },
    {
      "anonymous": false,
      "inputs": [
        {
          "indexed": true,
          "internalType": "address",
          "name": "previousOwner",
          "type": "address"
        },
        {
          "indexed": true,
          "internalType": "address",
          "name": "newOwner",
          "type": "address"
        }
      ],
      "name": "OwnershipTransferred",
      "type": "event"
    },
    {
      "anonymous": false,
      "inputs": [
        {
          "indexed": true,
          "internalType": "address",
          "name": "token",
          "type": "address"
        },
        {
          "indexed": true,
          "internalType": "address",
          "name": "to",
          "type": "address"
        },
        {
          "indexed": false,
          "internalType": "uint256",
          "name": "amount",
          "type": "uint256"
        }
      ],
      "name": "TokenWithdrawn",
      "type": "event"
    },
    {
      "inputs": [],
      "name": "owner",
      "outputs": [
        {
          "internalType": "address",
          "name": "",
          "type": "address"
        }
      ],
      "stateMutability": "view",
      "type": "function"
    },
    {
      "inputs": [],
      "name": "renounceOwnership",
      "outputs": [],
      "stateMutability": "nonpayable",
      "type": "function"
    },
    {
      "inputs": [
        {
          "internalType": "address",
          "name": "newOwner",
          "type": "address"
        }
      ],
      "name": "transferOwnership",
      "outputs": [],
      "stateMutability": "nonpayable",
      "type": "function"
    },
    {
      "inputs": [
        {
          "internalType": "address payable",
          "name": "to",
          "type": "address"
        },
        {
          "internalType": "uint256",
          "name": "amount",
          "type": "uint256"
        }
      ],
      "name": "withdrawNative",
      "outputs": [],
      "stateMutability": "nonpayable",
      "type": "function"
    },
    {
      "inputs": [
        {
          "internalType": "address",
          "name": "token",
          "type": "address"
        },
        {
          "internalType": "address",
          "name": "to",
          "type": "address"
        },
        {
          "internalType": "uint256",
          "name": "amount",
          "type": "uint256"
        }
      ],
      "name": "withdrawToken",
      "outputs": [],
      "stateMutability": "nonpayable",
      "type": "function"
    },
    {
      "stateMutability": "payable",
      "type": "receive"
    }
  ],
  "transactionHash": "0x16a5312248df52712109c3c5b04add3e7b8ed3f10e7a2766bc0fb7d2bf29db5d",
  "args": [
    "0x0aCD0De8A6A25E37588fF181DB97117cdb39EDB7"
  ],
  "numDeployments": 1,
  "solcInputHash": "f4135481a12e30f0c3bbada1ed1bfc3b",
  "bytecode": "0x60806040523480156200001157600080fd5b5060405162000dcc38038062000dcc8339818101604052810190620000379190620001f4565b80600073ffffffffffffffffffffffffffffffffffffffff168173ffffffffffffffffffffffffffffffffffffffff1603620000ad5760006040517f1e4fbdf7000000000000000000000000000000000000000000000000000000008152600401620000a4919062000237565b60405180910390fd5b620000be81620000c660201b60201c565b505062000254565b60008060009054906101000a900473ffffffffffffffffffffffffffffffffffffffff169050816000806101000a81548173ffffffffffffffffffffffffffffffffffffffff021916908373ffffffffffffffffffffffffffffffffffffffff1602179055508173ffffffffffffffffffffffffffffffffffffffff168173ffffffffffffffffffffffffffffffffffffffff167f8be0079c531659141344cd1fd0a4f28419497f9722a3daafe3b4186f6b6457e060405160405180910390a35050565b600080fd5b600073ffffffffffffffffffffffffffffffffffffffff82169050919050565b6000620001bc826200018f565b9050919050565b620001ce81620001af565b8114620001da57600080fd5b50565b600081519050620001ee81620001c3565b92915050565b6000602082840312156200020d576200020c6200018a565b5b60006200021d84828501620001dd565b91505092915050565b6200023181620001af565b82525050565b60006020820190506200024e600083018462000226565b92915050565b610b6880620002646000396000f3fe60806040526004361061004e5760003560e01c806301e33667146100a857806307b18bde146100d1578063715018a6146100fa5780638da5cb5b14610111578063f2fde38b1461013c576100a3565b366100a3573373ffffffffffffffffffffffffffffffffffffffff167f8ac633e5b094e1150d2a6495df4d0c77f51d293abe99e7733c78870dfbee76603460405161009991906106eb565b60405180910390a2005b600080fd5b3480156100b457600080fd5b506100cf60048036038101906100ca9190610795565b610165565b005b3480156100dd57600080fd5b506100f860048036038101906100f39190610826565b610303565b005b34801561010657600080fd5b5061010f6104bc565b005b34801561011d57600080fd5b506101266104d0565b6040516101339190610875565b60405180910390f35b34801561014857600080fd5b50610163600480360381019061015e9190610890565b6104f9565b005b61016d61057f565b600073ffffffffffffffffffffffffffffffffffffffff168273ffffffffffffffffffffffffffffffffffffffff16036101dc576040517f08c379a00000000000000000000000000000000000000000000000000000000081526004016101d39061091a565b60405180910390fd5b8273ffffffffffffffffffffffffffffffffffffffff1663a9059cbb83836040518363ffffffff1660e01b815260040161021792919061093a565b6020604051808303816000875af1158015610236573d6000803e3d6000fd5b505050506040513d601f19601f8201168201806040525081019061025a919061099b565b610299576040517f08c379a000000000000000000000000000000000000000000000000000000000815260040161029090610a3a565b60405180910390fd5b8173ffffffffffffffffffffffffffffffffffffffff168373ffffffffffffffffffffffffffffffffffffffff167f8210728e7c071f615b840ee026032693858fbcd5e5359e67e438c890f59e5620836040516102f691906106eb565b60405180910390a3505050565b61030b61057f565b600073ffffffffffffffffffffffffffffffffffffffff168273ffffffffffffffffffffffffffffffffffffffff160361037a576040517f08c379a00000000000000000000000000000000000000000000000000000000081526004016103719061091a565b60405180910390fd5b478111156103bd576040517f08c379a00000000000000000000000000000000000000000000000000000000081526004016103b490610acc565b60405180910390fd5b60008273ffffffffffffffffffffffffffffffffffffffff16826040516103e390610b1d565b60006040518083038185875af1925050503d8060008114610420576040519150601f19603f3d011682016040523d82523d6000602084013e610425565b606091505b5050905080610469576040517f08c379a000000000000000000000000000000000000000000000000000000000815260040161046090610a3a565b60405180910390fd5b8273ffffffffffffffffffffffffffffffffffffffff167fc303ca808382409472acbbf899c316cf439f409f6584aae22df86dfa3c9ed504836040516104af91906106eb565b60405180910390a2505050565b6104c461057f565b6104ce6000610606565b565b60008060009054906101000a900473ffffffffffffffffffffffffffffffffffffffff16905090565b61050161057f565b600073ffffffffffffffffffffffffffffffffffffffff168173ffffffffffffffffffffffffffffffffffffffff16036105735760006040517f1e4fbdf700000000000000000000000000000000000000000000000000000000815260040161056a9190610875565b60405180910390fd5b61057c81610606565b50565b6105876106ca565b73ffffffffffffffffffffffffffffffffffffffff166105a56104d0565b73ffffffffffffffffffffffffffffffffffffffff1614610604576105c86106ca565b6040517f118cdaa70000000000000000000000000000000000000000000000000000000081526004016105fb9190610875565b60405180910390fd5b565b60008060009054906101000a900473ffffffffffffffffffffffffffffffffffffffff169050816000806101000a81548173ffffffffffffffffffffffffffffffffffffffff021916908373ffffffffffffffffffffffffffffffffffffffff1602179055508173ffffffffffffffffffffffffffffffffffffffff168173ffffffffffffffffffffffffffffffffffffffff167f8be0079c531659141344cd1fd0a4f28419497f9722a3daafe3b4186f6b6457e060405160405180910390a35050565b600033905090565b6000819050919050565b6106e5816106d2565b82525050565b600060208201905061070060008301846106dc565b92915050565b600080fd5b600073ffffffffffffffffffffffffffffffffffffffff82169050919050565b60006107368261070b565b9050919050565b6107468161072b565b811461075157600080fd5b50565b6000813590506107638161073d565b92915050565b610772816106d2565b811461077d57600080fd5b50565b60008135905061078f81610769565b92915050565b6000806000606084860312156107ae576107ad610706565b5b60006107bc86828701610754565b93505060206107cd86828701610754565b92505060406107de86828701610780565b9150509250925092565b60006107f38261070b565b9050919050565b610803816107e8565b811461080e57600080fd5b50565b600081359050610820816107fa565b92915050565b6000806040838503121561083d5761083c610706565b5b600061084b85828601610811565b925050602061085c85828601610780565b9150509250929050565b61086f8161072b565b82525050565b600060208201905061088a6000830184610866565b92915050565b6000602082840312156108a6576108a5610706565b5b60006108b484828501610754565b91505092915050565b600082825260208201905092915050565b7f4c61756e6368657254726561737572793a2062616420726563697069656e7400600082015250565b6000610904601f836108bd565b915061090f826108ce565b602082019050919050565b60006020820190508181036000830152610933816108f7565b9050919050565b600060408201905061094f6000830185610866565b61095c60208301846106dc565b9392505050565b60008115159050919050565b61097881610963565b811461098357600080fd5b50565b6000815190506109958161096f565b92915050565b6000602082840312156109b1576109b0610706565b5b60006109bf84828501610986565b91505092915050565b7f4c61756e6368657254726561737572793a207472616e73666572206661696c6560008201527f6400000000000000000000000000000000000000000000000000000000000000602082015250565b6000610a246021836108bd565b9150610a2f826109c8565b604082019050919050565b60006020820190508181036000830152610a5381610a17565b9050919050565b7f4c61756e6368657254726561737572793a20696e73756666696369656e74206260008201527f616c616e63650000000000000000000000000000000000000000000000000000602082015250565b6000610ab66026836108bd565b9150610ac182610a5a565b604082019050919050565b60006020820190508181036000830152610ae581610aa9565b9050919050565b600081905092915050565b50565b6000610b07600083610aec565b9150610b1282610af7565b600082019050919050565b6000610b2882610afa565b915081905091905056fea264697066735822122049f67cf684d8c724b506fd3aa423b5c1b324a7c3e9620df5f71ffd257b92b4f164736f6c63430008180033",
  "devdoc": {
    "details": "Collects DogeFood Lab's share of every fee the launcher generates: the full 2% bonding-curve fee before a token graduates, the 1% protocol half of the swap fee after graduation (paid in-kind, in whatever token traded), and game payments routed through GamePaymentGateway (DOGE, LAB, or any graduated token). It never needs to know which of those a given deposit came from - it just holds native DOGE and ERC20 balances and lets the owner withdraw them. Lab Surge payouts and any other \"send funds back out\" flow are also just owner withdrawals from here, rather than a separate escrow contract.",
    "errors": {
      "OwnableInvalidOwner(address)": [
        {
          "details": "The owner is not a valid owner account. (eg. `address(0)`)"
        }
      ],
      "OwnableUnauthorizedAccount(address)": [
        {
          "details": "The caller account is not authorized to perform an operation."
        }
      ]
    },
    "kind": "dev",
    "methods": {
      "owner()": {
        "details": "Returns the address of the current owner."
      },
      "renounceOwnership()": {
        "details": "Leaves the contract without owner. It will not be possible to call `onlyOwner` functions. Can only be called by the current owner. NOTE: Renouncing ownership will leave the contract without an owner, thereby disabling any functionality that is only available to the owner."
      },
      "transferOwnership(address)": {
        "details": "Transfers ownership of the contract to a new account (`newOwner`). Can only be called by the current owner."
      }
    },
    "title": "LauncherTreasury",
    "version": 1
  },
  "userdoc": {
    "kind": "user",
    "methods": {},
    "version": 1
  },
  "storageLayout": {
    "storage": [
      {
        "astId": 8,
        "contract": "contracts/LauncherTreasury.sol:LauncherTreasury",
        "label": "_owner",
        "offset": 0,
        "slot": "0",
        "type": "t_address"
      }
    ],
    "types": {
      "t_address": {
        "encoding": "inplace",
        "label": "address",
        "numberOfBytes": "20"
      }
    }
  }
}