{
  "address": "0xFf3cebc023F43d4a4F66F02560872Ed4B0aDA241",
  "abi": [
    {
      "inputs": [
        {
          "internalType": "address",
          "name": "bondingCurve_",
          "type": "address"
        },
        {
          "internalType": "address",
          "name": "royaltyDistributor_",
          "type": "address"
        },
        {
          "internalType": "address",
          "name": "treasury_",
          "type": "address"
        },
        {
          "internalType": "address",
          "name": "graduationManager_",
          "type": "address"
        },
        {
          "internalType": "address",
          "name": "owner_",
          "type": "address"
        }
      ],
      "stateMutability": "nonpayable",
      "type": "constructor"
    },
    {
      "inputs": [
        {
          "internalType": "address",
          "name": "owner",
          "type": "address"
        }
      ],
      "name": "OwnableInvalidOwner",
      "type": "error"
    },
    {
      "inputs": [
        {
          "internalType": "address",
          "name": "account",
          "type": "address"
        }
      ],
      "name": "OwnableUnauthorizedAccount",
      "type": "error"
    },
    {
      "anonymous": false,
      "inputs": [
        {
          "indexed": true,
          "internalType": "address",
          "name": "previousOwner",
          "type": "address"
        },
        {
          "indexed": true,
          "internalType": "address",
          "name": "newOwner",
          "type": "address"
        }
      ],
      "name": "OwnershipTransferred",
      "type": "event"
    },
    {
      "anonymous": false,
      "inputs": [
        {
          "indexed": true,
          "internalType": "address",
          "name": "token",
          "type": "address"
        },
        {
          "indexed": true,
          "internalType": "address",
          "name": "creator",
          "type": "address"
        },
        {
          "indexed": false,
          "internalType": "string",
          "name": "name",
          "type": "string"
        },
        {
          "indexed": false,
          "internalType": "string",
          "name": "symbol",
          "type": "string"
        },
        {
          "indexed": false,
          "internalType": "uint256",
          "name": "totalSupply",
          "type": "uint256"
        },
        {
          "indexed": false,
          "internalType": "uint256",
          "name": "index",
          "type": "uint256"
        }
      ],
      "name": "TokenLaunched",
      "type": "event"
    },
    {
      "inputs": [],
      "name": "TOTAL_SUPPLY",
      "outputs": [
        {
          "internalType": "uint256",
          "name": "",
          "type": "uint256"
        }
      ],
      "stateMutability": "view",
      "type": "function"
    },
    {
      "inputs": [
        {
          "internalType": "uint256",
          "name": "",
          "type": "uint256"
        }
      ],
      "name": "allTokens",
      "outputs": [
        {
          "internalType": "address",
          "name": "",
          "type": "address"
        }
      ],
      "stateMutability": "view",
      "type": "function"
    },
    {
      "inputs": [],
      "name": "bondingCurve",
      "outputs": [
        {
          "internalType": "address",
          "name": "",
          "type": "address"
        }
      ],
      "stateMutability": "view",
      "type": "function"
    },
    {
      "inputs": [
        {
          "internalType": "string",
          "name": "name",
          "type": "string"
        },
        {
          "internalType": "string",
          "name": "symbol",
          "type": "string"
        }
      ],
      "name": "createToken",
      "outputs": [
        {
          "internalType": "address",
          "name": "token",
          "type": "address"
        }
      ],
      "stateMutability": "nonpayable",
      "type": "function"
    },
    {
      "inputs": [],
      "name": "graduationManager",
      "outputs": [
        {
          "internalType": "address",
          "name": "",
          "type": "address"
        }
      ],
      "stateMutability": "view",
      "type": "function"
    },
    {
      "inputs": [],
      "name": "owner",
      "outputs": [
        {
          "internalType": "address",
          "name": "",
          "type": "address"
        }
      ],
      "stateMutability": "view",
      "type": "function"
    },
    {
      "inputs": [],
      "name": "renounceOwnership",
      "outputs": [],
      "stateMutability": "nonpayable",
      "type": "function"
    },
    {
      "inputs": [],
      "name": "royaltyDistributor",
      "outputs": [
        {
          "internalType": "address",
          "name": "",
          "type": "address"
        }
      ],
      "stateMutability": "view",
      "type": "function"
    },
    {
      "inputs": [],
      "name": "totalTokensLaunched",
      "outputs": [
        {
          "internalType": "uint256",
          "name": "",
          "type": "uint256"
        }
      ],
      "stateMutability": "view",
      "type": "function"
    },
    {
      "inputs": [
        {
          "internalType": "address",
          "name": "newOwner",
          "type": "address"
        }
      ],
      "name": "transferOwnership",
      "outputs": [],
      "stateMutability": "nonpayable",
      "type": "function"
    },
    {
      "inputs": [],
      "name": "treasury",
      "outputs": [
        {
          "internalType": "address",
          "name": "",
          "type": "address"
        }
      ],
      "stateMutability": "view",
      "type": "function"
    }
  ],
  "transactionHash": "0x0763c65e424011fb9bdd95b785366123b66d6beff2af0ed047ac65fe8ff22d19",
  "args": [
    "0x5C1E7deb7BD89d4AEB7B57B7b6D1Ad266886f848",
    "0x4CfF95f1EDFC46646D4C2d345e1AF8Aa375ac8D6",
    "0x17083489ff064340d2971e3538F600FCB3211515",
    "0x7c19D7533D6FFd6969352ff60Dd55387EcAF8DDE",
    "0x0aCD0De8A6A25E37588fF181DB97117cdb39EDB7"
  ],
  "numDeployments": 1,
  "solcInputHash": "f4135481a12e30f0c3bbada1ed1bfc3b",
  "bytecode": "0x6101006040523480156200001257600080fd5b506040516200417038038062004170833981810160405281019062000038919062000491565b80600073ffffffffffffffffffffffffffffffffffffffff168173ffffffffffffffffffffffffffffffffffffffff1603620000ae5760006040517f1e4fbdf7000000000000000000000000000000000000000000000000000000008152600401620000a591906200052a565b60405180910390fd5b620000bf816200036360201b60201c565b50600073ffffffffffffffffffffffffffffffffffffffff168573ffffffffffffffffffffffffffffffffffffffff160362000132576040517f08c379a00000000000000000000000000000000000000000000000000000000081526004016200012990620005ce565b60405180910390fd5b600073ffffffffffffffffffffffffffffffffffffffff168473ffffffffffffffffffffffffffffffffffffffff1603620001a4576040517f08c379a00000000000000000000000000000000000000000000000000000000081526004016200019b9062000666565b60405180910390fd5b600073ffffffffffffffffffffffffffffffffffffffff168373ffffffffffffffffffffffffffffffffffffffff160362000216576040517f08c379a00000000000000000000000000000000000000000000000000000000081526004016200020d90620006d8565b60405180910390fd5b600073ffffffffffffffffffffffffffffffffffffffff168273ffffffffffffffffffffffffffffffffffffffff160362000288576040517f08c379a00000000000000000000000000000000000000000000000000000000081526004016200027f9062000770565b60405180910390fd5b8473ffffffffffffffffffffffffffffffffffffffff1660808173ffffffffffffffffffffffffffffffffffffffff16815250508373ffffffffffffffffffffffffffffffffffffffff1660a08173ffffffffffffffffffffffffffffffffffffffff16815250508273ffffffffffffffffffffffffffffffffffffffff1660c08173ffffffffffffffffffffffffffffffffffffffff16815250508173ffffffffffffffffffffffffffffffffffffffff1660e08173ffffffffffffffffffffffffffffffffffffffff1681525050505050505062000792565b60008060009054906101000a900473ffffffffffffffffffffffffffffffffffffffff169050816000806101000a81548173ffffffffffffffffffffffffffffffffffffffff021916908373ffffffffffffffffffffffffffffffffffffffff1602179055508173ffffffffffffffffffffffffffffffffffffffff168173ffffffffffffffffffffffffffffffffffffffff167f8be0079c531659141344cd1fd0a4f28419497f9722a3daafe3b4186f6b6457e060405160405180910390a35050565b600080fd5b600073ffffffffffffffffffffffffffffffffffffffff82169050919050565b600062000459826200042c565b9050919050565b6200046b816200044c565b81146200047757600080fd5b50565b6000815190506200048b8162000460565b92915050565b600080600080600060a08688031215620004b057620004af62000427565b5b6000620004c0888289016200047a565b9550506020620004d3888289016200047a565b9450506040620004e6888289016200047a565b9350506060620004f9888289016200047a565b92505060806200050c888289016200047a565b9150509295509295909350565b62000524816200044c565b82525050565b600060208201905062000541600083018462000519565b92915050565b600082825260208201905092915050565b7f4c61756e6368706164466163746f72793a2062616420626f6e64696e6720637560008201527f7276650000000000000000000000000000000000000000000000000000000000602082015250565b6000620005b660238362000547565b9150620005c38262000558565b604082019050919050565b60006020820190508181036000830152620005e981620005a7565b9050919050565b7f4c61756e6368706164466163746f72793a2062616420726f79616c747920646960008201527f737472696275746f720000000000000000000000000000000000000000000000602082015250565b60006200064e60298362000547565b91506200065b82620005f0565b604082019050919050565b6000602082019050818103600083015262000681816200063f565b9050919050565b7f4c61756e6368706164466163746f72793a206261642074726561737572790000600082015250565b6000620006c0601e8362000547565b9150620006cd8262000688565b602082019050919050565b60006020820190508181036000830152620006f381620006b1565b9050919050565b7f4c61756e6368706164466163746f72793a206261642067726164756174696f6e60008201527f206d616e61676572000000000000000000000000000000000000000000000000602082015250565b60006200075860288362000547565b91506200076582620006fa565b604082019050919050565b600060208201905081810360008301526200078b8162000749565b9050919050565b60805160a05160c05160e05161397a620007f660003960008181610245015261037101526000818161032f01526106150152600081816103500152818161046601526105f101526000818161030e015281816103d501526106d7015261397a6000f3fe60806040523480156200001157600080fd5b5060043610620000b85760003560e01c8063715018a6116200007b578063715018a6146200018f5780638da5cb5b146200019b578063902d55a514620001bd5780639e1e213e14620001df578063eff1d50e1462000201578063f2fde38b146200022357620000b8565b80630da3f62b14620000bd5780632f2f2d5614620000df5780635581ed87146200011557806361d027b31462000137578063634282af1462000159575b600080fd5b620000c762000243565b604051620000d6919062000935565b60405180910390f35b620000fd6004803603810190620000f79190620009ca565b62000267565b6040516200010c919062000935565b60405180910390f35b6200011f620005ef565b6040516200012e919062000935565b60405180910390f35b6200014162000613565b60405162000150919062000935565b60405180910390f35b62000177600480360381019062000171919062000a93565b62000637565b60405162000186919062000935565b60405180910390f35b6200019962000677565b005b620001a56200068f565b604051620001b4919062000935565b60405180910390f35b620001c7620006b8565b604051620001d6919062000ad6565b60405180910390f35b620001e9620006c8565b604051620001f8919062000ad6565b60405180910390f35b6200020b620006d5565b6040516200021a919062000935565b60405180910390f35b6200024160048036038101906200023b919062000b24565b620006f9565b005b7f000000000000000000000000000000000000000000000000000000000000000081565b6000808585905011620002b1576040517f08c379a0000000000000000000000000000000000000000000000000000000008152600401620002a89062000bb7565b60405180910390fd5b60008383905011620002fa576040517f08c379a0000000000000000000000000000000000000000000000000000000008152600401620002f19062000c4f565b60405180910390fd5b848484846b033b2e3c9fd0803ce8000000337f00000000000000000000000000000000000000000000000000000000000000007f00000000000000000000000000000000000000000000000000000000000000007f00000000000000000000000000000000000000000000000000000000000000007f00000000000000000000000000000000000000000000000000000000000000006040516200039e90620008e2565b620003b39a9998979695949392919062000cc4565b604051809103906000f080158015620003d0573d6000803e3d6000fd5b5090507f000000000000000000000000000000000000000000000000000000000000000073ffffffffffffffffffffffffffffffffffffffff16634739f7e582336040518363ffffffff1660e01b81526004016200043092919062000d64565b600060405180830381600087803b1580156200044b57600080fd5b505af115801562000460573d6000803e3d6000fd5b505050507f000000000000000000000000000000000000000000000000000000000000000073ffffffffffffffffffffffffffffffffffffffff16634739f7e582336040518363ffffffff1660e01b8152600401620004c192919062000d64565b600060405180830381600087803b158015620004dc57600080fd5b505af1158015620004f1573d6000803e3d6000fd5b505050506001819080600181540180825580915050600190039060005260206000200160009091909190916101000a81548173ffffffffffffffffffffffffffffffffffffffff021916908373ffffffffffffffffffffffffffffffffffffffff1602179055503373ffffffffffffffffffffffffffffffffffffffff168173ffffffffffffffffffffffffffffffffffffffff167f75a476a2211bd39944d125b89ece62ac0af7b3a027064bb5e062b36b8da7845c878787876b033b2e3c9fd0803ce800000060018080549050620005cb919062000dc0565b604051620005df9695949392919062000dfb565b60405180910390a3949350505050565b7f000000000000000000000000000000000000000000000000000000000000000081565b7f000000000000000000000000000000000000000000000000000000000000000081565b600181815481106200064857600080fd5b906000526020600020016000915054906101000a900473ffffffffffffffffffffffffffffffffffffffff1681565b6200068162000786565b6200068d600062000816565b565b60008060009054906101000a900473ffffffffffffffffffffffffffffffffffffffff16905090565b6b033b2e3c9fd0803ce800000081565b6000600180549050905090565b7f000000000000000000000000000000000000000000000000000000000000000081565b6200070362000786565b600073ffffffffffffffffffffffffffffffffffffffff168173ffffffffffffffffffffffffffffffffffffffff1603620007785760006040517f1e4fbdf70000000000000000000000000000000000000000000000000000000081526004016200076f919062000935565b60405180910390fd5b620007838162000816565b50565b62000790620008da565b73ffffffffffffffffffffffffffffffffffffffff16620007b06200068f565b73ffffffffffffffffffffffffffffffffffffffff16146200081457620007d6620008da565b6040517f118cdaa70000000000000000000000000000000000000000000000000000000081526004016200080b919062000935565b60405180910390fd5b565b60008060009054906101000a900473ffffffffffffffffffffffffffffffffffffffff169050816000806101000a81548173ffffffffffffffffffffffffffffffffffffffff021916908373ffffffffffffffffffffffffffffffffffffffff1602179055508173ffffffffffffffffffffffffffffffffffffffff168173ffffffffffffffffffffffffffffffffffffffff167f8be0079c531659141344cd1fd0a4f28419497f9722a3daafe3b4186f6b6457e060405160405180910390a35050565b600033905090565b612aea8062000e5b83390190565b600073ffffffffffffffffffffffffffffffffffffffff82169050919050565b60006200091d82620008f0565b9050919050565b6200092f8162000910565b82525050565b60006020820190506200094c600083018462000924565b92915050565b600080fd5b600080fd5b600080fd5b600080fd5b600080fd5b60008083601f8401126200098457620009836200095c565b5b8235905067ffffffffffffffff811115620009a457620009a362000961565b5b602083019150836001820283011115620009c357620009c262000966565b5b9250929050565b60008060008060408587031215620009e757620009e662000952565b5b600085013567ffffffffffffffff81111562000a085762000a0762000957565b5b62000a16878288016200096b565b9450945050602085013567ffffffffffffffff81111562000a3c5762000a3b62000957565b5b62000a4a878288016200096b565b925092505092959194509250565b6000819050919050565b62000a6d8162000a58565b811462000a7957600080fd5b50565b60008135905062000a8d8162000a62565b92915050565b60006020828403121562000aac5762000aab62000952565b5b600062000abc8482850162000a7c565b91505092915050565b62000ad08162000a58565b82525050565b600060208201905062000aed600083018462000ac5565b92915050565b62000afe8162000910565b811462000b0a57600080fd5b50565b60008135905062000b1e8162000af3565b92915050565b60006020828403121562000b3d5762000b3c62000952565b5b600062000b4d8482850162000b0d565b91505092915050565b600082825260208201905092915050565b7f4c61756e6368706164466163746f72793a206e616d6520726571756972656400600082015250565b600062000b9f601f8362000b56565b915062000bac8262000b67565b602082019050919050565b6000602082019050818103600083015262000bd28162000b90565b9050919050565b7f4c61756e6368706164466163746f72793a2073796d626f6c207265717569726560008201527f6400000000000000000000000000000000000000000000000000000000000000602082015250565b600062000c3760218362000b56565b915062000c448262000bd9565b604082019050919050565b6000602082019050818103600083015262000c6a8162000c28565b9050919050565b82818337600083830152505050565b6000601f19601f8301169050919050565b600062000c9f838562000b56565b935062000cae83858462000c71565b62000cb98362000c80565b840190509392505050565b600061010082019050818103600083015262000ce2818c8e62000c91565b9050818103602083015262000cf9818a8c62000c91565b905062000d0a604083018962000ac5565b62000d19606083018862000924565b62000d28608083018762000924565b62000d3760a083018662000924565b62000d4660c083018562000924565b62000d5560e083018462000924565b9b9a5050505050505050505050565b600060408201905062000d7b600083018562000924565b62000d8a602083018462000924565b9392505050565b7f4e487b7100000000000000000000000000000000000000000000000000000000600052601160045260246000fd5b600062000dcd8262000a58565b915062000dda8362000a58565b925082820390508181111562000df55762000df462000d91565b5b92915050565b6000608082019050818103600083015262000e1881888a62000c91565b9050818103602083015262000e2f81868862000c91565b905062000e40604083018562000ac5565b62000e4f606083018462000ac5565b97965050505050505056fe6101206040523480156200001257600080fd5b5060405162002aea38038062002aea833981810160405281019062000038919062000aa1565b878781600390816200004b919062000de9565b5080600490816200005d919062000de9565b505050600073ffffffffffffffffffffffffffffffffffffffff168573ffffffffffffffffffffffffffffffffffffffff1603620000d2576040517f08c379a0000000000000000000000000000000000000000000000000000000008152600401620000c99062000f31565b60405180910390fd5b600073ffffffffffffffffffffffffffffffffffffffff168473ffffffffffffffffffffffffffffffffffffffff160362000144576040517f08c379a00000000000000000000000000000000000000000000000000000000081526004016200013b9062000fa3565b60405180910390fd5b600073ffffffffffffffffffffffffffffffffffffffff168373ffffffffffffffffffffffffffffffffffffffff1603620001b6576040517f08c379a0000000000000000000000000000000000000000000000000000000008152600401620001ad9062001015565b60405180910390fd5b600073ffffffffffffffffffffffffffffffffffffffff168273ffffffffffffffffffffffffffffffffffffffff160362000228576040517f08c379a00000000000000000000000000000000000000000000000000000000081526004016200021f90620010ad565b60405180910390fd5b600073ffffffffffffffffffffffffffffffffffffffff168173ffffffffffffffffffffffffffffffffffffffff16036200029a576040517f08c379a0000000000000000000000000000000000000000000000000000000008152600401620002919062001145565b60405180910390fd5b8473ffffffffffffffffffffffffffffffffffffffff1660808173ffffffffffffffffffffffffffffffffffffffff16815250503373ffffffffffffffffffffffffffffffffffffffff1660a08173ffffffffffffffffffffffffffffffffffffffff16815250508273ffffffffffffffffffffffffffffffffffffffff1660c08173ffffffffffffffffffffffffffffffffffffffff16815250508173ffffffffffffffffffffffffffffffffffffffff1660e08173ffffffffffffffffffffffffffffffffffffffff16815250508073ffffffffffffffffffffffffffffffffffffffff166101008173ffffffffffffffffffffffffffffffffffffffff1681525050620003b18487620003bf60201b60201c565b505050505050505062001357565b600073ffffffffffffffffffffffffffffffffffffffff168273ffffffffffffffffffffffffffffffffffffffff1603620004345760006040517fec442f050000000000000000000000000000000000000000000000000000000081526004016200042b919062001178565b60405180910390fd5b62000448600083836200044c60201b60201c565b5050565b600560149054906101000a900460ff168015620004695750600081115b8015620004a35750600073ffffffffffffffffffffffffffffffffffffffff168373ffffffffffffffffffffffffffffffffffffffff1614155b8015620004dd5750600073ffffffffffffffffffffffffffffffffffffffff168273ffffffffffffffffffffffffffffffffffffffff1614155b8015620005905750600560009054906101000a900473ffffffffffffffffffffffffffffffffffffffff1673ffffffffffffffffffffffffffffffffffffffff168373ffffffffffffffffffffffffffffffffffffffff1614806200058f5750600560009054906101000a900473ffffffffffffffffffffffffffffffffffffffff1673ffffffffffffffffffffffffffffffffffffffff168273ffffffffffffffffffffffffffffffffffffffff16145b5b156200062657600061271060c883620005aa9190620011c4565b620005b691906200123e565b9050600081111562000624576000600282620005d391906200123e565b905060008183620005e5919062001276565b9050620005fc8660c051836200063e60201b60201c565b620006118660e051846200063e60201b60201c565b82846200061f919062001276565b935050505b505b620006398383836200063e60201b60201c565b505050565b600073ffffffffffffffffffffffffffffffffffffffff168373ffffffffffffffffffffffffffffffffffffffff160362000694578060026000828254620006879190620012b1565b925050819055506200076a565b60008060008573ffffffffffffffffffffffffffffffffffffffff1673ffffffffffffffffffffffffffffffffffffffff1681526020019081526020016000205490508181101562000723578381836040517fe450d38c0000000000000000000000000000000000000000000000000000000081526004016200071a93929190620012fd565b60405180910390fd5b8181036000808673ffffffffffffffffffffffffffffffffffffffff1673ffffffffffffffffffffffffffffffffffffffff16815260200190815260200160002081905550505b600073ffffffffffffffffffffffffffffffffffffffff168273ffffffffffffffffffffffffffffffffffffffff1603620007b5578060026000828254039250508190555062000802565b806000808473ffffffffffffffffffffffffffffffffffffffff1673ffffffffffffffffffffffffffffffffffffffff168152602001908152602001600020600082825401925050819055505b8173ffffffffffffffffffffffffffffffffffffffff168373ffffffffffffffffffffffffffffffffffffffff167fddf252ad1be2c89b69c2b068fc378daa952ba7f163c4a11628f55a4df523b3ef836040516200086191906200133a565b60405180910390a3505050565b6000604051905090565b600080fd5b600080fd5b600080fd5b600080fd5b6000601f19601f8301169050919050565b7f4e487b7100000000000000000000000000000000000000000000000000000000600052604160045260246000fd5b620008d7826200088c565b810181811067ffffffffffffffff82111715620008f957620008f86200089d565b5b80604052505050565b60006200090e6200086e565b90506200091c8282620008cc565b919050565b600067ffffffffffffffff8211156200093f576200093e6200089d565b5b6200094a826200088c565b9050602081019050919050565b60005b83811015620009775780820151818401526020810190506200095a565b60008484015250505050565b60006200099a620009948462000921565b62000902565b905082815260208101848484011115620009b957620009b862000887565b5b620009c684828562000957565b509392505050565b600082601f830112620009e657620009e562000882565b5b8151620009f884826020860162000983565b91505092915050565b6000819050919050565b62000a168162000a01565b811462000a2257600080fd5b50565b60008151905062000a368162000a0b565b92915050565b600073ffffffffffffffffffffffffffffffffffffffff82169050919050565b600062000a698262000a3c565b9050919050565b62000a7b8162000a5c565b811462000a8757600080fd5b50565b60008151905062000a9b8162000a70565b92915050565b600080600080600080600080610100898b03121562000ac55762000ac462000878565b5b600089015167ffffffffffffffff81111562000ae65762000ae56200087d565b5b62000af48b828c01620009ce565b985050602089015167ffffffffffffffff81111562000b185762000b176200087d565b5b62000b268b828c01620009ce565b975050604062000b398b828c0162000a25565b965050606062000b4c8b828c0162000a8a565b955050608062000b5f8b828c0162000a8a565b94505060a062000b728b828c0162000a8a565b93505060c062000b858b828c0162000a8a565b92505060e062000b988b828c0162000a8a565b9150509295985092959890939650565b600081519050919050565b7f4e487b7100000000000000000000000000000000000000000000000000000000600052602260045260246000fd5b6000600282049050600182168062000bfb57607f821691505b60208210810362000c115762000c1062000bb3565b5b50919050565b60008190508160005260206000209050919050565b60006020601f8301049050919050565b600082821b905092915050565b60006008830262000c7b7fffffffffffffffffffffffffffffffffffffffffffffffffffffffffffffffff8262000c3c565b62000c87868362000c3c565b95508019841693508086168417925050509392505050565b6000819050919050565b600062000cca62000cc462000cbe8462000a01565b62000c9f565b62000a01565b9050919050565b6000819050919050565b62000ce68362000ca9565b62000cfe62000cf58262000cd1565b84845462000c49565b825550505050565b600090565b62000d1562000d06565b62000d2281848462000cdb565b505050565b5b8181101562000d4a5762000d3e60008262000d0b565b60018101905062000d28565b5050565b601f82111562000d995762000d638162000c17565b62000d6e8462000c2c565b8101602085101562000d7e578190505b62000d9662000d8d8562000c2c565b83018262000d27565b50505b505050565b600082821c905092915050565b600062000dbe6000198460080262000d9e565b1980831691505092915050565b600062000dd9838362000dab565b9150826002028217905092915050565b62000df48262000ba8565b67ffffffffffffffff81111562000e105762000e0f6200089d565b5b62000e1c825462000be2565b62000e2982828562000d4e565b600060209050601f83116001811462000e61576000841562000e4c578287015190505b62000e58858262000dcb565b86555062000ec8565b601f19841662000e718662000c17565b60005b8281101562000e9b5784890151825560018201915060208501945060208101905062000e74565b8683101562000ebb578489015162000eb7601f89168262000dab565b8355505b6001600288020188555050505b505050505050565b600082825260208201905092915050565b7f4c61756e6368546f6b656e3a206261642063726561746f720000000000000000600082015250565b600062000f1960188362000ed0565b915062000f268262000ee1565b602082019050919050565b6000602082019050818103600083015262000f4c8162000f0a565b9050919050565b7f4c61756e6368546f6b656e3a2062616420637572766500000000000000000000600082015250565b600062000f8b60168362000ed0565b915062000f988262000f53565b602082019050919050565b6000602082019050818103600083015262000fbe8162000f7c565b9050919050565b7f4c61756e6368546f6b656e3a2062616420747265617375727900000000000000600082015250565b600062000ffd60198362000ed0565b91506200100a8262000fc5565b602082019050919050565b60006020820190508181036000830152620010308162000fee565b9050919050565b7f4c61756e6368546f6b656e3a2062616420726f79616c7479206469737472696260008201527f75746f7200000000000000000000000000000000000000000000000000000000602082015250565b60006200109560248362000ed0565b9150620010a28262001037565b604082019050919050565b60006020820190508181036000830152620010c88162001086565b9050919050565b7f4c61756e6368546f6b656e3a206261642067726164756174696f6e206d616e6160008201527f6765720000000000000000000000000000000000000000000000000000000000602082015250565b60006200112d60238362000ed0565b91506200113a82620010cf565b604082019050919050565b6000602082019050818103600083015262001160816200111e565b9050919050565b620011728162000a5c565b82525050565b60006020820190506200118f600083018462001167565b92915050565b7f4e487b7100000000000000000000000000000000000000000000000000000000600052601160045260246000fd5b6000620011d18262000a01565b9150620011de8362000a01565b9250828202620011ee8162000a01565b9150828204841483151762001208576200120762001195565b5b5092915050565b7f4e487b7100000000000000000000000000000000000000000000000000000000600052601260045260246000fd5b60006200124b8262000a01565b9150620012588362000a01565b9250826200126b576200126a6200120f565b5b828204905092915050565b6000620012838262000a01565b9150620012908362000a01565b9250828203905081811115620012ab57620012aa62001195565b5b92915050565b6000620012be8262000a01565b9150620012cb8362000a01565b9250828201905080821115620012e657620012e562001195565b5b92915050565b620012f78162000a01565b82525050565b600060608201905062001314600083018662001167565b620013236020830185620012ec565b620013326040830184620012ec565b949350505050565b6000602082019050620013516000830184620012ec565b92915050565b60805160a05160c05160e05161010051611739620013b16000396000818161049301526105c70152600081816105320152610e500152600081816105560152610e250152600061086b015260006103ba01526117396000f3fe608060405234801561001057600080fd5b50600436106101215760003560e01c80635581ed87116100ad57806395d89b411161007157806395d89b41146102fe578063a9059cbb1461031c578063c45a01551461034c578063dd62ed3e1461036a578063e1a452181461039a57610121565b80635581ed871461025857806361d027b31461027657806367a6c4401461029457806370a08231146102b257806385da047c146102e257610121565b806318160ddd116100f457806318160ddd146101b05780631e70b7a9146101ce57806323b872dd146101ec578063313ce5671461021c57806351e66d631461023a57610121565b806302d05d3f1461012657806306fdde0314610144578063095ea7b3146101625780630da3f62b14610192575b600080fd5b61012e6103b8565b60405161013b91906110fe565b60405180910390f35b61014c6103dc565b60405161015991906111a9565b60405180910390f35b61017c60048036038101906101779190611232565b61046e565b604051610189919061128d565b60405180910390f35b61019a610491565b6040516101a791906110fe565b60405180910390f35b6101b86104b5565b6040516101c591906112b7565b60405180910390f35b6101d66104bf565b6040516101e391906110fe565b60405180910390f35b610206600480360381019061020191906112d2565b6104e5565b604051610213919061128d565b60405180910390f35b610224610514565b6040516102319190611341565b60405180910390f35b61024261051d565b60405161024f919061128d565b60405180910390f35b610260610530565b60405161026d91906110fe565b60405180910390f35b61027e610554565b60405161028b91906110fe565b60405180910390f35b61029c610578565b6040516102a991906112b7565b60405180910390f35b6102cc60048036038101906102c7919061135c565b61057d565b6040516102d991906112b7565b60405180910390f35b6102fc60048036038101906102f7919061135c565b6105c5565b005b6103066107b4565b60405161031391906111a9565b60405180910390f35b61033660048036038101906103319190611232565b610846565b604051610343919061128d565b60405180910390f35b610354610869565b60405161036191906110fe565b60405180910390f35b610384600480360381019061037f9190611389565b61088d565b60405161039191906112b7565b60405180910390f35b6103a2610914565b6040516103af91906112b7565b60405180910390f35b7f000000000000000000000000000000000000000000000000000000000000000081565b6060600380546103eb906113f8565b80601f0160208091040260200160405190810160405280929190818152602001828054610417906113f8565b80156104645780601f1061043957610100808354040283529160200191610464565b820191906000526020600020905b81548152906001019060200180831161044757829003601f168201915b5050505050905090565b60008061047961091a565b9050610486818585610922565b600191505092915050565b7f000000000000000000000000000000000000000000000000000000000000000081565b6000600254905090565b600560009054906101000a900473ffffffffffffffffffffffffffffffffffffffff1681565b6000806104f061091a565b90506104fd858285610934565b6105088585856109c8565b60019150509392505050565b60006012905090565b600560149054906101000a900460ff1681565b7f000000000000000000000000000000000000000000000000000000000000000081565b7f000000000000000000000000000000000000000000000000000000000000000081565b60c881565b60008060008373ffffffffffffffffffffffffffffffffffffffff1673ffffffffffffffffffffffffffffffffffffffff168152602001908152602001600020549050919050565b7f000000000000000000000000000000000000000000000000000000000000000073ffffffffffffffffffffffffffffffffffffffff163373ffffffffffffffffffffffffffffffffffffffff1614610653576040517f08c379a000000000000000000000000000000000000000000000000000000000815260040161064a9061149b565b60405180910390fd5b600560149054906101000a900460ff16156106a3576040517f08c379a000000000000000000000000000000000000000000000000000000000815260040161069a90611507565b60405180910390fd5b600073ffffffffffffffffffffffffffffffffffffffff168173ffffffffffffffffffffffffffffffffffffffff1603610712576040517f08c379a000000000000000000000000000000000000000000000000000000000815260040161070990611573565b60405180910390fd5b80600560006101000a81548173ffffffffffffffffffffffffffffffffffffffff021916908373ffffffffffffffffffffffffffffffffffffffff1602179055506001600560146101000a81548160ff0219169083151502179055508073ffffffffffffffffffffffffffffffffffffffff167fe5dcaf121121389aca7a4f780415ad9690eb0e42f66db9432cff89cb842233f560405160405180910390a250565b6060600480546107c3906113f8565b80601f01602080910402602001604051908101604052809291908181526020018280546107ef906113f8565b801561083c5780601f106108115761010080835404028352916020019161083c565b820191906000526020600020905b81548152906001019060200180831161081f57829003601f168201915b5050505050905090565b60008061085161091a565b905061085e8185856109c8565b600191505092915050565b7f000000000000000000000000000000000000000000000000000000000000000081565b6000600160008473ffffffffffffffffffffffffffffffffffffffff1673ffffffffffffffffffffffffffffffffffffffff16815260200190815260200160002060008373ffffffffffffffffffffffffffffffffffffffff1673ffffffffffffffffffffffffffffffffffffffff16815260200190815260200160002054905092915050565b61271081565b600033905090565b61092f8383836001610abc565b505050565b6000610940848461088d565b90507fffffffffffffffffffffffffffffffffffffffffffffffffffffffffffffffff81146109c257818110156109b2578281836040517ffb8f41b20000000000000000000000000000000000000000000000000000000081526004016109a993929190611593565b60405180910390fd5b6109c184848484036000610abc565b5b50505050565b600073ffffffffffffffffffffffffffffffffffffffff168373ffffffffffffffffffffffffffffffffffffffff1603610a3a5760006040517f96c6fd1e000000000000000000000000000000000000000000000000000000008152600401610a3191906110fe565b60405180910390fd5b600073ffffffffffffffffffffffffffffffffffffffff168273ffffffffffffffffffffffffffffffffffffffff1603610aac5760006040517fec442f05000000000000000000000000000000000000000000000000000000008152600401610aa391906110fe565b60405180910390fd5b610ab7838383610c93565b505050565b600073ffffffffffffffffffffffffffffffffffffffff168473ffffffffffffffffffffffffffffffffffffffff1603610b2e5760006040517fe602df05000000000000000000000000000000000000000000000000000000008152600401610b2591906110fe565b60405180910390fd5b600073ffffffffffffffffffffffffffffffffffffffff168373ffffffffffffffffffffffffffffffffffffffff1603610ba05760006040517f94280d62000000000000000000000000000000000000000000000000000000008152600401610b9791906110fe565b60405180910390fd5b81600160008673ffffffffffffffffffffffffffffffffffffffff1673ffffffffffffffffffffffffffffffffffffffff16815260200190815260200160002060008573ffffffffffffffffffffffffffffffffffffffff1673ffffffffffffffffffffffffffffffffffffffff168152602001908152602001600020819055508015610c8d578273ffffffffffffffffffffffffffffffffffffffff168473ffffffffffffffffffffffffffffffffffffffff167f8c5be1e5ebec7d5bd14f71427d1e84f3dd0314c0f7b2291e5b200ac8c7c3b92584604051610c8491906112b7565b60405180910390a35b50505050565b600560149054906101000a900460ff168015610caf5750600081115b8015610ce85750600073ffffffffffffffffffffffffffffffffffffffff168373ffffffffffffffffffffffffffffffffffffffff1614155b8015610d215750600073ffffffffffffffffffffffffffffffffffffffff168273ffffffffffffffffffffffffffffffffffffffff1614155b8015610dd25750600560009054906101000a900473ffffffffffffffffffffffffffffffffffffffff1673ffffffffffffffffffffffffffffffffffffffff168373ffffffffffffffffffffffffffffffffffffffff161480610dd15750600560009054906101000a900473ffffffffffffffffffffffffffffffffffffffff1673ffffffffffffffffffffffffffffffffffffffff168273ffffffffffffffffffffffffffffffffffffffff16145b5b15610e8857600061271060c883610de991906115f9565b610df3919061166a565b90506000811115610e86576000600282610e0d919061166a565b905060008183610e1d919061169b565b9050610e4a867f000000000000000000000000000000000000000000000000000000000000000083610e98565b610e75867f000000000000000000000000000000000000000000000000000000000000000084610e98565b8284610e81919061169b565b935050505b505b610e93838383610e98565b505050565b600073ffffffffffffffffffffffffffffffffffffffff168373ffffffffffffffffffffffffffffffffffffffff1603610eea578060026000828254610ede91906116cf565b92505081905550610fbd565b60008060008573ffffffffffffffffffffffffffffffffffffffff1673ffffffffffffffffffffffffffffffffffffffff16815260200190815260200160002054905081811015610f76578381836040517fe450d38c000000000000000000000000000000000000000000000000000000008152600401610f6d93929190611593565b60405180910390fd5b8181036000808673ffffffffffffffffffffffffffffffffffffffff1673ffffffffffffffffffffffffffffffffffffffff16815260200190815260200160002081905550505b600073ffffffffffffffffffffffffffffffffffffffff168273ffffffffffffffffffffffffffffffffffffffff16036110065780600260008282540392505081905550611053565b806000808473ffffffffffffffffffffffffffffffffffffffff1673ffffffffffffffffffffffffffffffffffffffff168152602001908152602001600020600082825401925050819055505b8173ffffffffffffffffffffffffffffffffffffffff168373ffffffffffffffffffffffffffffffffffffffff167fddf252ad1be2c89b69c2b068fc378daa952ba7f163c4a11628f55a4df523b3ef836040516110b091906112b7565b60405180910390a3505050565b600073ffffffffffffffffffffffffffffffffffffffff82169050919050565b60006110e8826110bd565b9050919050565b6110f8816110dd565b82525050565b600060208201905061111360008301846110ef565b92915050565b600081519050919050565b600082825260208201905092915050565b60005b83811015611153578082015181840152602081019050611138565b60008484015250505050565b6000601f19601f8301169050919050565b600061117b82611119565b6111858185611124565b9350611195818560208601611135565b61119e8161115f565b840191505092915050565b600060208201905081810360008301526111c38184611170565b905092915050565b600080fd5b6111d9816110dd565b81146111e457600080fd5b50565b6000813590506111f6816111d0565b92915050565b6000819050919050565b61120f816111fc565b811461121a57600080fd5b50565b60008135905061122c81611206565b92915050565b60008060408385031215611249576112486111cb565b5b6000611257858286016111e7565b92505060206112688582860161121d565b9150509250929050565b60008115159050919050565b61128781611272565b82525050565b60006020820190506112a2600083018461127e565b92915050565b6112b1816111fc565b82525050565b60006020820190506112cc60008301846112a8565b92915050565b6000806000606084860312156112eb576112ea6111cb565b5b60006112f9868287016111e7565b935050602061130a868287016111e7565b925050604061131b8682870161121d565b9150509250925092565b600060ff82169050919050565b61133b81611325565b82525050565b60006020820190506113566000830184611332565b92915050565b600060208284031215611372576113716111cb565b5b6000611380848285016111e7565b91505092915050565b600080604083850312156113a05761139f6111cb565b5b60006113ae858286016111e7565b92505060206113bf858286016111e7565b9150509250929050565b7f4e487b7100000000000000000000000000000000000000000000000000000000600052602260045260246000fd5b6000600282049050600182168061141057607f821691505b602082108103611423576114226113c9565b5b50919050565b7f4c61756e6368546f6b656e3a206e6f742067726164756174696f6e206d616e6160008201527f6765720000000000000000000000000000000000000000000000000000000000602082015250565b6000611485602383611124565b915061149082611429565b604082019050919050565b600060208201905081810360008301526114b481611478565b9050919050565b7f4c61756e6368546f6b656e3a20616c7265616479206163746976617465640000600082015250565b60006114f1601e83611124565b91506114fc826114bb565b602082019050919050565b60006020820190508181036000830152611520816114e4565b9050919050565b7f4c61756e6368546f6b656e3a2062616420706169720000000000000000000000600082015250565b600061155d601583611124565b915061156882611527565b602082019050919050565b6000602082019050818103600083015261158c81611550565b9050919050565b60006060820190506115a860008301866110ef565b6115b560208301856112a8565b6115c260408301846112a8565b949350505050565b7f4e487b7100000000000000000000000000000000000000000000000000000000600052601160045260246000fd5b6000611604826111fc565b915061160f836111fc565b925082820261161d816111fc565b91508282048414831517611634576116336115ca565b5b5092915050565b7f4e487b7100000000000000000000000000000000000000000000000000000000600052601260045260246000fd5b6000611675826111fc565b9150611680836111fc565b9250826116905761168f61163b565b5b828204905092915050565b60006116a6826111fc565b91506116b1836111fc565b92508282039050818111156116c9576116c86115ca565b5b92915050565b60006116da826111fc565b91506116e5836111fc565b92508282019050808211156116fd576116fc6115ca565b5b9291505056fea264697066735822122054796167920d5c9d044ba53e73a2996ae2b4e161e00219a97507ced6eb98616364736f6c63430008180033a26469706673582212208ca56945814417d888d924e0ebdfd888561bbbc56c85d440d8e70487672df1ad64736f6c63430008180033",
  "devdoc": {
    "details": "Entry point for \"create a token in under a minute\": takes a name and symbol, deploys a LaunchToken with the full fixed supply minted straight to BondingCurve, and registers it with both BondingCurve (so it can be bought and sold) and RoyaltyDistributor (so the creator has somewhere to claim from after graduation). There's no launch fee - the only cost is gas. Everything else in the spec's \"Create Token\" form (description, logo, website, X, Telegram) is off-chain metadata that the backend stores against the token address this contract emits, not on-chain state.",
    "errors": {
      "OwnableInvalidOwner(address)": [
        {
          "details": "The owner is not a valid owner account. (eg. `address(0)`)"
        }
      ],
      "OwnableUnauthorizedAccount(address)": [
        {
          "details": "The caller account is not authorized to perform an operation."
        }
      ]
    },
    "kind": "dev",
    "methods": {
      "owner()": {
        "details": "Returns the address of the current owner."
      },
      "renounceOwnership()": {
        "details": "Leaves the contract without owner. It will not be possible to call `onlyOwner` functions. Can only be called by the current owner. NOTE: Renouncing ownership will leave the contract without an owner, thereby disabling any functionality that is only available to the owner."
      },
      "transferOwnership(address)": {
        "details": "Transfers ownership of the contract to a new account (`newOwner`). Can only be called by the current owner."
      }
    },
    "title": "LaunchpadFactory",
    "version": 1
  },
  "userdoc": {
    "kind": "user",
    "methods": {},
    "version": 1
  },
  "storageLayout": {
    "storage": [
      {
        "astId": 8,
        "contract": "contracts/LaunchpadFactory.sol:LaunchpadFactory",
        "label": "_owner",
        "offset": 0,
        "slot": "0",
        "type": "t_address"
      },
      {
        "astId": 10439,
        "contract": "contracts/LaunchpadFactory.sol:LaunchpadFactory",
        "label": "allTokens",
        "offset": 0,
        "slot": "1",
        "type": "t_array(t_address)dyn_storage"
      }
    ],
    "types": {
      "t_address": {
        "encoding": "inplace",
        "label": "address",
        "numberOfBytes": "20"
      },
      "t_array(t_address)dyn_storage": {
        "base": "t_address",
        "encoding": "dynamic_array",
        "label": "address[]",
        "numberOfBytes": "32"
      }
    }
  }
}