{
  "address": "0x0336221aeC0877Bc34248D93f6C4ba9E8d0431C0",
  "abi": [
    {
      "inputs": [
        {
          "internalType": "address",
          "name": "_labToken",
          "type": "address"
        },
        {
          "internalType": "address",
          "name": "_owner",
          "type": "address"
        }
      ],
      "stateMutability": "nonpayable",
      "type": "constructor"
    },
    {
      "inputs": [
        {
          "internalType": "address",
          "name": "owner",
          "type": "address"
        }
      ],
      "name": "OwnableInvalidOwner",
      "type": "error"
    },
    {
      "inputs": [
        {
          "internalType": "address",
          "name": "account",
          "type": "address"
        }
      ],
      "name": "OwnableUnauthorizedAccount",
      "type": "error"
    },
    {
      "inputs": [],
      "name": "ReentrancyGuardReentrantCall",
      "type": "error"
    },
    {
      "anonymous": false,
      "inputs": [
        {
          "indexed": true,
          "internalType": "address",
          "name": "previousOwner",
          "type": "address"
        },
        {
          "indexed": true,
          "internalType": "address",
          "name": "newOwner",
          "type": "address"
        }
      ],
      "name": "OwnershipTransferred",
      "type": "event"
    },
    {
      "anonymous": false,
      "inputs": [
        {
          "indexed": true,
          "internalType": "uint256",
          "name": "seasonId",
          "type": "uint256"
        },
        {
          "indexed": true,
          "internalType": "address",
          "name": "user",
          "type": "address"
        },
        {
          "indexed": false,
          "internalType": "uint256",
          "name": "amount",
          "type": "uint256"
        }
      ],
      "name": "RewardClaimed",
      "type": "event"
    },
    {
      "anonymous": false,
      "inputs": [
        {
          "indexed": true,
          "internalType": "uint256",
          "name": "seasonId",
          "type": "uint256"
        },
        {
          "indexed": false,
          "internalType": "uint256",
          "name": "unclaimedAmount",
          "type": "uint256"
        }
      ],
      "name": "SeasonClosed",
      "type": "event"
    },
    {
      "anonymous": false,
      "inputs": [
        {
          "indexed": true,
          "internalType": "uint256",
          "name": "seasonId",
          "type": "uint256"
        },
        {
          "indexed": false,
          "internalType": "bytes32",
          "name": "merkleRoot",
          "type": "bytes32"
        },
        {
          "indexed": false,
          "internalType": "uint256",
          "name": "startTime",
          "type": "uint256"
        },
        {
          "indexed": false,
          "internalType": "uint256",
          "name": "endTime",
          "type": "uint256"
        },
        {
          "indexed": false,
          "internalType": "uint256",
          "name": "totalRewards",
          "type": "uint256"
        }
      ],
      "name": "SeasonCreated",
      "type": "event"
    },
    {
      "anonymous": false,
      "inputs": [
        {
          "indexed": true,
          "internalType": "uint256",
          "name": "seasonId",
          "type": "uint256"
        },
        {
          "indexed": false,
          "internalType": "uint256",
          "name": "amount",
          "type": "uint256"
        }
      ],
      "name": "UnclaimedTokensRecovered",
      "type": "event"
    },
    {
      "inputs": [],
      "name": "UNCLAIMED_PERIOD",
      "outputs": [
        {
          "internalType": "uint256",
          "name": "",
          "type": "uint256"
        }
      ],
      "stateMutability": "view",
      "type": "function"
    },
    {
      "inputs": [
        {
          "internalType": "uint256",
          "name": "seasonId",
          "type": "uint256"
        },
        {
          "internalType": "uint256",
          "name": "amount",
          "type": "uint256"
        },
        {
          "internalType": "bytes32[]",
          "name": "merkleProof",
          "type": "bytes32[]"
        }
      ],
      "name": "claimReward",
      "outputs": [],
      "stateMutability": "nonpayable",
      "type": "function"
    },
    {
      "inputs": [
        {
          "internalType": "uint256",
          "name": "seasonId",
          "type": "uint256"
        }
      ],
      "name": "closeSeason",
      "outputs": [],
      "stateMutability": "nonpayable",
      "type": "function"
    },
    {
      "inputs": [
        {
          "internalType": "bytes32",
          "name": "_merkleRoot",
          "type": "bytes32"
        },
        {
          "internalType": "uint256",
          "name": "_startTime",
          "type": "uint256"
        },
        {
          "internalType": "uint256",
          "name": "_endTime",
          "type": "uint256"
        },
        {
          "internalType": "uint256",
          "name": "_totalRewards",
          "type": "uint256"
        }
      ],
      "name": "createSeason",
      "outputs": [],
      "stateMutability": "nonpayable",
      "type": "function"
    },
    {
      "inputs": [],
      "name": "currentSeason",
      "outputs": [
        {
          "internalType": "uint256",
          "name": "",
          "type": "uint256"
        }
      ],
      "stateMutability": "view",
      "type": "function"
    },
    {
      "inputs": [
        {
          "internalType": "uint256",
          "name": "amount",
          "type": "uint256"
        }
      ],
      "name": "emergencyWithdraw",
      "outputs": [],
      "stateMutability": "nonpayable",
      "type": "function"
    },
    {
      "inputs": [
        {
          "internalType": "uint256",
          "name": "seasonId",
          "type": "uint256"
        },
        {
          "internalType": "address",
          "name": "user",
          "type": "address"
        }
      ],
      "name": "getClaimedAmount",
      "outputs": [
        {
          "internalType": "uint256",
          "name": "",
          "type": "uint256"
        }
      ],
      "stateMutability": "view",
      "type": "function"
    },
    {
      "inputs": [
        {
          "internalType": "uint256",
          "name": "seasonId",
          "type": "uint256"
        }
      ],
      "name": "getSeasonInfo",
      "outputs": [
        {
          "internalType": "bytes32",
          "name": "merkleRoot",
          "type": "bytes32"
        },
        {
          "internalType": "uint256",
          "name": "startTime",
          "type": "uint256"
        },
        {
          "internalType": "uint256",
          "name": "endTime",
          "type": "uint256"
        },
        {
          "internalType": "uint256",
          "name": "totalRewards",
          "type": "uint256"
        },
        {
          "internalType": "uint256",
          "name": "totalClaimed",
          "type": "uint256"
        },
        {
          "internalType": "bool",
          "name": "active",
          "type": "bool"
        }
      ],
      "stateMutability": "view",
      "type": "function"
    },
    {
      "inputs": [
        {
          "internalType": "uint256",
          "name": "seasonId",
          "type": "uint256"
        },
        {
          "internalType": "address",
          "name": "user",
          "type": "address"
        }
      ],
      "name": "hasClaimedSeason",
      "outputs": [
        {
          "internalType": "bool",
          "name": "",
          "type": "bool"
        }
      ],
      "stateMutability": "view",
      "type": "function"
    },
    {
      "inputs": [],
      "name": "labToken",
      "outputs": [
        {
          "internalType": "contract IERC20",
          "name": "",
          "type": "address"
        }
      ],
      "stateMutability": "view",
      "type": "function"
    },
    {
      "inputs": [],
      "name": "owner",
      "outputs": [
        {
          "internalType": "address",
          "name": "",
          "type": "address"
        }
      ],
      "stateMutability": "view",
      "type": "function"
    },
    {
      "inputs": [],
      "name": "renounceOwnership",
      "outputs": [],
      "stateMutability": "nonpayable",
      "type": "function"
    },
    {
      "inputs": [
        {
          "internalType": "uint256",
          "name": "",
          "type": "uint256"
        }
      ],
      "name": "seasons",
      "outputs": [
        {
          "internalType": "bytes32",
          "name": "merkleRoot",
          "type": "bytes32"
        },
        {
          "internalType": "uint256",
          "name": "startTime",
          "type": "uint256"
        },
        {
          "internalType": "uint256",
          "name": "endTime",
          "type": "uint256"
        },
        {
          "internalType": "uint256",
          "name": "totalRewards",
          "type": "uint256"
        },
        {
          "internalType": "bool",
          "name": "active",
          "type": "bool"
        },
        {
          "internalType": "uint256",
          "name": "totalClaimed",
          "type": "uint256"
        }
      ],
      "stateMutability": "view",
      "type": "function"
    },
    {
      "inputs": [
        {
          "internalType": "address",
          "name": "newOwner",
          "type": "address"
        }
      ],
      "name": "transferOwnership",
      "outputs": [],
      "stateMutability": "nonpayable",
      "type": "function"
    }
  ],
  "transactionHash": "0x70ce9e1cb5a894cd2e17409658e99b6726b8ead96b8e698dfe668aee248a61a5",
  "args": [
    "0x4C38525e3fE1C7a904463621Ecef8ED22B97120f",
    "0x0aCD0De8A6A25E37588fF181DB97117cdb39EDB7"
  ],
  "numDeployments": 1,
  "solcInputHash": "f4135481a12e30f0c3bbada1ed1bfc3b",
  "bytecode": "0x60a06040523480156200001157600080fd5b5060405162001fef38038062001fef833981810160405281019062000037919062000230565b80600073ffffffffffffffffffffffffffffffffffffffff168173ffffffffffffffffffffffffffffffffffffffff1603620000ad5760006040517f1e4fbdf7000000000000000000000000000000000000000000000000000000008152600401620000a4919062000288565b60405180910390fd5b620000be816200010260201b60201c565b50600180819055508173ffffffffffffffffffffffffffffffffffffffff1660808173ffffffffffffffffffffffffffffffffffffffff16815250505050620002a5565b60008060009054906101000a900473ffffffffffffffffffffffffffffffffffffffff169050816000806101000a81548173ffffffffffffffffffffffffffffffffffffffff021916908373ffffffffffffffffffffffffffffffffffffffff1602179055508173ffffffffffffffffffffffffffffffffffffffff168173ffffffffffffffffffffffffffffffffffffffff167f8be0079c531659141344cd1fd0a4f28419497f9722a3daafe3b4186f6b6457e060405160405180910390a35050565b600080fd5b600073ffffffffffffffffffffffffffffffffffffffff82169050919050565b6000620001f882620001cb565b9050919050565b6200020a81620001eb565b81146200021657600080fd5b50565b6000815190506200022a81620001ff565b92915050565b600080604083850312156200024a5762000249620001c6565b5b60006200025a8582860162000219565b92505060206200026d8582860162000219565b9150509250929050565b6200028281620001eb565b82525050565b60006020820190506200029f600083018462000277565b92915050565b608051611d12620002dd6000396000818161042b015281816106530152818161073a015281816108420152610c9e0152611d126000f3fe608060405234801561001057600080fd5b50600436106100ea5760003560e01c8063715018a61161008c5780639821f5f2116100665780639821f5f21461023c578063bcb3962114610258578063f2fde38b14610276578063f5d709a114610292576100ea565b8063715018a6146101f85780637c82716f146102025780638da5cb5b1461021e576100ea565b806344b90c03116100c857806344b90c03146101705780634867b6db1461018e5780635312ea8e146101be5780636a031bee146101da576100ea565b8063089bcf2f146100ef57806319d3da971461011f5780631bae2b6c1461013b575b600080fd5b61010960048036038101906101049190611196565b6102c7565b60405161011691906111f1565b60405180910390f35b6101396004803603810190610134919061120c565b610327565b005b6101556004803603810190610150919061120c565b610583565b60405161016796959493929190611261565b60405180910390f35b6101786105e4565b60405161018591906112c2565b60405180910390f35b6101a860048036038101906101a39190611196565b6105eb565b6040516101b591906112c2565b60405180910390f35b6101d860048036038101906101d3919061120c565b610649565b005b6101e2610738565b6040516101ef919061133c565b60405180910390f35b61020061075c565b005b61021c60048036038101906102179190611383565b610770565b005b6102266109d4565b60405161023391906113f9565b60405180910390f35b61025660048036038101906102519190611479565b6109fd565b005b610260610dd8565b60405161026d91906112c2565b60405180910390f35b610290600480360381019061028b91906114ed565b610dde565b005b6102ac60048036038101906102a7919061120c565b610e64565b6040516102be9695949392919061151a565b60405180910390f35b6000806002600085815260200190815260200160002060050160008473ffffffffffffffffffffffffffffffffffffffff1673ffffffffffffffffffffffffffffffffffffffff1681526020019081526020016000205411905092915050565b61032f610ead565b60006002600083815260200190815260200160002090508060040160009054906101000a900460ff16610397576040517f08c379a000000000000000000000000000000000000000000000000000000000815260040161038e906115d8565b60405180910390fd5b62ed4e0081600201546103aa9190611627565b42116103eb576040517f08c379a00000000000000000000000000000000000000000000000000000000081526004016103e2906116a7565b60405180910390fd5b60008160040160006101000a81548160ff02191690831515021790555060008160060154826003015461041e91906116c7565b90506000811115610546577f000000000000000000000000000000000000000000000000000000000000000073ffffffffffffffffffffffffffffffffffffffff1663a9059cbb61046d6109d4565b836040518363ffffffff1660e01b815260040161048b9291906116fb565b6020604051808303816000875af11580156104aa573d6000803e3d6000fd5b505050506040513d601f19601f820116820180604052508101906104ce9190611750565b61050d576040517f08c379a0000000000000000000000000000000000000000000000000000000008152600401610504906117c9565b60405180910390fd5b827f8bf8c12aaf3f386ef3478eacc1f8773954d9909e45d1c9d546290cb0cc760ccb8260405161053d91906112c2565b60405180910390a25b827f1e1fd0d309f16671cc0c385264689511ca3162df39c2f0540e4cf202a296cd418260405161057691906112c2565b60405180910390a2505050565b6000806000806000806000600260008981526020019081526020016000209050806000015481600101548260020154836003015484600601548560040160009054906101000a900460ff169650965096509650965096505091939550919395565b62ed4e0081565b60006002600084815260200190815260200160002060050160008373ffffffffffffffffffffffffffffffffffffffff1673ffffffffffffffffffffffffffffffffffffffff16815260200190815260200160002054905092915050565b610651610ead565b7f000000000000000000000000000000000000000000000000000000000000000073ffffffffffffffffffffffffffffffffffffffff1663a9059cbb6106956109d4565b836040518363ffffffff1660e01b81526004016106b39291906116fb565b6020604051808303816000875af11580156106d2573d6000803e3d6000fd5b505050506040513d601f19601f820116820180604052508101906106f69190611750565b610735576040517f08c379a000000000000000000000000000000000000000000000000000000000815260040161072c906117c9565b60405180910390fd5b50565b7f000000000000000000000000000000000000000000000000000000000000000081565b610764610ead565b61076e6000610f34565b565b610778610ead565b8183106107ba576040517f08c379a00000000000000000000000000000000000000000000000000000000081526004016107b190611835565b60405180910390fd5b4282116107fc576040517f08c379a00000000000000000000000000000000000000000000000000000000081526004016107f3906118a1565b60405180910390fd5b6000811161083f576040517f08c379a00000000000000000000000000000000000000000000000000000000081526004016108369061190d565b60405180910390fd5b807f000000000000000000000000000000000000000000000000000000000000000073ffffffffffffffffffffffffffffffffffffffff166370a08231306040518263ffffffff1660e01b815260040161089991906113f9565b602060405180830381865afa1580156108b6573d6000803e3d6000fd5b505050506040513d601f19601f820116820180604052508101906108da9190611942565b101561091b576040517f08c379a0000000000000000000000000000000000000000000000000000000008152600401610912906119bb565b60405180910390fd5b6003600081548092919061092e906119db565b91905055506000600260006003548152602001908152602001600020905084816000018190555083816001018190555082816002018190555081816003018190555060018160040160006101000a81548160ff0219169083151502179055506003547fbf41d8da6c70ff8b957c759a473e48adfc3d2e0a5d906ed127052144ee645fdf868686866040516109c59493929190611a23565b60405180910390a25050505050565b60008060009054906101000a900473ffffffffffffffffffffffffffffffffffffffff16905090565b610a05610ff8565b60006002600086815260200190815260200160002090508060040160009054906101000a900460ff16610a6d576040517f08c379a0000000000000000000000000000000000000000000000000000000008152600401610a64906115d8565b60405180910390fd5b8060010154421015610ab4576040517f08c379a0000000000000000000000000000000000000000000000000000000008152600401610aab90611ab4565b60405180910390fd5b8060020154421115610afb576040517f08c379a0000000000000000000000000000000000000000000000000000000008152600401610af290611b20565b60405180910390fd5b60008160050160003373ffffffffffffffffffffffffffffffffffffffff1673ffffffffffffffffffffffffffffffffffffffff1681526020019081526020016000205414610b7f576040517f08c379a0000000000000000000000000000000000000000000000000000000008152600401610b7690611b8c565b60405180910390fd5b60003385604051602001610b94929190611c15565b604051602081830303815290604052805190602001209050610bfc848480806020026020016040519081016040528093929190818152602001838360200280828437600081840152601f19601f8201169050808301925050505050505083600001548361103e565b610c3b576040517f08c379a0000000000000000000000000000000000000000000000000000000008152600401610c3290611c8d565b60405180910390fd5b848260050160003373ffffffffffffffffffffffffffffffffffffffff1673ffffffffffffffffffffffffffffffffffffffff1681526020019081526020016000208190555084826006016000828254610c959190611627565b925050819055507f000000000000000000000000000000000000000000000000000000000000000073ffffffffffffffffffffffffffffffffffffffff1663a9059cbb33876040518363ffffffff1660e01b8152600401610cf79291906116fb565b6020604051808303816000875af1158015610d16573d6000803e3d6000fd5b505050506040513d601f19601f82011682018060405250810190610d3a9190611750565b610d79576040517f08c379a0000000000000000000000000000000000000000000000000000000008152600401610d70906117c9565b60405180910390fd5b3373ffffffffffffffffffffffffffffffffffffffff16867f24b5efa61dd1cfc659205a97fb8ed868f3cb8c81922bab2b96423e5de1de2cb787604051610dc091906112c2565b60405180910390a35050610dd2611055565b50505050565b60035481565b610de6610ead565b600073ffffffffffffffffffffffffffffffffffffffff168173ffffffffffffffffffffffffffffffffffffffff1603610e585760006040517f1e4fbdf7000000000000000000000000000000000000000000000000000000008152600401610e4f91906113f9565b60405180910390fd5b610e6181610f34565b50565b60026020528060005260406000206000915090508060000154908060010154908060020154908060030154908060040160009054906101000a900460ff16908060060154905086565b610eb561105e565b73ffffffffffffffffffffffffffffffffffffffff16610ed36109d4565b73ffffffffffffffffffffffffffffffffffffffff1614610f3257610ef661105e565b6040517f118cdaa7000000000000000000000000000000000000000000000000000000008152600401610f2991906113f9565b60405180910390fd5b565b60008060009054906101000a900473ffffffffffffffffffffffffffffffffffffffff169050816000806101000a81548173ffffffffffffffffffffffffffffffffffffffff021916908373ffffffffffffffffffffffffffffffffffffffff1602179055508173ffffffffffffffffffffffffffffffffffffffff168173ffffffffffffffffffffffffffffffffffffffff167f8be0079c531659141344cd1fd0a4f28419497f9722a3daafe3b4186f6b6457e060405160405180910390a35050565b600260015403611034576040517f3ee5aeb500000000000000000000000000000000000000000000000000000000815260040160405180910390fd5b6002600181905550565b60008261104b8584611066565b1490509392505050565b60018081905550565b600033905090565b60008082905060005b84518110156110ab5761109c8286838151811061108f5761108e611cad565b5b60200260200101516110b6565b9150808060010191505061106f565b508091505092915050565b60008183106110ce576110c982846110e1565b6110d9565b6110d883836110e1565b5b905092915050565b600082600052816020526040600020905092915050565b600080fd5b600080fd5b6000819050919050565b61111581611102565b811461112057600080fd5b50565b6000813590506111328161110c565b92915050565b600073ffffffffffffffffffffffffffffffffffffffff82169050919050565b600061116382611138565b9050919050565b61117381611158565b811461117e57600080fd5b50565b6000813590506111908161116a565b92915050565b600080604083850312156111ad576111ac6110f8565b5b60006111bb85828601611123565b92505060206111cc85828601611181565b9150509250929050565b60008115159050919050565b6111eb816111d6565b82525050565b600060208201905061120660008301846111e2565b92915050565b600060208284031215611222576112216110f8565b5b600061123084828501611123565b91505092915050565b6000819050919050565b61124c81611239565b82525050565b61125b81611102565b82525050565b600060c0820190506112766000830189611243565b6112836020830188611252565b6112906040830187611252565b61129d6060830186611252565b6112aa6080830185611252565b6112b760a08301846111e2565b979650505050505050565b60006020820190506112d76000830184611252565b92915050565b6000819050919050565b60006113026112fd6112f884611138565b6112dd565b611138565b9050919050565b6000611314826112e7565b9050919050565b600061132682611309565b9050919050565b6113368161131b565b82525050565b6000602082019050611351600083018461132d565b92915050565b61136081611239565b811461136b57600080fd5b50565b60008135905061137d81611357565b92915050565b6000806000806080858703121561139d5761139c6110f8565b5b60006113ab8782880161136e565b94505060206113bc87828801611123565b93505060406113cd87828801611123565b92505060606113de87828801611123565b91505092959194509250565b6113f381611158565b82525050565b600060208201905061140e60008301846113ea565b92915050565b600080fd5b600080fd5b600080fd5b60008083601f84011261143957611438611414565b5b8235905067ffffffffffffffff81111561145657611455611419565b5b6020830191508360208202830111156114725761147161141e565b5b9250929050565b60008060008060608587031215611493576114926110f8565b5b60006114a187828801611123565b94505060206114b287828801611123565b935050604085013567ffffffffffffffff8111156114d3576114d26110fd565b5b6114df87828801611423565b925092505092959194509250565b600060208284031215611503576115026110f8565b5b600061151184828501611181565b91505092915050565b600060c08201905061152f6000830189611243565b61153c6020830188611252565b6115496040830187611252565b6115566060830186611252565b61156360808301856111e2565b61157060a0830184611252565b979650505050505050565b600082825260208201905092915050565b7f536561736f6e206e6f7420616374697665000000000000000000000000000000600082015250565b60006115c260118361157b565b91506115cd8261158c565b602082019050919050565b600060208201905081810360008301526115f1816115b5565b9050919050565b7f4e487b7100000000000000000000000000000000000000000000000000000000600052601160045260246000fd5b600061163282611102565b915061163d83611102565b9250828201905080821115611655576116546115f8565b5b92915050565b7f556e636c61696d656420706572696f64206e6f7420656e646564000000000000600082015250565b6000611691601a8361157b565b915061169c8261165b565b602082019050919050565b600060208201905081810360008301526116c081611684565b9050919050565b60006116d282611102565b91506116dd83611102565b92508282039050818111156116f5576116f46115f8565b5b92915050565b600060408201905061171060008301856113ea565b61171d6020830184611252565b9392505050565b61172d816111d6565b811461173857600080fd5b50565b60008151905061174a81611724565b92915050565b600060208284031215611766576117656110f8565b5b60006117748482850161173b565b91505092915050565b7f5472616e73666572206661696c65640000000000000000000000000000000000600082015250565b60006117b3600f8361157b565b91506117be8261177d565b602082019050919050565b600060208201905081810360008301526117e2816117a6565b9050919050565b7f496e76616c69642074696d652072616e67650000000000000000000000000000600082015250565b600061181f60128361157b565b915061182a826117e9565b602082019050919050565b6000602082019050818103600083015261184e81611812565b9050919050565b7f456e642074696d6520696e207061737400000000000000000000000000000000600082015250565b600061188b60108361157b565b915061189682611855565b602082019050919050565b600060208201905081810360008301526118ba8161187e565b9050919050565b7f496e76616c69642072657761726420616d6f756e740000000000000000000000600082015250565b60006118f760158361157b565b9150611902826118c1565b602082019050919050565b60006020820190508181036000830152611926816118ea565b9050919050565b60008151905061193c8161110c565b92915050565b600060208284031215611958576119576110f8565b5b60006119668482850161192d565b91505092915050565b7f496e73756666696369656e742062616c616e6365000000000000000000000000600082015250565b60006119a560148361157b565b91506119b08261196f565b602082019050919050565b600060208201905081810360008301526119d481611998565b9050919050565b60006119e682611102565b91507fffffffffffffffffffffffffffffffffffffffffffffffffffffffffffffffff8203611a1857611a176115f8565b5b600182019050919050565b6000608082019050611a386000830187611243565b611a456020830186611252565b611a526040830185611252565b611a5f6060830184611252565b95945050505050565b7f536561736f6e206e6f7420737461727465640000000000000000000000000000600082015250565b6000611a9e60128361157b565b9150611aa982611a68565b602082019050919050565b60006020820190508181036000830152611acd81611a91565b9050919050565b7f536561736f6e20656e6465640000000000000000000000000000000000000000600082015250565b6000611b0a600c8361157b565b9150611b1582611ad4565b602082019050919050565b60006020820190508181036000830152611b3981611afd565b9050919050565b7f416c726561647920636c61696d65640000000000000000000000000000000000600082015250565b6000611b76600f8361157b565b9150611b8182611b40565b602082019050919050565b60006020820190508181036000830152611ba581611b69565b9050919050565b60008160601b9050919050565b6000611bc482611bac565b9050919050565b6000611bd682611bb9565b9050919050565b611bee611be982611158565b611bcb565b82525050565b6000819050919050565b611c0f611c0a82611102565b611bf4565b82525050565b6000611c218285611bdd565b601482019150611c318284611bfe565b6020820191508190509392505050565b7f496e76616c69642070726f6f6600000000000000000000000000000000000000600082015250565b6000611c77600d8361157b565b9150611c8282611c41565b602082019050919050565b60006020820190508181036000830152611ca681611c6a565b9050919050565b7f4e487b7100000000000000000000000000000000000000000000000000000000600052603260045260246000fdfea264697066735822122071723ab2f4382f3aab44814140a18045dbe9764c0bf090c3b0afd0f2d2519b6464736f6c63430008180033",
  "devdoc": {
    "errors": {
      "OwnableInvalidOwner(address)": [
        {
          "details": "The owner is not a valid owner account. (eg. `address(0)`)"
        }
      ],
      "OwnableUnauthorizedAccount(address)": [
        {
          "details": "The caller account is not authorized to perform an operation."
        }
      ],
      "ReentrancyGuardReentrantCall()": [
        {
          "details": "Unauthorized reentrant call."
        }
      ]
    },
    "kind": "dev",
    "methods": {
      "owner()": {
        "details": "Returns the address of the current owner."
      },
      "renounceOwnership()": {
        "details": "Leaves the contract without owner. It will not be possible to call `onlyOwner` functions. Can only be called by the current owner. NOTE: Renouncing ownership will leave the contract without an owner, thereby disabling any functionality that is only available to the owner."
      },
      "transferOwnership(address)": {
        "details": "Transfers ownership of the contract to a new account (`newOwner`). Can only be called by the current owner."
      }
    },
    "version": 1
  },
  "userdoc": {
    "kind": "user",
    "methods": {},
    "version": 1
  },
  "storageLayout": {
    "storage": [
      {
        "astId": 8,
        "contract": "contracts/RewardDistributor.sol:RewardDistributor",
        "label": "_owner",
        "offset": 0,
        "slot": "0",
        "type": "t_address"
      },
      {
        "astId": 2769,
        "contract": "contracts/RewardDistributor.sol:RewardDistributor",
        "label": "_status",
        "offset": 0,
        "slot": "1",
        "type": "t_uint256"
      },
      {
        "astId": 10659,
        "contract": "contracts/RewardDistributor.sol:RewardDistributor",
        "label": "seasons",
        "offset": 0,
        "slot": "2",
        "type": "t_mapping(t_uint256,t_struct(Season)10654_storage)"
      },
      {
        "astId": 10661,
        "contract": "contracts/RewardDistributor.sol:RewardDistributor",
        "label": "currentSeason",
        "offset": 0,
        "slot": "3",
        "type": "t_uint256"
      }
    ],
    "types": {
      "t_address": {
        "encoding": "inplace",
        "label": "address",
        "numberOfBytes": "20"
      },
      "t_bool": {
        "encoding": "inplace",
        "label": "bool",
        "numberOfBytes": "1"
      },
      "t_bytes32": {
        "encoding": "inplace",
        "label": "bytes32",
        "numberOfBytes": "32"
      },
      "t_mapping(t_address,t_uint256)": {
        "encoding": "mapping",
        "key": "t_address",
        "label": "mapping(address => uint256)",
        "numberOfBytes": "32",
        "value": "t_uint256"
      },
      "t_mapping(t_uint256,t_struct(Season)10654_storage)": {
        "encoding": "mapping",
        "key": "t_uint256",
        "label": "mapping(uint256 => struct RewardDistributor.Season)",
        "numberOfBytes": "32",
        "value": "t_struct(Season)10654_storage"
      },
      "t_struct(Season)10654_storage": {
        "encoding": "inplace",
        "label": "struct RewardDistributor.Season",
        "members": [
          {
            "astId": 10639,
            "contract": "contracts/RewardDistributor.sol:RewardDistributor",
            "label": "merkleRoot",
            "offset": 0,
            "slot": "0",
            "type": "t_bytes32"
          },
          {
            "astId": 10641,
            "contract": "contracts/RewardDistributor.sol:RewardDistributor",
            "label": "startTime",
            "offset": 0,
            "slot": "1",
            "type": "t_uint256"
          },
          {
            "astId": 10643,
            "contract": "contracts/RewardDistributor.sol:RewardDistributor",
            "label": "endTime",
            "offset": 0,
            "slot": "2",
            "type": "t_uint256"
          },
          {
            "astId": 10645,
            "contract": "contracts/RewardDistributor.sol:RewardDistributor",
            "label": "totalRewards",
            "offset": 0,
            "slot": "3",
            "type": "t_uint256"
          },
          {
            "astId": 10647,
            "contract": "contracts/RewardDistributor.sol:RewardDistributor",
            "label": "active",
            "offset": 0,
            "slot": "4",
            "type": "t_bool"
          },
          {
            "astId": 10651,
            "contract": "contracts/RewardDistributor.sol:RewardDistributor",
            "label": "claimed",
            "offset": 0,
            "slot": "5",
            "type": "t_mapping(t_address,t_uint256)"
          },
          {
            "astId": 10653,
            "contract": "contracts/RewardDistributor.sol:RewardDistributor",
            "label": "totalClaimed",
            "offset": 0,
            "slot": "6",
            "type": "t_uint256"
          }
        ],
        "numberOfBytes": "224"
      },
      "t_uint256": {
        "encoding": "inplace",
        "label": "uint256",
        "numberOfBytes": "32"
      }
    }
  }
}