{
  "address": "0x4CfF95f1EDFC46646D4C2d345e1AF8Aa375ac8D6",
  "abi": [
    {
      "inputs": [
        {
          "internalType": "address",
          "name": "owner_",
          "type": "address"
        }
      ],
      "stateMutability": "nonpayable",
      "type": "constructor"
    },
    {
      "inputs": [
        {
          "internalType": "address",
          "name": "owner",
          "type": "address"
        }
      ],
      "name": "OwnableInvalidOwner",
      "type": "error"
    },
    {
      "inputs": [
        {
          "internalType": "address",
          "name": "account",
          "type": "address"
        }
      ],
      "name": "OwnableUnauthorizedAccount",
      "type": "error"
    },
    {
      "inputs": [],
      "name": "ReentrancyGuardReentrantCall",
      "type": "error"
    },
    {
      "anonymous": false,
      "inputs": [
        {
          "indexed": true,
          "internalType": "address",
          "name": "factory",
          "type": "address"
        }
      ],
      "name": "FactoryUpdated",
      "type": "event"
    },
    {
      "anonymous": false,
      "inputs": [
        {
          "indexed": true,
          "internalType": "address",
          "name": "previousOwner",
          "type": "address"
        },
        {
          "indexed": true,
          "internalType": "address",
          "name": "newOwner",
          "type": "address"
        }
      ],
      "name": "OwnershipTransferred",
      "type": "event"
    },
    {
      "anonymous": false,
      "inputs": [
        {
          "indexed": true,
          "internalType": "address",
          "name": "token",
          "type": "address"
        },
        {
          "indexed": true,
          "internalType": "address",
          "name": "creator",
          "type": "address"
        },
        {
          "indexed": false,
          "internalType": "uint256",
          "name": "amount",
          "type": "uint256"
        }
      ],
      "name": "RoyaltyClaimed",
      "type": "event"
    },
    {
      "anonymous": false,
      "inputs": [
        {
          "indexed": true,
          "internalType": "address",
          "name": "token",
          "type": "address"
        },
        {
          "indexed": true,
          "internalType": "address",
          "name": "creator",
          "type": "address"
        }
      ],
      "name": "TokenRegistered",
      "type": "event"
    },
    {
      "inputs": [
        {
          "internalType": "address",
          "name": "token",
          "type": "address"
        }
      ],
      "name": "claim",
      "outputs": [],
      "stateMutability": "nonpayable",
      "type": "function"
    },
    {
      "inputs": [
        {
          "internalType": "address",
          "name": "",
          "type": "address"
        }
      ],
      "name": "creatorOf",
      "outputs": [
        {
          "internalType": "address",
          "name": "",
          "type": "address"
        }
      ],
      "stateMutability": "view",
      "type": "function"
    },
    {
      "inputs": [],
      "name": "factory",
      "outputs": [
        {
          "internalType": "address",
          "name": "",
          "type": "address"
        }
      ],
      "stateMutability": "view",
      "type": "function"
    },
    {
      "inputs": [],
      "name": "owner",
      "outputs": [
        {
          "internalType": "address",
          "name": "",
          "type": "address"
        }
      ],
      "stateMutability": "view",
      "type": "function"
    },
    {
      "inputs": [
        {
          "internalType": "address",
          "name": "token",
          "type": "address"
        }
      ],
      "name": "pendingRoyalty",
      "outputs": [
        {
          "internalType": "uint256",
          "name": "",
          "type": "uint256"
        }
      ],
      "stateMutability": "view",
      "type": "function"
    },
    {
      "inputs": [
        {
          "internalType": "address",
          "name": "token",
          "type": "address"
        },
        {
          "internalType": "address",
          "name": "creator_",
          "type": "address"
        }
      ],
      "name": "registerToken",
      "outputs": [],
      "stateMutability": "nonpayable",
      "type": "function"
    },
    {
      "inputs": [],
      "name": "renounceOwnership",
      "outputs": [],
      "stateMutability": "nonpayable",
      "type": "function"
    },
    {
      "inputs": [
        {
          "internalType": "address",
          "name": "factory_",
          "type": "address"
        }
      ],
      "name": "setFactory",
      "outputs": [],
      "stateMutability": "nonpayable",
      "type": "function"
    },
    {
      "inputs": [
        {
          "internalType": "address",
          "name": "newOwner",
          "type": "address"
        }
      ],
      "name": "transferOwnership",
      "outputs": [],
      "stateMutability": "nonpayable",
      "type": "function"
    }
  ],
  "transactionHash": "0xb3b40b63c46e6cc67b5955ca4d1a0e2a8fa1c626d670e37d35130cb5b2ac8f4c",
  "args": [
    "0x0aCD0De8A6A25E37588fF181DB97117cdb39EDB7"
  ],
  "numDeployments": 1,
  "solcInputHash": "f4135481a12e30f0c3bbada1ed1bfc3b",
  "bytecode": "0x60806040523480156200001157600080fd5b50604051620014fe380380620014fe8339818101604052810190620000379190620001fb565b80600073ffffffffffffffffffffffffffffffffffffffff168173ffffffffffffffffffffffffffffffffffffffff1603620000ad5760006040517f1e4fbdf7000000000000000000000000000000000000000000000000000000008152600401620000a491906200023e565b60405180910390fd5b620000be81620000cd60201b60201c565b5060018081905550506200025b565b60008060009054906101000a900473ffffffffffffffffffffffffffffffffffffffff169050816000806101000a81548173ffffffffffffffffffffffffffffffffffffffff021916908373ffffffffffffffffffffffffffffffffffffffff1602179055508173ffffffffffffffffffffffffffffffffffffffff168173ffffffffffffffffffffffffffffffffffffffff167f8be0079c531659141344cd1fd0a4f28419497f9722a3daafe3b4186f6b6457e060405160405180910390a35050565b600080fd5b600073ffffffffffffffffffffffffffffffffffffffff82169050919050565b6000620001c38262000196565b9050919050565b620001d581620001b6565b8114620001e157600080fd5b50565b600081519050620001f581620001ca565b92915050565b60006020828403121562000214576200021362000191565b5b60006200022484828501620001e4565b91505092915050565b6200023881620001b6565b82525050565b60006020820190506200025560008301846200022d565b92915050565b611293806200026b6000396000f3fe608060405234801561001057600080fd5b50600436106100935760003560e01c8063715018a611610066578063715018a61461011c5780638da5cb5b14610126578063c45a015514610144578063dea5c2e014610162578063f2fde38b1461019257610093565b80631e83409a146100985780632f50e472146100b45780634739f7e5146100e45780635bb4780814610100575b600080fd5b6100b260048036038101906100ad9190610cc8565b6101ae565b005b6100ce60048036038101906100c99190610cc8565b610472565b6040516100db9190610d0e565b60405180910390f35b6100fe60048036038101906100f99190610d29565b610591565b005b61011a60048036038101906101159190610cc8565b6108a9565b005b6101246109a7565b005b61012e6109bb565b60405161013b9190610d78565b60405180910390f35b61014c6109e4565b6040516101599190610d78565b60405180910390f35b61017c60048036038101906101779190610cc8565b610a0a565b6040516101899190610d78565b60405180910390f35b6101ac60048036038101906101a79190610cc8565b610a3d565b005b6101b6610ac3565b3373ffffffffffffffffffffffffffffffffffffffff16600360008373ffffffffffffffffffffffffffffffffffffffff1673ffffffffffffffffffffffffffffffffffffffff16815260200190815260200160002060009054906101000a900473ffffffffffffffffffffffffffffffffffffffff1673ffffffffffffffffffffffffffffffffffffffff1614610283576040517f08c379a000000000000000000000000000000000000000000000000000000000815260040161027a90610df0565b60405180910390fd5b60008173ffffffffffffffffffffffffffffffffffffffff166370a08231306040518263ffffffff1660e01b81526004016102be9190610d78565b602060405180830381865afa1580156102db573d6000803e3d6000fd5b505050506040513d601f19601f820116820180604052508101906102ff9190610e3c565b905060008111610344576040517f08c379a000000000000000000000000000000000000000000000000000000000815260040161033b90610edb565b60405180910390fd5b8173ffffffffffffffffffffffffffffffffffffffff1663a9059cbb33836040518363ffffffff1660e01b815260040161037f929190610efb565b6020604051808303816000875af115801561039e573d6000803e3d6000fd5b505050506040513d601f19601f820116820180604052508101906103c29190610f5c565b610401576040517f08c379a00000000000000000000000000000000000000000000000000000000081526004016103f890610ffb565b60405180910390fd5b3373ffffffffffffffffffffffffffffffffffffffff168273ffffffffffffffffffffffffffffffffffffffff167fd1b893da855ca6a7c9cfbaff142da78c734a39d4811ad711fe7acfd6e5e433a48360405161045e9190610d0e565b60405180910390a35061046f610b09565b50565b60008073ffffffffffffffffffffffffffffffffffffffff16600360008473ffffffffffffffffffffffffffffffffffffffff1673ffffffffffffffffffffffffffffffffffffffff16815260200190815260200160002060009054906101000a900473ffffffffffffffffffffffffffffffffffffffff1673ffffffffffffffffffffffffffffffffffffffff160361050f576000905061058c565b8173ffffffffffffffffffffffffffffffffffffffff166370a08231306040518263ffffffff1660e01b81526004016105489190610d78565b602060405180830381865afa158015610565573d6000803e3d6000fd5b505050506040513d601f19601f820116820180604052508101906105899190610e3c565b90505b919050565b600260009054906101000a900473ffffffffffffffffffffffffffffffffffffffff1673ffffffffffffffffffffffffffffffffffffffff163373ffffffffffffffffffffffffffffffffffffffff1614610621576040517f08c379a000000000000000000000000000000000000000000000000000000000815260040161061890611067565b60405180910390fd5b600073ffffffffffffffffffffffffffffffffffffffff168273ffffffffffffffffffffffffffffffffffffffff1603610690576040517f08c379a0000000000000000000000000000000000000000000000000000000008152600401610687906110d3565b60405180910390fd5b600073ffffffffffffffffffffffffffffffffffffffff168173ffffffffffffffffffffffffffffffffffffffff16036106ff576040517f08c379a00000000000000000000000000000000000000000000000000000000081526004016106f69061113f565b60405180910390fd5b600073ffffffffffffffffffffffffffffffffffffffff16600360008473ffffffffffffffffffffffffffffffffffffffff1673ffffffffffffffffffffffffffffffffffffffff16815260200190815260200160002060009054906101000a900473ffffffffffffffffffffffffffffffffffffffff1673ffffffffffffffffffffffffffffffffffffffff16146107cd576040517f08c379a00000000000000000000000000000000000000000000000000000000081526004016107c4906111d1565b60405180910390fd5b80600360008473ffffffffffffffffffffffffffffffffffffffff1673ffffffffffffffffffffffffffffffffffffffff16815260200190815260200160002060006101000a81548173ffffffffffffffffffffffffffffffffffffffff021916908373ffffffffffffffffffffffffffffffffffffffff1602179055508073ffffffffffffffffffffffffffffffffffffffff168273ffffffffffffffffffffffffffffffffffffffff167f487c37289624c10056468f1f98ebffbad01edce11374975179672e32e2543bf060405160405180910390a35050565b6108b1610b12565b600073ffffffffffffffffffffffffffffffffffffffff168173ffffffffffffffffffffffffffffffffffffffff1603610920576040517f08c379a00000000000000000000000000000000000000000000000000000000081526004016109179061123d565b60405180910390fd5b80600260006101000a81548173ffffffffffffffffffffffffffffffffffffffff021916908373ffffffffffffffffffffffffffffffffffffffff1602179055508073ffffffffffffffffffffffffffffffffffffffff167f24cd1310c8883cbeaf5b805ab13586ce018b79c022827158ff3e8df14d34493660405160405180910390a250565b6109af610b12565b6109b96000610b99565b565b60008060009054906101000a900473ffffffffffffffffffffffffffffffffffffffff16905090565b600260009054906101000a900473ffffffffffffffffffffffffffffffffffffffff1681565b60036020528060005260406000206000915054906101000a900473ffffffffffffffffffffffffffffffffffffffff1681565b610a45610b12565b600073ffffffffffffffffffffffffffffffffffffffff168173ffffffffffffffffffffffffffffffffffffffff1603610ab75760006040517f1e4fbdf7000000000000000000000000000000000000000000000000000000008152600401610aae9190610d78565b60405180910390fd5b610ac081610b99565b50565b600260015403610aff576040517f3ee5aeb500000000000000000000000000000000000000000000000000000000815260040160405180910390fd5b6002600181905550565b60018081905550565b610b1a610c5d565b73ffffffffffffffffffffffffffffffffffffffff16610b386109bb565b73ffffffffffffffffffffffffffffffffffffffff1614610b9757610b5b610c5d565b6040517f118cdaa7000000000000000000000000000000000000000000000000000000008152600401610b8e9190610d78565b60405180910390fd5b565b60008060009054906101000a900473ffffffffffffffffffffffffffffffffffffffff169050816000806101000a81548173ffffffffffffffffffffffffffffffffffffffff021916908373ffffffffffffffffffffffffffffffffffffffff1602179055508173ffffffffffffffffffffffffffffffffffffffff168173ffffffffffffffffffffffffffffffffffffffff167f8be0079c531659141344cd1fd0a4f28419497f9722a3daafe3b4186f6b6457e060405160405180910390a35050565b600033905090565b600080fd5b600073ffffffffffffffffffffffffffffffffffffffff82169050919050565b6000610c9582610c6a565b9050919050565b610ca581610c8a565b8114610cb057600080fd5b50565b600081359050610cc281610c9c565b92915050565b600060208284031215610cde57610cdd610c65565b5b6000610cec84828501610cb3565b91505092915050565b6000819050919050565b610d0881610cf5565b82525050565b6000602082019050610d236000830184610cff565b92915050565b60008060408385031215610d4057610d3f610c65565b5b6000610d4e85828601610cb3565b9250506020610d5f85828601610cb3565b9150509250929050565b610d7281610c8a565b82525050565b6000602082019050610d8d6000830184610d69565b92915050565b600082825260208201905092915050565b7f526f79616c74794469737472696275746f723a206e6f742063726561746f7200600082015250565b6000610dda601f83610d93565b9150610de582610da4565b602082019050919050565b60006020820190508181036000830152610e0981610dcd565b9050919050565b610e1981610cf5565b8114610e2457600080fd5b50565b600081519050610e3681610e10565b92915050565b600060208284031215610e5257610e51610c65565b5b6000610e6084828501610e27565b91505092915050565b7f526f79616c74794469737472696275746f723a206e6f7468696e6720746f206360008201527f6c61696d00000000000000000000000000000000000000000000000000000000602082015250565b6000610ec5602483610d93565b9150610ed082610e69565b604082019050919050565b60006020820190508181036000830152610ef481610eb8565b9050919050565b6000604082019050610f106000830185610d69565b610f1d6020830184610cff565b9392505050565b60008115159050919050565b610f3981610f24565b8114610f4457600080fd5b50565b600081519050610f5681610f30565b92915050565b600060208284031215610f7257610f71610c65565b5b6000610f8084828501610f47565b91505092915050565b7f526f79616c74794469737472696275746f723a207472616e736665722066616960008201527f6c65640000000000000000000000000000000000000000000000000000000000602082015250565b6000610fe5602383610d93565b9150610ff082610f89565b604082019050919050565b6000602082019050818103600083015261101481610fd8565b9050919050565b7f526f79616c74794469737472696275746f723a206e6f7420666163746f727900600082015250565b6000611051601f83610d93565b915061105c8261101b565b602082019050919050565b6000602082019050818103600083015261108081611044565b9050919050565b7f526f79616c74794469737472696275746f723a2062616420746f6b656e000000600082015250565b60006110bd601d83610d93565b91506110c882611087565b602082019050919050565b600060208201905081810360008301526110ec816110b0565b9050919050565b7f526f79616c74794469737472696275746f723a206261642063726561746f7200600082015250565b6000611129601f83610d93565b9150611134826110f3565b602082019050919050565b600060208201905081810360008301526111588161111c565b9050919050565b7f526f79616c74794469737472696275746f723a20616c7265616479207265676960008201527f7374657265640000000000000000000000000000000000000000000000000000602082015250565b60006111bb602683610d93565b91506111c68261115f565b604082019050919050565b600060208201905081810360008301526111ea816111ae565b9050919050565b7f526f79616c74794469737472696275746f723a2062616420666163746f727900600082015250565b6000611227601f83610d93565b9150611232826111f1565b602082019050919050565b600060208201905081810360008301526112568161121a565b905091905056fea26469706673582212200e85d8cdce1fc20a78de5eb774a43db6a4f0d8900c7c147e12025bd56fcc160064736f6c63430008180033",
  "devdoc": {
    "details": "Holds each launched token's creator-royalty share of the post- graduation swap fee, and lets that creator claim it. LaunchToken's swap fee sends the creator's half of every taxed transfer directly here as a plain ERC20 transfer - there is no separate bookkeeping call, because a token only ever registers one creator and only its own tax mechanism ever sends it here. That means this contract's current balance of a given token IS that creator's unclaimed royalty, which is what claim() reads.",
    "errors": {
      "OwnableInvalidOwner(address)": [
        {
          "details": "The owner is not a valid owner account. (eg. `address(0)`)"
        }
      ],
      "OwnableUnauthorizedAccount(address)": [
        {
          "details": "The caller account is not authorized to perform an operation."
        }
      ],
      "ReentrancyGuardReentrantCall()": [
        {
          "details": "Unauthorized reentrant call."
        }
      ]
    },
    "kind": "dev",
    "methods": {
      "owner()": {
        "details": "Returns the address of the current owner."
      },
      "pendingRoyalty(address)": {
        "details": "Returns the caller's unclaimed royalty balance for a token."
      },
      "registerToken(address,address)": {
        "details": "Called once by LaunchpadFactory when a new token is created."
      },
      "renounceOwnership()": {
        "details": "Leaves the contract without owner. It will not be possible to call `onlyOwner` functions. Can only be called by the current owner. NOTE: Renouncing ownership will leave the contract without an owner, thereby disabling any functionality that is only available to the owner."
      },
      "transferOwnership(address)": {
        "details": "Transfers ownership of the contract to a new account (`newOwner`). Can only be called by the current owner."
      }
    },
    "title": "RoyaltyDistributor",
    "version": 1
  },
  "userdoc": {
    "kind": "user",
    "methods": {},
    "version": 1
  },
  "storageLayout": {
    "storage": [
      {
        "astId": 8,
        "contract": "contracts/RoyaltyDistributor.sol:RoyaltyDistributor",
        "label": "_owner",
        "offset": 0,
        "slot": "0",
        "type": "t_address"
      },
      {
        "astId": 2769,
        "contract": "contracts/RoyaltyDistributor.sol:RoyaltyDistributor",
        "label": "_status",
        "offset": 0,
        "slot": "1",
        "type": "t_uint256"
      },
      {
        "astId": 11096,
        "contract": "contracts/RoyaltyDistributor.sol:RoyaltyDistributor",
        "label": "factory",
        "offset": 0,
        "slot": "2",
        "type": "t_address"
      },
      {
        "astId": 11100,
        "contract": "contracts/RoyaltyDistributor.sol:RoyaltyDistributor",
        "label": "creatorOf",
        "offset": 0,
        "slot": "3",
        "type": "t_mapping(t_address,t_address)"
      }
    ],
    "types": {
      "t_address": {
        "encoding": "inplace",
        "label": "address",
        "numberOfBytes": "20"
      },
      "t_mapping(t_address,t_address)": {
        "encoding": "mapping",
        "key": "t_address",
        "label": "mapping(address => address)",
        "numberOfBytes": "32",
        "value": "t_address"
      },
      "t_uint256": {
        "encoding": "inplace",
        "label": "uint256",
        "numberOfBytes": "32"
      }
    }
  }
}