{
  "address": "0x81A647406954d124973b62e1Ac596f56Cd84427B",
  "abi": [
    {
      "inputs": [
        {
          "internalType": "address",
          "name": "initialOwner",
          "type": "address"
        }
      ],
      "stateMutability": "nonpayable",
      "type": "constructor"
    },
    {
      "inputs": [],
      "name": "ERC721EnumerableForbiddenBatchMint",
      "type": "error"
    },
    {
      "inputs": [
        {
          "internalType": "address",
          "name": "sender",
          "type": "address"
        },
        {
          "internalType": "uint256",
          "name": "tokenId",
          "type": "uint256"
        },
        {
          "internalType": "address",
          "name": "owner",
          "type": "address"
        }
      ],
      "name": "ERC721IncorrectOwner",
      "type": "error"
    },
    {
      "inputs": [
        {
          "internalType": "address",
          "name": "operator",
          "type": "address"
        },
        {
          "internalType": "uint256",
          "name": "tokenId",
          "type": "uint256"
        }
      ],
      "name": "ERC721InsufficientApproval",
      "type": "error"
    },
    {
      "inputs": [
        {
          "internalType": "address",
          "name": "approver",
          "type": "address"
        }
      ],
      "name": "ERC721InvalidApprover",
      "type": "error"
    },
    {
      "inputs": [
        {
          "internalType": "address",
          "name": "operator",
          "type": "address"
        }
      ],
      "name": "ERC721InvalidOperator",
      "type": "error"
    },
    {
      "inputs": [
        {
          "internalType": "address",
          "name": "owner",
          "type": "address"
        }
      ],
      "name": "ERC721InvalidOwner",
      "type": "error"
    },
    {
      "inputs": [
        {
          "internalType": "address",
          "name": "receiver",
          "type": "address"
        }
      ],
      "name": "ERC721InvalidReceiver",
      "type": "error"
    },
    {
      "inputs": [
        {
          "internalType": "address",
          "name": "sender",
          "type": "address"
        }
      ],
      "name": "ERC721InvalidSender",
      "type": "error"
    },
    {
      "inputs": [
        {
          "internalType": "uint256",
          "name": "tokenId",
          "type": "uint256"
        }
      ],
      "name": "ERC721NonexistentToken",
      "type": "error"
    },
    {
      "inputs": [
        {
          "internalType": "address",
          "name": "owner",
          "type": "address"
        },
        {
          "internalType": "uint256",
          "name": "index",
          "type": "uint256"
        }
      ],
      "name": "ERC721OutOfBoundsIndex",
      "type": "error"
    },
    {
      "inputs": [
        {
          "internalType": "address",
          "name": "owner",
          "type": "address"
        }
      ],
      "name": "OwnableInvalidOwner",
      "type": "error"
    },
    {
      "inputs": [
        {
          "internalType": "address",
          "name": "account",
          "type": "address"
        }
      ],
      "name": "OwnableUnauthorizedAccount",
      "type": "error"
    },
    {
      "anonymous": false,
      "inputs": [
        {
          "indexed": true,
          "internalType": "address",
          "name": "owner",
          "type": "address"
        },
        {
          "indexed": true,
          "internalType": "address",
          "name": "approved",
          "type": "address"
        },
        {
          "indexed": true,
          "internalType": "uint256",
          "name": "tokenId",
          "type": "uint256"
        }
      ],
      "name": "Approval",
      "type": "event"
    },
    {
      "anonymous": false,
      "inputs": [
        {
          "indexed": true,
          "internalType": "address",
          "name": "owner",
          "type": "address"
        },
        {
          "indexed": true,
          "internalType": "address",
          "name": "operator",
          "type": "address"
        },
        {
          "indexed": false,
          "internalType": "bool",
          "name": "approved",
          "type": "bool"
        }
      ],
      "name": "ApprovalForAll",
      "type": "event"
    },
    {
      "anonymous": false,
      "inputs": [
        {
          "indexed": false,
          "internalType": "uint256",
          "name": "_fromTokenId",
          "type": "uint256"
        },
        {
          "indexed": false,
          "internalType": "uint256",
          "name": "_toTokenId",
          "type": "uint256"
        }
      ],
      "name": "BatchMetadataUpdate",
      "type": "event"
    },
    {
      "anonymous": false,
      "inputs": [
        {
          "indexed": false,
          "internalType": "uint256",
          "name": "_tokenId",
          "type": "uint256"
        }
      ],
      "name": "MetadataUpdate",
      "type": "event"
    },
    {
      "anonymous": false,
      "inputs": [
        {
          "indexed": true,
          "internalType": "address",
          "name": "previousOwner",
          "type": "address"
        },
        {
          "indexed": true,
          "internalType": "address",
          "name": "newOwner",
          "type": "address"
        }
      ],
      "name": "OwnershipTransferred",
      "type": "event"
    },
    {
      "anonymous": false,
      "inputs": [
        {
          "indexed": true,
          "internalType": "address",
          "name": "from",
          "type": "address"
        },
        {
          "indexed": true,
          "internalType": "address",
          "name": "to",
          "type": "address"
        },
        {
          "indexed": true,
          "internalType": "uint256",
          "name": "tokenId",
          "type": "uint256"
        }
      ],
      "name": "Transfer",
      "type": "event"
    },
    {
      "anonymous": false,
      "inputs": [
        {
          "indexed": true,
          "internalType": "uint256",
          "name": "tokenId",
          "type": "uint256"
        },
        {
          "indexed": true,
          "internalType": "address",
          "name": "creator",
          "type": "address"
        },
        {
          "indexed": false,
          "internalType": "uint256",
          "name": "completedAt",
          "type": "uint256"
        }
      ],
      "name": "TreatCompleted",
      "type": "event"
    },
    {
      "anonymous": false,
      "inputs": [
        {
          "indexed": true,
          "internalType": "uint256",
          "name": "tokenId",
          "type": "uint256"
        },
        {
          "indexed": true,
          "internalType": "address",
          "name": "creator",
          "type": "address"
        },
        {
          "indexed": false,
          "internalType": "string",
          "name": "rarity",
          "type": "string"
        },
        {
          "indexed": false,
          "internalType": "uint256",
          "name": "ingredientCount",
          "type": "uint256"
        },
        {
          "indexed": false,
          "internalType": "uint256",
          "name": "seasonId",
          "type": "uint256"
        },
        {
          "indexed": false,
          "internalType": "string",
          "name": "treatName",
          "type": "string"
        }
      ],
      "name": "TreatCreated",
      "type": "event"
    },
    {
      "inputs": [
        {
          "internalType": "address",
          "name": "to",
          "type": "address"
        },
        {
          "internalType": "uint256",
          "name": "tokenId",
          "type": "uint256"
        }
      ],
      "name": "approve",
      "outputs": [],
      "stateMutability": "nonpayable",
      "type": "function"
    },
    {
      "inputs": [
        {
          "internalType": "address",
          "name": "owner",
          "type": "address"
        }
      ],
      "name": "balanceOf",
      "outputs": [
        {
          "internalType": "uint256",
          "name": "",
          "type": "uint256"
        }
      ],
      "stateMutability": "view",
      "type": "function"
    },
    {
      "inputs": [
        {
          "internalType": "address[]",
          "name": "recipients",
          "type": "address[]"
        },
        {
          "internalType": "string[]",
          "name": "rarities",
          "type": "string[]"
        },
        {
          "internalType": "uint256[]",
          "name": "ingredientCounts",
          "type": "uint256[]"
        },
        {
          "internalType": "uint256[]",
          "name": "playerLevels",
          "type": "uint256[]"
        },
        {
          "internalType": "uint256",
          "name": "seasonId",
          "type": "uint256"
        }
      ],
      "name": "batchMintTreats",
      "outputs": [],
      "stateMutability": "nonpayable",
      "type": "function"
    },
    {
      "inputs": [
        {
          "internalType": "uint256",
          "name": "tokenId",
          "type": "uint256"
        }
      ],
      "name": "completeTreat",
      "outputs": [],
      "stateMutability": "nonpayable",
      "type": "function"
    },
    {
      "inputs": [
        {
          "internalType": "address",
          "name": "",
          "type": "address"
        },
        {
          "internalType": "uint256",
          "name": "",
          "type": "uint256"
        }
      ],
      "name": "creatorSeasonTreats",
      "outputs": [
        {
          "internalType": "uint256",
          "name": "",
          "type": "uint256"
        }
      ],
      "stateMutability": "view",
      "type": "function"
    },
    {
      "inputs": [
        {
          "internalType": "uint256",
          "name": "tokenId",
          "type": "uint256"
        }
      ],
      "name": "getApproved",
      "outputs": [
        {
          "internalType": "address",
          "name": "",
          "type": "address"
        }
      ],
      "stateMutability": "view",
      "type": "function"
    },
    {
      "inputs": [],
      "name": "getGlobalStats",
      "outputs": [
        {
          "internalType": "uint256",
          "name": "totalTreats",
          "type": "uint256"
        },
        {
          "internalType": "uint256",
          "name": "totalCommon",
          "type": "uint256"
        },
        {
          "internalType": "uint256",
          "name": "totalRare",
          "type": "uint256"
        },
        {
          "internalType": "uint256",
          "name": "totalEpic",
          "type": "uint256"
        },
        {
          "internalType": "uint256",
          "name": "totalLegendary",
          "type": "uint256"
        }
      ],
      "stateMutability": "view",
      "type": "function"
    },
    {
      "inputs": [
        {
          "internalType": "uint256",
          "name": "seasonId",
          "type": "uint256"
        }
      ],
      "name": "getSeasonStats",
      "outputs": [
        {
          "internalType": "uint256",
          "name": "totalTreats",
          "type": "uint256"
        },
        {
          "internalType": "uint256",
          "name": "uniqueCreators",
          "type": "uint256"
        },
        {
          "internalType": "uint256",
          "name": "commonCount",
          "type": "uint256"
        },
        {
          "internalType": "uint256",
          "name": "rareCount",
          "type": "uint256"
        },
        {
          "internalType": "uint256",
          "name": "epicCount",
          "type": "uint256"
        },
        {
          "internalType": "uint256",
          "name": "legendaryCount",
          "type": "uint256"
        }
      ],
      "stateMutability": "view",
      "type": "function"
    },
    {
      "inputs": [
        {
          "internalType": "uint256",
          "name": "tokenId",
          "type": "uint256"
        }
      ],
      "name": "getTreatMetadata",
      "outputs": [
        {
          "components": [
            {
              "internalType": "string",
              "name": "rarity",
              "type": "string"
            },
            {
              "internalType": "string[]",
              "name": "ingredients",
              "type": "string[]"
            },
            {
              "internalType": "uint256",
              "name": "ingredientCount",
              "type": "uint256"
            },
            {
              "internalType": "uint256",
              "name": "playerLevel",
              "type": "uint256"
            },
            {
              "internalType": "uint256",
              "name": "seasonId",
              "type": "uint256"
            },
            {
              "internalType": "uint256",
              "name": "createdAt",
              "type": "uint256"
            },
            {
              "internalType": "address",
              "name": "creator",
              "type": "address"
            },
            {
              "internalType": "bool",
              "name": "isReady",
              "type": "bool"
            },
            {
              "internalType": "string",
              "name": "treatName",
              "type": "string"
            }
          ],
          "internalType": "struct TreatNFT.TreatMetadata",
          "name": "",
          "type": "tuple"
        }
      ],
      "stateMutability": "view",
      "type": "function"
    },
    {
      "inputs": [
        {
          "internalType": "address",
          "name": "creator",
          "type": "address"
        }
      ],
      "name": "getTreatsByCreator",
      "outputs": [
        {
          "internalType": "uint256[]",
          "name": "",
          "type": "uint256[]"
        }
      ],
      "stateMutability": "view",
      "type": "function"
    },
    {
      "inputs": [
        {
          "internalType": "string",
          "name": "rarity",
          "type": "string"
        },
        {
          "internalType": "uint256",
          "name": "offset",
          "type": "uint256"
        },
        {
          "internalType": "uint256",
          "name": "limit",
          "type": "uint256"
        }
      ],
      "name": "getTreatsByRarity",
      "outputs": [
        {
          "internalType": "uint256[]",
          "name": "",
          "type": "uint256[]"
        }
      ],
      "stateMutability": "view",
      "type": "function"
    },
    {
      "inputs": [
        {
          "internalType": "uint256",
          "name": "seasonId",
          "type": "uint256"
        },
        {
          "internalType": "uint256",
          "name": "offset",
          "type": "uint256"
        },
        {
          "internalType": "uint256",
          "name": "limit",
          "type": "uint256"
        }
      ],
      "name": "getTreatsBySeason",
      "outputs": [
        {
          "internalType": "uint256[]",
          "name": "",
          "type": "uint256[]"
        }
      ],
      "stateMutability": "view",
      "type": "function"
    },
    {
      "inputs": [
        {
          "internalType": "address",
          "name": "owner",
          "type": "address"
        },
        {
          "internalType": "address",
          "name": "operator",
          "type": "address"
        }
      ],
      "name": "isApprovedForAll",
      "outputs": [
        {
          "internalType": "bool",
          "name": "",
          "type": "bool"
        }
      ],
      "stateMutability": "view",
      "type": "function"
    },
    {
      "inputs": [
        {
          "internalType": "address",
          "name": "to",
          "type": "address"
        },
        {
          "internalType": "string",
          "name": "rarity",
          "type": "string"
        },
        {
          "internalType": "string[]",
          "name": "ingredients",
          "type": "string[]"
        },
        {
          "internalType": "uint256",
          "name": "playerLevel",
          "type": "uint256"
        },
        {
          "internalType": "uint256",
          "name": "seasonId",
          "type": "uint256"
        },
        {
          "internalType": "string",
          "name": "treatName",
          "type": "string"
        }
      ],
      "name": "mintTreat",
      "outputs": [
        {
          "internalType": "uint256",
          "name": "",
          "type": "uint256"
        }
      ],
      "stateMutability": "nonpayable",
      "type": "function"
    },
    {
      "inputs": [],
      "name": "name",
      "outputs": [
        {
          "internalType": "string",
          "name": "",
          "type": "string"
        }
      ],
      "stateMutability": "view",
      "type": "function"
    },
    {
      "inputs": [],
      "name": "owner",
      "outputs": [
        {
          "internalType": "address",
          "name": "",
          "type": "address"
        }
      ],
      "stateMutability": "view",
      "type": "function"
    },
    {
      "inputs": [
        {
          "internalType": "uint256",
          "name": "tokenId",
          "type": "uint256"
        }
      ],
      "name": "ownerOf",
      "outputs": [
        {
          "internalType": "address",
          "name": "",
          "type": "address"
        }
      ],
      "stateMutability": "view",
      "type": "function"
    },
    {
      "inputs": [
        {
          "internalType": "string",
          "name": "",
          "type": "string"
        }
      ],
      "name": "rarityTotals",
      "outputs": [
        {
          "internalType": "uint256",
          "name": "",
          "type": "uint256"
        }
      ],
      "stateMutability": "view",
      "type": "function"
    },
    {
      "inputs": [],
      "name": "renounceOwnership",
      "outputs": [],
      "stateMutability": "nonpayable",
      "type": "function"
    },
    {
      "inputs": [
        {
          "internalType": "address",
          "name": "from",
          "type": "address"
        },
        {
          "internalType": "address",
          "name": "to",
          "type": "address"
        },
        {
          "internalType": "uint256",
          "name": "tokenId",
          "type": "uint256"
        }
      ],
      "name": "safeTransferFrom",
      "outputs": [],
      "stateMutability": "nonpayable",
      "type": "function"
    },
    {
      "inputs": [
        {
          "internalType": "address",
          "name": "from",
          "type": "address"
        },
        {
          "internalType": "address",
          "name": "to",
          "type": "address"
        },
        {
          "internalType": "uint256",
          "name": "tokenId",
          "type": "uint256"
        },
        {
          "internalType": "bytes",
          "name": "data",
          "type": "bytes"
        }
      ],
      "name": "safeTransferFrom",
      "outputs": [],
      "stateMutability": "nonpayable",
      "type": "function"
    },
    {
      "inputs": [
        {
          "internalType": "uint256",
          "name": "",
          "type": "uint256"
        }
      ],
      "name": "seasonTreatCounts",
      "outputs": [
        {
          "internalType": "uint256",
          "name": "",
          "type": "uint256"
        }
      ],
      "stateMutability": "view",
      "type": "function"
    },
    {
      "inputs": [
        {
          "internalType": "address",
          "name": "operator",
          "type": "address"
        },
        {
          "internalType": "bool",
          "name": "approved",
          "type": "bool"
        }
      ],
      "name": "setApprovalForAll",
      "outputs": [],
      "stateMutability": "nonpayable",
      "type": "function"
    },
    {
      "inputs": [
        {
          "internalType": "bytes4",
          "name": "interfaceId",
          "type": "bytes4"
        }
      ],
      "name": "supportsInterface",
      "outputs": [
        {
          "internalType": "bool",
          "name": "",
          "type": "bool"
        }
      ],
      "stateMutability": "view",
      "type": "function"
    },
    {
      "inputs": [],
      "name": "symbol",
      "outputs": [
        {
          "internalType": "string",
          "name": "",
          "type": "string"
        }
      ],
      "stateMutability": "view",
      "type": "function"
    },
    {
      "inputs": [
        {
          "internalType": "uint256",
          "name": "index",
          "type": "uint256"
        }
      ],
      "name": "tokenByIndex",
      "outputs": [
        {
          "internalType": "uint256",
          "name": "",
          "type": "uint256"
        }
      ],
      "stateMutability": "view",
      "type": "function"
    },
    {
      "inputs": [
        {
          "internalType": "address",
          "name": "owner",
          "type": "address"
        },
        {
          "internalType": "uint256",
          "name": "index",
          "type": "uint256"
        }
      ],
      "name": "tokenOfOwnerByIndex",
      "outputs": [
        {
          "internalType": "uint256",
          "name": "",
          "type": "uint256"
        }
      ],
      "stateMutability": "view",
      "type": "function"
    },
    {
      "inputs": [
        {
          "internalType": "uint256",
          "name": "tokenId",
          "type": "uint256"
        }
      ],
      "name": "tokenURI",
      "outputs": [
        {
          "internalType": "string",
          "name": "",
          "type": "string"
        }
      ],
      "stateMutability": "view",
      "type": "function"
    },
    {
      "inputs": [],
      "name": "totalSupply",
      "outputs": [
        {
          "internalType": "uint256",
          "name": "",
          "type": "uint256"
        }
      ],
      "stateMutability": "view",
      "type": "function"
    },
    {
      "inputs": [
        {
          "internalType": "address",
          "name": "from",
          "type": "address"
        },
        {
          "internalType": "address",
          "name": "to",
          "type": "address"
        },
        {
          "internalType": "uint256",
          "name": "tokenId",
          "type": "uint256"
        }
      ],
      "name": "transferFrom",
      "outputs": [],
      "stateMutability": "nonpayable",
      "type": "function"
    },
    {
      "inputs": [
        {
          "internalType": "address",
          "name": "newOwner",
          "type": "address"
        }
      ],
      "name": "transferOwnership",
      "outputs": [],
      "stateMutability": "nonpayable",
      "type": "function"
    },
    {
      "inputs": [
        {
          "internalType": "uint256",
          "name": "",
          "type": "uint256"
        }
      ],
      "name": "treatMetadata",
      "outputs": [
        {
          "internalType": "string",
          "name": "rarity",
          "type": "string"
        },
        {
          "internalType": "uint256",
          "name": "ingredientCount",
          "type": "uint256"
        },
        {
          "internalType": "uint256",
          "name": "playerLevel",
          "type": "uint256"
        },
        {
          "internalType": "uint256",
          "name": "seasonId",
          "type": "uint256"
        },
        {
          "internalType": "uint256",
          "name": "createdAt",
          "type": "uint256"
        },
        {
          "internalType": "address",
          "name": "creator",
          "type": "address"
        },
        {
          "internalType": "bool",
          "name": "isReady",
          "type": "bool"
        },
        {
          "internalType": "string",
          "name": "treatName",
          "type": "string"
        }
      ],
      "stateMutability": "view",
      "type": "function"
    }
  ],
  "transactionHash": "0x72f0a5ded1159a2b544bc1f3d3d1a2c3673859360e1affd87d402c70da904897",
  "args": [
    "0x0aCD0De8A6A25E37588fF181DB97117cdb39EDB7"
  ],
  "numDeployments": 1,
  "solcInputHash": "f4135481a12e30f0c3bbada1ed1bfc3b",
  "bytecode": "0x60806040523480156200001157600080fd5b50604051620057f8380380620057f8833981810160405281019062000037919062000288565b806040518060400160405280601381526020017f446f6765466f6f64204c616220547265617473000000000000000000000000008152506040518060400160405280600581526020017f54524541540000000000000000000000000000000000000000000000000000008152508160009081620000b5919062000534565b508060019081620000c7919062000534565b505050600073ffffffffffffffffffffffffffffffffffffffff168173ffffffffffffffffffffffffffffffffffffffff16036200013f5760006040517f1e4fbdf70000000000000000000000000000000000000000000000000000000081526004016200013691906200062c565b60405180910390fd5b62000150816200015860201b60201c565b505062000649565b6000600b60009054906101000a900473ffffffffffffffffffffffffffffffffffffffff16905081600b60006101000a81548173ffffffffffffffffffffffffffffffffffffffff021916908373ffffffffffffffffffffffffffffffffffffffff1602179055508173ffffffffffffffffffffffffffffffffffffffff168173ffffffffffffffffffffffffffffffffffffffff167f8be0079c531659141344cd1fd0a4f28419497f9722a3daafe3b4186f6b6457e060405160405180910390a35050565b600080fd5b600073ffffffffffffffffffffffffffffffffffffffff82169050919050565b6000620002508262000223565b9050919050565b620002628162000243565b81146200026e57600080fd5b50565b600081519050620002828162000257565b92915050565b600060208284031215620002a157620002a06200021e565b5b6000620002b18482850162000271565b91505092915050565b600081519050919050565b7f4e487b7100000000000000000000000000000000000000000000000000000000600052604160045260246000fd5b7f4e487b7100000000000000000000000000000000000000000000000000000000600052602260045260246000fd5b600060028204905060018216806200033c57607f821691505b602082108103620003525762000351620002f4565b5b50919050565b60008190508160005260206000209050919050565b60006020601f8301049050919050565b600082821b905092915050565b600060088302620003bc7fffffffffffffffffffffffffffffffffffffffffffffffffffffffffffffffff826200037d565b620003c886836200037d565b95508019841693508086168417925050509392505050565b6000819050919050565b6000819050919050565b6000620004156200040f6200040984620003e0565b620003ea565b620003e0565b9050919050565b6000819050919050565b6200043183620003f4565b6200044962000440826200041c565b8484546200038a565b825550505050565b600090565b6200046062000451565b6200046d81848462000426565b505050565b5b8181101562000495576200048960008262000456565b60018101905062000473565b5050565b601f821115620004e457620004ae8162000358565b620004b9846200036d565b81016020851015620004c9578190505b620004e1620004d8856200036d565b83018262000472565b50505b505050565b600082821c905092915050565b60006200050960001984600802620004e9565b1980831691505092915050565b6000620005248383620004f6565b9150826002028217905092915050565b6200053f82620002ba565b67ffffffffffffffff8111156200055b576200055a620002c5565b5b62000567825462000323565b6200057482828562000499565b600060209050601f831160018114620005ac576000841562000597578287015190505b620005a3858262000516565b86555062000613565b601f198416620005bc8662000358565b60005b82811015620005e657848901518255600182019150602085019450602081019050620005bf565b8683101562000606578489015162000602601f891682620004f6565b8355505b6001600288020188555050505b505050505050565b620006268162000243565b82525050565b60006020820190506200064360008301846200061b565b92915050565b61519f80620006596000396000f3fe608060405234801561001057600080fd5b50600436106101f05760003560e01c80636b4169c31161010f578063b88d4fde116100a2578063d66756fd11610071578063d66756fd1461062d578063e985e9c514610664578063f2fde38b14610694578063ff3adbe8146106b0576101f0565b8063b88d4fde14610581578063c1a2decd1461059d578063c87b56dd146105cd578063cfdac30e146105fd576101f0565b80638da5cb5b116100de5780638da5cb5b1461050d57806395d89b411461052b578063a1f543ff14610549578063a22cb46514610565576101f0565b80636b4169c31461048157806370a08231146104a3578063715018a6146104d35780638ae329ef146104dd576101f0565b80633c39ffae116101875780635a037f96116101565780635a037f96146103d5578063614fd001146103f15780636352211e146104215780636926587114610451576101f0565b80633c39ffae1461032957806342842e0e146103595780634d0ae9e7146103755780634f6ccce7146103a5576101f0565b806318160ddd116101c357806318160ddd1461028f57806323b872dd146102ad5780632b95c6f6146102c95780632f745c59146102f9576101f0565b806301ffc9a7146101f557806306fdde0314610225578063081812fc14610243578063095ea7b314610273575b600080fd5b61020f600480360381019061020a919061382d565b6106e5565b60405161021c9190613875565b60405180910390f35b61022d6106f7565b60405161023a9190613920565b60405180910390f35b61025d60048036038101906102589190613978565b610789565b60405161026a91906139e6565b60405180910390f35b61028d60048036038101906102889190613a2d565b6107a5565b005b6102976107bb565b6040516102a49190613a7c565b60405180910390f35b6102c760048036038101906102c29190613a97565b6107c8565b005b6102e360048036038101906102de9190613978565b6108ca565b6040516102f09190613a7c565b60405180910390f35b610313600480360381019061030e9190613a2d565b6108e2565b6040516103209190613a7c565b60405180910390f35b610343600480360381019061033e9190613a2d565b61098b565b6040516103509190613a7c565b60405180910390f35b610373600480360381019061036e9190613a97565b6109b0565b005b61038f600480360381019061038a9190613d05565b6109d0565b60405161039c9190613a7c565b60405180910390f35b6103bf60048036038101906103ba9190613978565b610c6f565b6040516103cc9190613a7c565b60405180910390f35b6103ef60048036038101906103ea9190613f6c565b610ce5565b005b61040b60048036038101906104069190614057565b6110db565b6040516104189190614184565b60405180910390f35b61043b60048036038101906104369190613978565b611250565b60405161044891906139e6565b60405180910390f35b61046b600480360381019061046691906141a6565b611262565b6040516104789190613a7c565b60405180910390f35b610489611290565b60405161049a9594939291906141ef565b60405180910390f35b6104bd60048036038101906104b89190614242565b611325565b6040516104ca9190613a7c565b60405180910390f35b6104db6113df565b005b6104f760048036038101906104f29190613978565b6113f3565b604051610504919061446c565b60405180910390f35b61051561172e565b60405161052291906139e6565b60405180910390f35b610533611758565b6040516105409190613920565b60405180910390f35b610563600480360381019061055e9190613978565b6117ea565b005b61057f600480360381019061057a91906144ba565b611984565b005b61059b6004803603810190610596919061459b565b61199a565b005b6105b760048036038101906105b29190614242565b6119bf565b6040516105c49190614184565b60405180910390f35b6105e760048036038101906105e29190613978565b611a67565b6040516105f49190613920565b60405180910390f35b6106176004803603810190610612919061461e565b611a79565b6040516106249190614184565b60405180910390f35b61064760048036038101906106429190613978565b611bb8565b60405161065b989796959493929190614671565b60405180910390f35b61067e600480360381019061067991906146fd565b611d3d565b60405161068b9190613875565b60405180910390f35b6106ae60048036038101906106a99190614242565b611dd1565b005b6106ca60048036038101906106c59190613978565b611e57565b6040516106dc9695949392919061473d565b60405180910390f35b60006106f0826120bd565b9050919050565b606060008054610706906147cd565b80601f0160208091040260200160405190810160405280929190818152602001828054610732906147cd565b801561077f5780601f106107545761010080835404028352916020019161077f565b820191906000526020600020905b81548152906001019060200180831161076257829003601f168201915b5050505050905090565b60006107948261211e565b5061079e826121a6565b9050919050565b6107b782826107b26121e3565b6121eb565b5050565b6000600880549050905090565b600073ffffffffffffffffffffffffffffffffffffffff168273ffffffffffffffffffffffffffffffffffffffff160361083a5760006040517f64a0ae9200000000000000000000000000000000000000000000000000000000815260040161083191906139e6565b60405180910390fd5b600061084e83836108496121e3565b6121fd565b90508373ffffffffffffffffffffffffffffffffffffffff168173ffffffffffffffffffffffffffffffffffffffff16146108c4578382826040517f64283d7b0000000000000000000000000000000000000000000000000000000081526004016108bb939291906147fe565b60405180910390fd5b50505050565b600f6020528060005260406000206000915090505481565b60006108ed83611325565b82106109325782826040517fa57d13dc000000000000000000000000000000000000000000000000000000008152600401610929929190614835565b60405180910390fd5b600660008473ffffffffffffffffffffffffffffffffffffffff1673ffffffffffffffffffffffffffffffffffffffff168152602001908152602001600020600083815260200190815260200160002054905092915050565b600e602052816000526040600020602052806000526040600020600091509150505481565b6109cb8383836040518060200160405280600081525061199a565b505050565b60006109da612213565b6000600c60008154809291906109ef9061488d565b9190505590506109ff888261229a565b604051806101200160405280888152602001878152602001875181526020018681526020018581526020014281526020018973ffffffffffffffffffffffffffffffffffffffff16815260200160001515815260200184815250600d60008381526020019081526020016000206000820151816000019081610a819190614a81565b506020820151816001019080519060200190610a9e929190613683565b5060408201518160020155606082015181600301556080820151816004015560a0820151816005015560c08201518160060160006101000a81548173ffffffffffffffffffffffffffffffffffffffff021916908373ffffffffffffffffffffffffffffffffffffffff16021790555060e08201518160060160146101000a81548160ff021916908315150217905550610100820151816007019081610b449190614a81565b50905050600e60008973ffffffffffffffffffffffffffffffffffffffff1673ffffffffffffffffffffffffffffffffffffffff16815260200190815260200160002060008581526020019081526020016000206000815480929190610ba99061488d565b9190505550600f60008581526020019081526020016000206000815480929190610bd29061488d565b9190505550601087604051610be79190614b8f565b90815260200160405180910390206000815480929190610c069061488d565b91905055508773ffffffffffffffffffffffffffffffffffffffff16817fa493c20218f53696d303615bc88b04690bbdd291c187f8abab669ae181b33b848989518888604051610c599493929190614ba6565b60405180910390a3809150509695505050505050565b6000610c796107bb565b8210610cbf576000826040517fa57d13dc000000000000000000000000000000000000000000000000000000008152600401610cb6929190614835565b60405180910390fd5b60088281548110610cd357610cd2614bf9565b5b90600052602060002001549050919050565b610ced612213565b83518551148015610cff575082518451145b8015610d0c575081518351145b610d4b576040517f08c379a0000000000000000000000000000000000000000000000000000000008152600401610d4290614c74565b60405180910390fd5b60005b85518110156110d3576000600c6000815480929190610d6c9061488d565b919050559050610d96878381518110610d8857610d87614bf9565b5b60200260200101518261229a565b60008067ffffffffffffffff811115610db257610db1613af4565b5b604051908082528060200260200182016040528015610de557816020015b6060815260200190600190039081610dd05790505b509050604051806101200160405280888581518110610e0757610e06614bf9565b5b60200260200101518152602001828152602001878581518110610e2d57610e2c614bf9565b5b60200260200101518152602001868581518110610e4d57610e4c614bf9565b5b60200260200101518152602001858152602001428152602001898581518110610e7957610e78614bf9565b5b602002602001015173ffffffffffffffffffffffffffffffffffffffff1681526020016000151581526020016040518060400160405280600b81526020017f4261746368205472656174000000000000000000000000000000000000000000815250815250600d60008481526020019081526020016000206000820151816000019081610f069190614a81565b506020820151816001019080519060200190610f23929190613683565b5060408201518160020155606082015181600301556080820151816004015560a0820151816005015560c08201518160060160006101000a81548173ffffffffffffffffffffffffffffffffffffffff021916908373ffffffffffffffffffffffffffffffffffffffff16021790555060e08201518160060160146101000a81548160ff021916908315150217905550610100820151816007019081610fc99190614a81565b50905050600e6000898581518110610fe457610fe3614bf9565b5b602002602001015173ffffffffffffffffffffffffffffffffffffffff1673ffffffffffffffffffffffffffffffffffffffff168152602001908152602001600020600085815260200190815260200160002060008154809291906110489061488d565b9190505550600f600085815260200190815260200160002060008154809291906110719061488d565b9190505550601087848151811061108b5761108a614bf9565b5b60200260200101516040516110a09190614b8f565b908152602001604051809103902060008154809291906110bf9061488d565b919050555050508080600101915050610d4e565b505050505050565b606060006110e76107bb565b90506000808590505b82811080156110fe57508482105b1561115d578680519060200120600d600083815260200190815260200160002060000160405161112e9190614d37565b60405180910390200361114a5781806111469061488d565b9250505b80806111559061488d565b9150506110f0565b5060008167ffffffffffffffff81111561117a57611179613af4565b5b6040519080825280602002602001820160405280156111a85781602001602082028036833780820191505090505b5090506000915060008690505b83811080156111c357508583105b15611242578780519060200120600d60008381526020019081526020016000206000016040516111f39190614d37565b60405180910390200361122f578082848151811061121457611213614bf9565b5b602002602001018181525050828061122b9061488d565b9350505b808061123a9061488d565b9150506111b5565b508093505050509392505050565b600061125b8261211e565b9050919050565b6010818051602081018201805184825260208301602085012081835280955050505050506000915090505481565b60008060008060006112a06107bb565b945060106040516112b090614d9a565b908152602001604051809103902054935060106040516112cf90614dfb565b908152602001604051809103902054925060106040516112ee90614e5c565b9081526020016040518091039020549150601060405161130d90614ebd565b90815260200160405180910390205490509091929394565b60008073ffffffffffffffffffffffffffffffffffffffff168273ffffffffffffffffffffffffffffffffffffffff16036113985760006040517f89c62b6400000000000000000000000000000000000000000000000000000000815260040161138f91906139e6565b60405180910390fd5b600360008373ffffffffffffffffffffffffffffffffffffffff1673ffffffffffffffffffffffffffffffffffffffff168152602001908152602001600020549050919050565b6113e7612213565b6113f160006122b8565b565b6113fb6136dc565b600073ffffffffffffffffffffffffffffffffffffffff1661141c8361237e565b73ffffffffffffffffffffffffffffffffffffffff1603611472576040517f08c379a000000000000000000000000000000000000000000000000000000000815260040161146990614f1e565b60405180910390fd5b600d6000838152602001908152602001600020604051806101200160405290816000820180546114a1906147cd565b80601f01602080910402602001604051908101604052809291908181526020018280546114cd906147cd565b801561151a5780601f106114ef5761010080835404028352916020019161151a565b820191906000526020600020905b8154815290600101906020018083116114fd57829003601f168201915b5050505050815260200160018201805480602002602001604051908101604052809291908181526020016000905b828210156115f4578382906000526020600020018054611567906147cd565b80601f0160208091040260200160405190810160405280929190818152602001828054611593906147cd565b80156115e05780601f106115b5576101008083540402835291602001916115e0565b820191906000526020600020905b8154815290600101906020018083116115c357829003601f168201915b505050505081526020019060010190611548565b505050508152602001600282015481526020016003820154815260200160048201548152602001600582015481526020016006820160009054906101000a900473ffffffffffffffffffffffffffffffffffffffff1673ffffffffffffffffffffffffffffffffffffffff1673ffffffffffffffffffffffffffffffffffffffff1681526020016006820160149054906101000a900460ff161515151581526020016007820180546116a5906147cd565b80601f01602080910402602001604051908101604052809291908181526020018280546116d1906147cd565b801561171e5780601f106116f35761010080835404028352916020019161171e565b820191906000526020600020905b81548152906001019060200180831161170157829003601f168201915b5050505050815250509050919050565b6000600b60009054906101000a900473ffffffffffffffffffffffffffffffffffffffff16905090565b606060018054611767906147cd565b80601f0160208091040260200160405190810160405280929190818152602001828054611793906147cd565b80156117e05780601f106117b5576101008083540402835291602001916117e0565b820191906000526020600020905b8154815290600101906020018083116117c357829003601f168201915b5050505050905090565b6117f2612213565b600073ffffffffffffffffffffffffffffffffffffffff166118138261237e565b73ffffffffffffffffffffffffffffffffffffffff1603611869576040517f08c379a000000000000000000000000000000000000000000000000000000000815260040161186090614f1e565b60405180910390fd5b600d600082815260200190815260200160002060060160149054906101000a900460ff16156118cd576040517f08c379a00000000000000000000000000000000000000000000000000000000081526004016118c490614fb0565b60405180910390fd5b6001600d600083815260200190815260200160002060060160146101000a81548160ff021916908315150217905550600d600082815260200190815260200160002060060160009054906101000a900473ffffffffffffffffffffffffffffffffffffffff1673ffffffffffffffffffffffffffffffffffffffff16817f88b20ebf26bee4fc3247dccce779eef0f2ffa6e13f5049e6fbe5862788a37992426040516119799190613a7c565b60405180910390a350565b61199661198f6121e3565b83836123bb565b5050565b6119a58484846107c8565b6119b96119b06121e3565b8585858561252a565b50505050565b606060006119cc83611325565b905060008167ffffffffffffffff8111156119ea576119e9613af4565b5b604051908082528060200260200182016040528015611a185781602001602082028036833780820191505090505b50905060005b82811015611a5c57611a3085826108e2565b828281518110611a4357611a42614bf9565b5b6020026020010181815250508080600101915050611a1e565b508092505050919050565b6060611a72826126db565b9050919050565b60606000611a856107bb565b90506000808590505b8281108015611a9c57508482105b15611ae05786600d60008381526020019081526020016000206004015403611acd578180611ac99061488d565b9250505b8080611ad89061488d565b915050611a8e565b5060008167ffffffffffffffff811115611afd57611afc613af4565b5b604051908082528060200260200182016040528015611b2b5781602001602082028036833780820191505090505b5090506000915060008690505b8381108015611b4657508583105b15611baa5787600d60008381526020019081526020016000206004015403611b975780828481518110611b7c57611b7b614bf9565b5b6020026020010181815250508280611b939061488d565b9350505b8080611ba29061488d565b915050611b38565b508093505050509392505050565b600d602052806000526040600020600091509050806000018054611bdb906147cd565b80601f0160208091040260200160405190810160405280929190818152602001828054611c07906147cd565b8015611c545780601f10611c2957610100808354040283529160200191611c54565b820191906000526020600020905b815481529060010190602001808311611c3757829003601f168201915b5050505050908060020154908060030154908060040154908060050154908060060160009054906101000a900473ffffffffffffffffffffffffffffffffffffffff16908060060160149054906101000a900460ff1690806007018054611cba906147cd565b80601f0160208091040260200160405190810160405280929190818152602001828054611ce6906147cd565b8015611d335780601f10611d0857610100808354040283529160200191611d33565b820191906000526020600020905b815481529060010190602001808311611d1657829003601f168201915b5050505050905088565b6000600560008473ffffffffffffffffffffffffffffffffffffffff1673ffffffffffffffffffffffffffffffffffffffff16815260200190815260200160002060008373ffffffffffffffffffffffffffffffffffffffff1673ffffffffffffffffffffffffffffffffffffffff16815260200190815260200160002060009054906101000a900460ff16905092915050565b611dd9612213565b600073ffffffffffffffffffffffffffffffffffffffff168173ffffffffffffffffffffffffffffffffffffffff1603611e4b5760006040517f1e4fbdf7000000000000000000000000000000000000000000000000000000008152600401611e4291906139e6565b60405180910390fd5b611e54816122b8565b50565b6000806000806000806000611e6a6107bb565b905060005b818110156120af5788600d600083815260200190815260200160002060040154036120a2578780611e9f9061488d565b9850506040518060400160405280600681526020017f436f6d6d6f6e000000000000000000000000000000000000000000000000000081525080519060200120600d6000838152602001908152602001600020600001604051611f029190614d37565b604051809103902003611f22578580611f1a9061488d565b9650506120a1565b6040518060400160405280600481526020017f526172650000000000000000000000000000000000000000000000000000000081525080519060200120600d6000838152602001908152602001600020600001604051611f829190614d37565b604051809103902003611fa2578480611f9a9061488d565b9550506120a0565b6040518060400160405280600481526020017f457069630000000000000000000000000000000000000000000000000000000081525080519060200120600d60008381526020019081526020016000206000016040516120029190614d37565b60405180910390200361202257838061201a9061488d565b94505061209f565b6040518060400160405280600981526020017f4c6567656e64617279000000000000000000000000000000000000000000000081525080519060200120600d60008381526020019081526020016000206000016040516120829190614d37565b60405180910390200361209e57828061209a9061488d565b9350505b5b5b5b5b8080600101915050611e6f565b508695505091939550919395565b6000634906490660e01b7bffffffffffffffffffffffffffffffffffffffffffffffffffffffff1916827bffffffffffffffffffffffffffffffffffffffffffffffffffffffff191614806121175750612116826127ee565b5b9050919050565b60008061212a8361237e565b9050600073ffffffffffffffffffffffffffffffffffffffff168173ffffffffffffffffffffffffffffffffffffffff160361219d57826040517f7e2732890000000000000000000000000000000000000000000000000000000081526004016121949190613a7c565b60405180910390fd5b80915050919050565b60006004600083815260200190815260200160002060009054906101000a900473ffffffffffffffffffffffffffffffffffffffff169050919050565b600033905090565b6121f88383836001612868565b505050565b600061220a848484612a2d565b90509392505050565b61221b6121e3565b73ffffffffffffffffffffffffffffffffffffffff1661223961172e565b73ffffffffffffffffffffffffffffffffffffffff16146122985761225c6121e3565b6040517f118cdaa700000000000000000000000000000000000000000000000000000000815260040161228f91906139e6565b60405180910390fd5b565b6122b4828260405180602001604052806000815250612b4a565b5050565b6000600b60009054906101000a900473ffffffffffffffffffffffffffffffffffffffff16905081600b60006101000a81548173ffffffffffffffffffffffffffffffffffffffff021916908373ffffffffffffffffffffffffffffffffffffffff1602179055508173ffffffffffffffffffffffffffffffffffffffff168173ffffffffffffffffffffffffffffffffffffffff167f8be0079c531659141344cd1fd0a4f28419497f9722a3daafe3b4186f6b6457e060405160405180910390a35050565b60006002600083815260200190815260200160002060009054906101000a900473ffffffffffffffffffffffffffffffffffffffff169050919050565b600073ffffffffffffffffffffffffffffffffffffffff168273ffffffffffffffffffffffffffffffffffffffff160361242c57816040517f5b08ba1800000000000000000000000000000000000000000000000000000000815260040161242391906139e6565b60405180910390fd5b80600560008573ffffffffffffffffffffffffffffffffffffffff1673ffffffffffffffffffffffffffffffffffffffff16815260200190815260200160002060008473ffffffffffffffffffffffffffffffffffffffff1673ffffffffffffffffffffffffffffffffffffffff16815260200190815260200160002060006101000a81548160ff0219169083151502179055508173ffffffffffffffffffffffffffffffffffffffff168373ffffffffffffffffffffffffffffffffffffffff167f17307eab39ab6107e8899845ad3d59bd9653f200f220920489ca2b5937696c318360405161251d9190613875565b60405180910390a3505050565b60008373ffffffffffffffffffffffffffffffffffffffff163b11156126d4578273ffffffffffffffffffffffffffffffffffffffff1663150b7a02868685856040518563ffffffff1660e01b81526004016125899493929190615025565b6020604051808303816000875af19250505080156125c557506040513d601f19601f820116820180604052508101906125c29190615086565b60015b612649573d80600081146125f5576040519150601f19603f3d011682016040523d82523d6000602084013e6125fa565b606091505b50600081510361264157836040517f64a0ae9200000000000000000000000000000000000000000000000000000000815260040161263891906139e6565b60405180910390fd5b805181602001fd5b63150b7a0260e01b7bffffffffffffffffffffffffffffffffffffffffffffffffffffffff1916817bffffffffffffffffffffffffffffffffffffffffffffffffffffffff1916146126d257836040517f64a0ae920000000000000000000000000000000000000000000000000000000081526004016126c991906139e6565b60405180910390fd5b505b5050505050565b60606126e68261211e565b506000600a60008481526020019081526020016000208054612707906147cd565b80601f0160208091040260200160405190810160405280929190818152602001828054612733906147cd565b80156127805780601f1061275557610100808354040283529160200191612780565b820191906000526020600020905b81548152906001019060200180831161276357829003601f168201915b505050505090506000612791612b6e565b905060008151036127a65781925050506127e9565b6000825111156127db5780826040516020016127c39291906150b3565b604051602081830303815290604052925050506127e9565b6127e484612b85565b925050505b919050565b60007f780e9d63000000000000000000000000000000000000000000000000000000007bffffffffffffffffffffffffffffffffffffffffffffffffffffffff1916827bffffffffffffffffffffffffffffffffffffffffffffffffffffffff19161480612861575061286082612bee565b5b9050919050565b80806128a15750600073ffffffffffffffffffffffffffffffffffffffff168273ffffffffffffffffffffffffffffffffffffffff1614155b156129d55760006128b18461211e565b9050600073ffffffffffffffffffffffffffffffffffffffff168373ffffffffffffffffffffffffffffffffffffffff161415801561291c57508273ffffffffffffffffffffffffffffffffffffffff168173ffffffffffffffffffffffffffffffffffffffff1614155b801561292f575061292d8184611d3d565b155b1561297157826040517fa9fbf51f00000000000000000000000000000000000000000000000000000000815260040161296891906139e6565b60405180910390fd5b81156129d357838573ffffffffffffffffffffffffffffffffffffffff168273ffffffffffffffffffffffffffffffffffffffff167f8c5be1e5ebec7d5bd14f71427d1e84f3dd0314c0f7b2291e5b200ac8c7c3b92560405160405180910390a45b505b836004600085815260200190815260200160002060006101000a81548173ffffffffffffffffffffffffffffffffffffffff021916908373ffffffffffffffffffffffffffffffffffffffff16021790555050505050565b600080612a3b858585612cd0565b9050600073ffffffffffffffffffffffffffffffffffffffff168173ffffffffffffffffffffffffffffffffffffffff1603612a7f57612a7a84612eea565b612abe565b8473ffffffffffffffffffffffffffffffffffffffff168173ffffffffffffffffffffffffffffffffffffffff1614612abd57612abc8185612f33565b5b5b600073ffffffffffffffffffffffffffffffffffffffff168573ffffffffffffffffffffffffffffffffffffffff1603612b0057612afb8461301e565b612b3f565b8473ffffffffffffffffffffffffffffffffffffffff168173ffffffffffffffffffffffffffffffffffffffff1614612b3e57612b3d85856130ef565b5b5b809150509392505050565b612b54838361317a565b612b69612b5f6121e3565b600085858561252a565b505050565b606060405180602001604052806000815250905090565b6060612b908261211e565b506000612b9b612b6e565b90506000815111612bbb5760405180602001604052806000815250612be6565b80612bc584613273565b604051602001612bd69291906150b3565b6040516020818303038152906040525b915050919050565b60007f80ac58cd000000000000000000000000000000000000000000000000000000007bffffffffffffffffffffffffffffffffffffffffffffffffffffffff1916827bffffffffffffffffffffffffffffffffffffffffffffffffffffffff19161480612cb957507f5b5e139f000000000000000000000000000000000000000000000000000000007bffffffffffffffffffffffffffffffffffffffffffffffffffffffff1916827bffffffffffffffffffffffffffffffffffffffffffffffffffffffff1916145b80612cc95750612cc882613341565b5b9050919050565b600080612cdc8461237e565b9050600073ffffffffffffffffffffffffffffffffffffffff168373ffffffffffffffffffffffffffffffffffffffff1614612d1e57612d1d8184866133ab565b5b600073ffffffffffffffffffffffffffffffffffffffff168173ffffffffffffffffffffffffffffffffffffffff1614612daf57612d60600085600080612868565b6001600360008373ffffffffffffffffffffffffffffffffffffffff1673ffffffffffffffffffffffffffffffffffffffff168152602001908152602001600020600082825403925050819055505b600073ffffffffffffffffffffffffffffffffffffffff168573ffffffffffffffffffffffffffffffffffffffff1614612e32576001600360008773ffffffffffffffffffffffffffffffffffffffff1673ffffffffffffffffffffffffffffffffffffffff168152602001908152602001600020600082825401925050819055505b846002600086815260200190815260200160002060006101000a81548173ffffffffffffffffffffffffffffffffffffffff021916908373ffffffffffffffffffffffffffffffffffffffff160217905550838573ffffffffffffffffffffffffffffffffffffffff168273ffffffffffffffffffffffffffffffffffffffff167fddf252ad1be2c89b69c2b068fc378daa952ba7f163c4a11628f55a4df523b3ef60405160405180910390a4809150509392505050565b6008805490506009600083815260200190815260200160002081905550600881908060018154018082558091505060019003906000526020600020016000909190919091505550565b6000612f3e83611325565b90506000600760008481526020019081526020016000205490506000600660008673ffffffffffffffffffffffffffffffffffffffff1673ffffffffffffffffffffffffffffffffffffffff1681526020019081526020016000209050828214612fea5760008160008581526020019081526020016000205490508082600085815260200190815260200160002081905550826007600083815260200190815260200160002081905550505b6007600085815260200190815260200160002060009055806000848152602001908152602001600020600090555050505050565b6000600160088054905061303291906150d7565b905060006009600084815260200190815260200160002054905060006008838154811061306257613061614bf9565b5b90600052602060002001549050806008838154811061308457613083614bf9565b5b9060005260206000200181905550816009600083815260200190815260200160002081905550600960008581526020019081526020016000206000905560088054806130d3576130d261510b565b5b6001900381819060005260206000200160009055905550505050565b600060016130fc84611325565b61310691906150d7565b905081600660008573ffffffffffffffffffffffffffffffffffffffff1673ffffffffffffffffffffffffffffffffffffffff168152602001908152602001600020600083815260200190815260200160002081905550806007600084815260200190815260200160002081905550505050565b600073ffffffffffffffffffffffffffffffffffffffff168273ffffffffffffffffffffffffffffffffffffffff16036131ec5760006040517f64a0ae920000000000000000000000000000000000000000000000000000000081526004016131e391906139e6565b60405180910390fd5b60006131fa838360006121fd565b9050600073ffffffffffffffffffffffffffffffffffffffff168173ffffffffffffffffffffffffffffffffffffffff161461326e5760006040517f73c6ac6e00000000000000000000000000000000000000000000000000000000815260040161326591906139e6565b60405180910390fd5b505050565b6060600060016132828461346f565b01905060008167ffffffffffffffff8111156132a1576132a0613af4565b5b6040519080825280601f01601f1916602001820160405280156132d35781602001600182028036833780820191505090505b509050600082602001820190505b600115613336578080600190039150507f3031323334353637383961626364656600000000000000000000000000000000600a86061a8153600a858161332a5761332961513a565b5b049450600085036132e1575b819350505050919050565b60007f01ffc9a7000000000000000000000000000000000000000000000000000000007bffffffffffffffffffffffffffffffffffffffffffffffffffffffff1916827bffffffffffffffffffffffffffffffffffffffffffffffffffffffff1916149050919050565b6133b68383836135c2565b61346a57600073ffffffffffffffffffffffffffffffffffffffff168373ffffffffffffffffffffffffffffffffffffffff160361342b57806040517f7e2732890000000000000000000000000000000000000000000000000000000081526004016134229190613a7c565b60405180910390fd5b81816040517f177e802f000000000000000000000000000000000000000000000000000000008152600401613461929190614835565b60405180910390fd5b505050565b600080600090507a184f03e93ff9f4daa797ed6e38ed64bf6a1f01000000000000000083106134cd577a184f03e93ff9f4daa797ed6e38ed64bf6a1f01000000000000000083816134c3576134c261513a565b5b0492506040810190505b6d04ee2d6d415b85acef8100000000831061350a576d04ee2d6d415b85acef81000000008381613500576134ff61513a565b5b0492506020810190505b662386f26fc10000831061353957662386f26fc10000838161352f5761352e61513a565b5b0492506010810190505b6305f5e1008310613562576305f5e10083816135585761355761513a565b5b0492506008810190505b612710831061358757612710838161357d5761357c61513a565b5b0492506004810190505b606483106135aa57606483816135a05761359f61513a565b5b0492506002810190505b600a83106135b9576001810190505b80915050919050565b60008073ffffffffffffffffffffffffffffffffffffffff168373ffffffffffffffffffffffffffffffffffffffff161415801561367a57508273ffffffffffffffffffffffffffffffffffffffff168473ffffffffffffffffffffffffffffffffffffffff16148061363b575061363a8484611d3d565b5b8061367957508273ffffffffffffffffffffffffffffffffffffffff16613661836121a6565b73ffffffffffffffffffffffffffffffffffffffff16145b5b90509392505050565b8280548282559060005260206000209081019282156136cb579160200282015b828111156136ca5782518290816136ba9190614a81565b50916020019190600101906136a3565b5b5090506136d89190613740565b5090565b604051806101200160405280606081526020016060815260200160008152602001600081526020016000815260200160008152602001600073ffffffffffffffffffffffffffffffffffffffff168152602001600015158152602001606081525090565b5b8082111561376057600081816137579190613764565b50600101613741565b5090565b508054613770906147cd565b6000825580601f1061378257506137a1565b601f0160209004906000526020600020908101906137a091906137a4565b5b50565b5b808211156137bd5760008160009055506001016137a5565b5090565b6000604051905090565b600080fd5b600080fd5b60007fffffffff0000000000000000000000000000000000000000000000000000000082169050919050565b61380a816137d5565b811461381557600080fd5b50565b60008135905061382781613801565b92915050565b600060208284031215613843576138426137cb565b5b600061385184828501613818565b91505092915050565b60008115159050919050565b61386f8161385a565b82525050565b600060208201905061388a6000830184613866565b92915050565b600081519050919050565b600082825260208201905092915050565b60005b838110156138ca5780820151818401526020810190506138af565b60008484015250505050565b6000601f19601f8301169050919050565b60006138f282613890565b6138fc818561389b565b935061390c8185602086016138ac565b613915816138d6565b840191505092915050565b6000602082019050818103600083015261393a81846138e7565b905092915050565b6000819050919050565b61395581613942565b811461396057600080fd5b50565b6000813590506139728161394c565b92915050565b60006020828403121561398e5761398d6137cb565b5b600061399c84828501613963565b91505092915050565b600073ffffffffffffffffffffffffffffffffffffffff82169050919050565b60006139d0826139a5565b9050919050565b6139e0816139c5565b82525050565b60006020820190506139fb60008301846139d7565b92915050565b613a0a816139c5565b8114613a1557600080fd5b50565b600081359050613a2781613a01565b92915050565b60008060408385031215613a4457613a436137cb565b5b6000613a5285828601613a18565b9250506020613a6385828601613963565b9150509250929050565b613a7681613942565b82525050565b6000602082019050613a916000830184613a6d565b92915050565b600080600060608486031215613ab057613aaf6137cb565b5b6000613abe86828701613a18565b9350506020613acf86828701613a18565b9250506040613ae086828701613963565b9150509250925092565b600080fd5b600080fd5b7f4e487b7100000000000000000000000000000000000000000000000000000000600052604160045260246000fd5b613b2c826138d6565b810181811067ffffffffffffffff82111715613b4b57613b4a613af4565b5b80604052505050565b6000613b5e6137c1565b9050613b6a8282613b23565b919050565b600067ffffffffffffffff821115613b8a57613b89613af4565b5b613b93826138d6565b9050602081019050919050565b82818337600083830152505050565b6000613bc2613bbd84613b6f565b613b54565b905082815260208101848484011115613bde57613bdd613aef565b5b613be9848285613ba0565b509392505050565b600082601f830112613c0657613c05613aea565b5b8135613c16848260208601613baf565b91505092915050565b600067ffffffffffffffff821115613c3a57613c39613af4565b5b602082029050602081019050919050565b600080fd5b6000613c63613c5e84613c1f565b613b54565b90508083825260208201905060208402830185811115613c8657613c85613c4b565b5b835b81811015613ccd57803567ffffffffffffffff811115613cab57613caa613aea565b5b808601613cb88982613bf1565b85526020850194505050602081019050613c88565b5050509392505050565b600082601f830112613cec57613ceb613aea565b5b8135613cfc848260208601613c50565b91505092915050565b60008060008060008060c08789031215613d2257613d216137cb565b5b6000613d3089828a01613a18565b965050602087013567ffffffffffffffff811115613d5157613d506137d0565b5b613d5d89828a01613bf1565b955050604087013567ffffffffffffffff811115613d7e57613d7d6137d0565b5b613d8a89828a01613cd7565b9450506060613d9b89828a01613963565b9350506080613dac89828a01613963565b92505060a087013567ffffffffffffffff811115613dcd57613dcc6137d0565b5b613dd989828a01613bf1565b9150509295509295509295565b600067ffffffffffffffff821115613e0157613e00613af4565b5b602082029050602081019050919050565b6000613e25613e2084613de6565b613b54565b90508083825260208201905060208402830185811115613e4857613e47613c4b565b5b835b81811015613e715780613e5d8882613a18565b845260208401935050602081019050613e4a565b5050509392505050565b600082601f830112613e9057613e8f613aea565b5b8135613ea0848260208601613e12565b91505092915050565b600067ffffffffffffffff821115613ec457613ec3613af4565b5b602082029050602081019050919050565b6000613ee8613ee384613ea9565b613b54565b90508083825260208201905060208402830185811115613f0b57613f0a613c4b565b5b835b81811015613f345780613f208882613963565b845260208401935050602081019050613f0d565b5050509392505050565b600082601f830112613f5357613f52613aea565b5b8135613f63848260208601613ed5565b91505092915050565b600080600080600060a08688031215613f8857613f876137cb565b5b600086013567ffffffffffffffff811115613fa657613fa56137d0565b5b613fb288828901613e7b565b955050602086013567ffffffffffffffff811115613fd357613fd26137d0565b5b613fdf88828901613cd7565b945050604086013567ffffffffffffffff81111561400057613fff6137d0565b5b61400c88828901613f3e565b935050606086013567ffffffffffffffff81111561402d5761402c6137d0565b5b61403988828901613f3e565b925050608061404a88828901613963565b9150509295509295909350565b6000806000606084860312156140705761406f6137cb565b5b600084013567ffffffffffffffff81111561408e5761408d6137d0565b5b61409a86828701613bf1565b93505060206140ab86828701613963565b92505060406140bc86828701613963565b9150509250925092565b600081519050919050565b600082825260208201905092915050565b6000819050602082019050919050565b6140fb81613942565b82525050565b600061410d83836140f2565b60208301905092915050565b6000602082019050919050565b6000614131826140c6565b61413b81856140d1565b9350614146836140e2565b8060005b8381101561417757815161415e8882614101565b975061416983614119565b92505060018101905061414a565b5085935050505092915050565b6000602082019050818103600083015261419e8184614126565b905092915050565b6000602082840312156141bc576141bb6137cb565b5b600082013567ffffffffffffffff8111156141da576141d96137d0565b5b6141e684828501613bf1565b91505092915050565b600060a0820190506142046000830188613a6d565b6142116020830187613a6d565b61421e6040830186613a6d565b61422b6060830185613a6d565b6142386080830184613a6d565b9695505050505050565b600060208284031215614258576142576137cb565b5b600061426684828501613a18565b91505092915050565b600082825260208201905092915050565b600061428b82613890565b614295818561426f565b93506142a58185602086016138ac565b6142ae816138d6565b840191505092915050565b600081519050919050565b600082825260208201905092915050565b6000819050602082019050919050565b60006142f18383614280565b905092915050565b6000602082019050919050565b6000614311826142b9565b61431b81856142c4565b93508360208202850161432d856142d5565b8060005b85811015614369578484038952815161434a85826142e5565b9450614355836142f9565b925060208a01995050600181019050614331565b50829750879550505050505092915050565b614384816139c5565b82525050565b6143938161385a565b82525050565b60006101208301600083015184820360008601526143b78282614280565b915050602083015184820360208601526143d18282614306565b91505060408301516143e660408601826140f2565b5060608301516143f960608601826140f2565b50608083015161440c60808601826140f2565b5060a083015161441f60a08601826140f2565b5060c083015161443260c086018261437b565b5060e083015161444560e086018261438a565b5061010083015184820361010086015261445f8282614280565b9150508091505092915050565b600060208201905081810360008301526144868184614399565b905092915050565b6144978161385a565b81146144a257600080fd5b50565b6000813590506144b48161448e565b92915050565b600080604083850312156144d1576144d06137cb565b5b60006144df85828601613a18565b92505060206144f0858286016144a5565b9150509250929050565b600067ffffffffffffffff82111561451557614514613af4565b5b61451e826138d6565b9050602081019050919050565b600061453e614539846144fa565b613b54565b90508281526020810184848401111561455a57614559613aef565b5b614565848285613ba0565b509392505050565b600082601f83011261458257614581613aea565b5b813561459284826020860161452b565b91505092915050565b600080600080608085870312156145b5576145b46137cb565b5b60006145c387828801613a18565b94505060206145d487828801613a18565b93505060406145e587828801613963565b925050606085013567ffffffffffffffff811115614606576146056137d0565b5b6146128782880161456d565b91505092959194509250565b600080600060608486031215614637576146366137cb565b5b600061464586828701613963565b935050602061465686828701613963565b925050604061466786828701613963565b9150509250925092565b600061010082019050818103600083015261468c818b6138e7565b905061469b602083018a613a6d565b6146a86040830189613a6d565b6146b56060830188613a6d565b6146c26080830187613a6d565b6146cf60a08301866139d7565b6146dc60c0830185613866565b81810360e08301526146ee81846138e7565b90509998505050505050505050565b60008060408385031215614714576147136137cb565b5b600061472285828601613a18565b925050602061473385828601613a18565b9150509250929050565b600060c0820190506147526000830189613a6d565b61475f6020830188613a6d565b61476c6040830187613a6d565b6147796060830186613a6d565b6147866080830185613a6d565b61479360a0830184613a6d565b979650505050505050565b7f4e487b7100000000000000000000000000000000000000000000000000000000600052602260045260246000fd5b600060028204905060018216806147e557607f821691505b6020821081036147f8576147f761479e565b5b50919050565b600060608201905061481360008301866139d7565b6148206020830185613a6d565b61482d60408301846139d7565b949350505050565b600060408201905061484a60008301856139d7565b6148576020830184613a6d565b9392505050565b7f4e487b7100000000000000000000000000000000000000000000000000000000600052601160045260246000fd5b600061489882613942565b91507fffffffffffffffffffffffffffffffffffffffffffffffffffffffffffffffff82036148ca576148c961485e565b5b600182019050919050565b60008190508160005260206000209050919050565b60006020601f8301049050919050565b600082821b905092915050565b6000600883026149377fffffffffffffffffffffffffffffffffffffffffffffffffffffffffffffffff826148fa565b61494186836148fa565b95508019841693508086168417925050509392505050565b6000819050919050565b600061497e61497961497484613942565b614959565b613942565b9050919050565b6000819050919050565b61499883614963565b6149ac6149a482614985565b848454614907565b825550505050565b600090565b6149c16149b4565b6149cc81848461498f565b505050565b5b818110156149f0576149e56000826149b9565b6001810190506149d2565b5050565b601f821115614a3557614a06816148d5565b614a0f846148ea565b81016020851015614a1e578190505b614a32614a2a856148ea565b8301826149d1565b50505b505050565b600082821c905092915050565b6000614a5860001984600802614a3a565b1980831691505092915050565b6000614a718383614a47565b9150826002028217905092915050565b614a8a82613890565b67ffffffffffffffff811115614aa357614aa2613af4565b5b614aad82546147cd565b614ab88282856149f4565b600060209050601f831160018114614aeb5760008415614ad9578287015190505b614ae38582614a65565b865550614b4b565b601f198416614af9866148d5565b60005b82811015614b2157848901518255600182019150602085019450602081019050614afc565b86831015614b3e5784890151614b3a601f891682614a47565b8355505b6001600288020188555050505b505050505050565b600081905092915050565b6000614b6982613890565b614b738185614b53565b9350614b838185602086016138ac565b80840191505092915050565b6000614b9b8284614b5e565b915081905092915050565b60006080820190508181036000830152614bc081876138e7565b9050614bcf6020830186613a6d565b614bdc6040830185613a6d565b8181036060830152614bee81846138e7565b905095945050505050565b7f4e487b7100000000000000000000000000000000000000000000000000000000600052603260045260246000fd5b7f54726561744e46543a206172726179206c656e677468206d69736d6174636800600082015250565b6000614c5e601f8361389b565b9150614c6982614c28565b602082019050919050565b60006020820190508181036000830152614c8d81614c51565b9050919050565b600081905092915050565b60008190508160005260206000209050919050565b60008154614cc1816147cd565b614ccb8186614c94565b94506001821660008114614ce65760018114614cfb57614d2e565b60ff1983168652811515820286019350614d2e565b614d0485614c9f565b60005b83811015614d2657815481890152600182019150602081019050614d07565b838801955050505b50505092915050565b6000614d438284614cb4565b915081905092915050565b7f436f6d6d6f6e0000000000000000000000000000000000000000000000000000600082015250565b6000614d84600683614b53565b9150614d8f82614d4e565b600682019050919050565b6000614da582614d77565b9150819050919050565b7f5261726500000000000000000000000000000000000000000000000000000000600082015250565b6000614de5600483614b53565b9150614df082614daf565b600482019050919050565b6000614e0682614dd8565b9150819050919050565b7f4570696300000000000000000000000000000000000000000000000000000000600082015250565b6000614e46600483614b53565b9150614e5182614e10565b600482019050919050565b6000614e6782614e39565b9150819050919050565b7f4c6567656e646172790000000000000000000000000000000000000000000000600082015250565b6000614ea7600983614b53565b9150614eb282614e71565b600982019050919050565b6000614ec882614e9a565b9150819050919050565b7f54726561744e46543a20747265617420646f6573206e6f742065786973740000600082015250565b6000614f08601e8361389b565b9150614f1382614ed2565b602082019050919050565b60006020820190508181036000830152614f3781614efb565b9050919050565b7f54726561744e46543a20747265617420616c726561647920636f6d706c65746560008201527f6400000000000000000000000000000000000000000000000000000000000000602082015250565b6000614f9a60218361389b565b9150614fa582614f3e565b604082019050919050565b60006020820190508181036000830152614fc981614f8d565b9050919050565b600081519050919050565b600082825260208201905092915050565b6000614ff782614fd0565b6150018185614fdb565b93506150118185602086016138ac565b61501a816138d6565b840191505092915050565b600060808201905061503a60008301876139d7565b61504760208301866139d7565b6150546040830185613a6d565b81810360608301526150668184614fec565b905095945050505050565b60008151905061508081613801565b92915050565b60006020828403121561509c5761509b6137cb565b5b60006150aa84828501615071565b91505092915050565b60006150bf8285614b5e565b91506150cb8284614b5e565b91508190509392505050565b60006150e282613942565b91506150ed83613942565b92508282039050818111156151055761510461485e565b5b92915050565b7f4e487b7100000000000000000000000000000000000000000000000000000000600052603160045260246000fd5b7f4e487b7100000000000000000000000000000000000000000000000000000000600052601260045260246000fdfea264697066735822122088dcf52419e50d79b544f836227e60abbdfb9142811cf4424451766c6d0b5cbb64736f6c63430008180033",
  "devdoc": {
    "details": "NFT contract for DogeFood Lab treat outcomes with metadata storage",
    "errors": {
      "ERC721EnumerableForbiddenBatchMint()": [
        {
          "details": "Batch mint is not allowed."
        }
      ],
      "ERC721IncorrectOwner(address,uint256,address)": [
        {
          "details": "Indicates an error related to the ownership over a particular token. Used in transfers.",
          "params": {
            "owner": "Address of the current owner of a token.",
            "sender": "Address whose tokens are being transferred.",
            "tokenId": "Identifier number of a token."
          }
        }
      ],
      "ERC721InsufficientApproval(address,uint256)": [
        {
          "details": "Indicates a failure with the `operator`’s approval. Used in transfers.",
          "params": {
            "operator": "Address that may be allowed to operate on tokens without being their owner.",
            "tokenId": "Identifier number of a token."
          }
        }
      ],
      "ERC721InvalidApprover(address)": [
        {
          "details": "Indicates a failure with the `approver` of a token to be approved. Used in approvals.",
          "params": {
            "approver": "Address initiating an approval operation."
          }
        }
      ],
      "ERC721InvalidOperator(address)": [
        {
          "details": "Indicates a failure with the `operator` to be approved. Used in approvals.",
          "params": {
            "operator": "Address that may be allowed to operate on tokens without being their owner."
          }
        }
      ],
      "ERC721InvalidOwner(address)": [
        {
          "details": "Indicates that an address can't be an owner. For example, `address(0)` is a forbidden owner in ERC-20. Used in balance queries.",
          "params": {
            "owner": "Address of the current owner of a token."
          }
        }
      ],
      "ERC721InvalidReceiver(address)": [
        {
          "details": "Indicates a failure with the token `receiver`. Used in transfers.",
          "params": {
            "receiver": "Address to which tokens are being transferred."
          }
        }
      ],
      "ERC721InvalidSender(address)": [
        {
          "details": "Indicates a failure with the token `sender`. Used in transfers.",
          "params": {
            "sender": "Address whose tokens are being transferred."
          }
        }
      ],
      "ERC721NonexistentToken(uint256)": [
        {
          "details": "Indicates a `tokenId` whose `owner` is the zero address.",
          "params": {
            "tokenId": "Identifier number of a token."
          }
        }
      ],
      "ERC721OutOfBoundsIndex(address,uint256)": [
        {
          "details": "An `owner`'s token query was out of bounds for `index`. NOTE: The owner being `address(0)` indicates a global out of bounds index."
        }
      ],
      "OwnableInvalidOwner(address)": [
        {
          "details": "The owner is not a valid owner account. (eg. `address(0)`)"
        }
      ],
      "OwnableUnauthorizedAccount(address)": [
        {
          "details": "The caller account is not authorized to perform an operation."
        }
      ]
    },
    "events": {
      "Approval(address,address,uint256)": {
        "details": "Emitted when `owner` enables `approved` to manage the `tokenId` token."
      },
      "ApprovalForAll(address,address,bool)": {
        "details": "Emitted when `owner` enables or disables (`approved`) `operator` to manage all of its assets."
      },
      "BatchMetadataUpdate(uint256,uint256)": {
        "details": "This event emits when the metadata of a range of tokens is changed. So that the third-party platforms such as NFT market could timely update the images and related attributes of the NFTs."
      },
      "MetadataUpdate(uint256)": {
        "details": "This event emits when the metadata of a token is changed. So that the third-party platforms such as NFT market could timely update the images and related attributes of the NFT."
      },
      "Transfer(address,address,uint256)": {
        "details": "Emitted when `tokenId` token is transferred from `from` to `to`."
      }
    },
    "kind": "dev",
    "methods": {
      "approve(address,uint256)": {
        "details": "See {IERC721-approve}."
      },
      "balanceOf(address)": {
        "details": "See {IERC721-balanceOf}."
      },
      "batchMintTreats(address[],string[],uint256[],uint256[],uint256)": {
        "details": "Batch mint multiple treats (for efficiency)",
        "params": {
          "ingredientCounts": "Array of ingredient counts for each treat",
          "playerLevels": "Array of player levels for each treat",
          "rarities": "Array of rarities for each treat",
          "recipients": "Array of addresses to mint to",
          "seasonId": "Current season ID (same for all)"
        }
      },
      "completeTreat(uint256)": {
        "details": "Mark a treat as completed (finished brewing)",
        "params": {
          "tokenId": "ID of the treat to mark as completed"
        }
      },
      "getApproved(uint256)": {
        "details": "See {IERC721-getApproved}."
      },
      "getGlobalStats()": {
        "details": "Get global contract statistics",
        "returns": {
          "totalCommon": "Total common treats",
          "totalEpic": "Total epic treats",
          "totalLegendary": "Total legendary treats",
          "totalRare": "Total rare treats",
          "totalTreats": "Total number of treats ever created"
        }
      },
      "getSeasonStats(uint256)": {
        "details": "Get statistics for a specific season",
        "params": {
          "seasonId": "Season ID to get stats for"
        },
        "returns": {
          "commonCount": "Number of common treats",
          "epicCount": "Number of epic treats",
          "legendaryCount": "Number of legendary treats",
          "rareCount": "Number of rare treats",
          "totalTreats": "Total treats created in season",
          "uniqueCreators": "Number of unique creators in season"
        }
      },
      "getTreatMetadata(uint256)": {
        "details": "Get complete metadata for a treat",
        "params": {
          "tokenId": "ID of the treat"
        },
        "returns": {
          "_0": "Complete TreatMetadata struct"
        }
      },
      "getTreatsByCreator(address)": {
        "details": "Get treats by creator address",
        "params": {
          "creator": "Address of the creator"
        },
        "returns": {
          "_0": "Array of token IDs owned by the creator"
        }
      },
      "getTreatsByRarity(string,uint256,uint256)": {
        "details": "Get treats by rarity",
        "params": {
          "limit": "Maximum number of results",
          "offset": "Starting position for pagination",
          "rarity": "Rarity string to filter by"
        },
        "returns": {
          "_0": "Array of token IDs with the specified rarity"
        }
      },
      "getTreatsBySeason(uint256,uint256,uint256)": {
        "details": "Get treats by season",
        "params": {
          "limit": "Maximum number of results",
          "offset": "Starting position for pagination",
          "seasonId": "Season ID to filter by"
        },
        "returns": {
          "_0": "Array of token IDs from the specified season"
        }
      },
      "isApprovedForAll(address,address)": {
        "details": "See {IERC721-isApprovedForAll}."
      },
      "mintTreat(address,string,string[],uint256,uint256,string)": {
        "details": "Mint a new treat NFT with complete metadata",
        "params": {
          "ingredients": "Array of ingredient names used",
          "playerLevel": "Player's level when creating the treat",
          "rarity": "Rarity of the treat (\"Common\", \"Rare\", \"Epic\", \"Legendary\")",
          "seasonId": "Current season ID",
          "to": "Address to mint the NFT to",
          "treatName": "Name of the created treat"
        },
        "returns": {
          "_0": "tokenId The ID of the newly minted NFT"
        }
      },
      "name()": {
        "details": "See {IERC721Metadata-name}."
      },
      "owner()": {
        "details": "Returns the address of the current owner."
      },
      "ownerOf(uint256)": {
        "details": "See {IERC721-ownerOf}."
      },
      "renounceOwnership()": {
        "details": "Leaves the contract without owner. It will not be possible to call `onlyOwner` functions. Can only be called by the current owner. NOTE: Renouncing ownership will leave the contract without an owner, thereby disabling any functionality that is only available to the owner."
      },
      "safeTransferFrom(address,address,uint256)": {
        "details": "See {IERC721-safeTransferFrom}."
      },
      "safeTransferFrom(address,address,uint256,bytes)": {
        "details": "See {IERC721-safeTransferFrom}."
      },
      "setApprovalForAll(address,bool)": {
        "details": "See {IERC721-setApprovalForAll}."
      },
      "symbol()": {
        "details": "See {IERC721Metadata-symbol}."
      },
      "tokenByIndex(uint256)": {
        "details": "See {IERC721Enumerable-tokenByIndex}."
      },
      "tokenOfOwnerByIndex(address,uint256)": {
        "details": "See {IERC721Enumerable-tokenOfOwnerByIndex}."
      },
      "totalSupply()": {
        "details": "See {IERC721Enumerable-totalSupply}."
      },
      "transferFrom(address,address,uint256)": {
        "details": "See {IERC721-transferFrom}."
      },
      "transferOwnership(address)": {
        "details": "Transfers ownership of the contract to a new account (`newOwner`). Can only be called by the current owner."
      }
    },
    "title": "TreatNFT",
    "version": 1
  },
  "userdoc": {
    "kind": "user",
    "methods": {},
    "version": 1
  },
  "storageLayout": {
    "storage": [
      {
        "astId": 968,
        "contract": "contracts/TreatNFT.sol:TreatNFT",
        "label": "_name",
        "offset": 0,
        "slot": "0",
        "type": "t_string_storage"
      },
      {
        "astId": 970,
        "contract": "contracts/TreatNFT.sol:TreatNFT",
        "label": "_symbol",
        "offset": 0,
        "slot": "1",
        "type": "t_string_storage"
      },
      {
        "astId": 974,
        "contract": "contracts/TreatNFT.sol:TreatNFT",
        "label": "_owners",
        "offset": 0,
        "slot": "2",
        "type": "t_mapping(t_uint256,t_address)"
      },
      {
        "astId": 978,
        "contract": "contracts/TreatNFT.sol:TreatNFT",
        "label": "_balances",
        "offset": 0,
        "slot": "3",
        "type": "t_mapping(t_address,t_uint256)"
      },
      {
        "astId": 982,
        "contract": "contracts/TreatNFT.sol:TreatNFT",
        "label": "_tokenApprovals",
        "offset": 0,
        "slot": "4",
        "type": "t_mapping(t_uint256,t_address)"
      },
      {
        "astId": 988,
        "contract": "contracts/TreatNFT.sol:TreatNFT",
        "label": "_operatorApprovals",
        "offset": 0,
        "slot": "5",
        "type": "t_mapping(t_address,t_mapping(t_address,t_bool))"
      },
      {
        "astId": 2046,
        "contract": "contracts/TreatNFT.sol:TreatNFT",
        "label": "_ownedTokens",
        "offset": 0,
        "slot": "6",
        "type": "t_mapping(t_address,t_mapping(t_uint256,t_uint256))"
      },
      {
        "astId": 2050,
        "contract": "contracts/TreatNFT.sol:TreatNFT",
        "label": "_ownedTokensIndex",
        "offset": 0,
        "slot": "7",
        "type": "t_mapping(t_uint256,t_uint256)"
      },
      {
        "astId": 2053,
        "contract": "contracts/TreatNFT.sol:TreatNFT",
        "label": "_allTokens",
        "offset": 0,
        "slot": "8",
        "type": "t_array(t_uint256)dyn_storage"
      },
      {
        "astId": 2057,
        "contract": "contracts/TreatNFT.sol:TreatNFT",
        "label": "_allTokensIndex",
        "offset": 0,
        "slot": "9",
        "type": "t_mapping(t_uint256,t_uint256)"
      },
      {
        "astId": 2441,
        "contract": "contracts/TreatNFT.sol:TreatNFT",
        "label": "_tokenURIs",
        "offset": 0,
        "slot": "10",
        "type": "t_mapping(t_uint256,t_string_storage)"
      },
      {
        "astId": 8,
        "contract": "contracts/TreatNFT.sol:TreatNFT",
        "label": "_owner",
        "offset": 0,
        "slot": "11",
        "type": "t_address"
      },
      {
        "astId": 11323,
        "contract": "contracts/TreatNFT.sol:TreatNFT",
        "label": "_nextTokenId",
        "offset": 0,
        "slot": "12",
        "type": "t_uint256"
      },
      {
        "astId": 11348,
        "contract": "contracts/TreatNFT.sol:TreatNFT",
        "label": "treatMetadata",
        "offset": 0,
        "slot": "13",
        "type": "t_mapping(t_uint256,t_struct(TreatMetadata)11343_storage)"
      },
      {
        "astId": 11354,
        "contract": "contracts/TreatNFT.sol:TreatNFT",
        "label": "creatorSeasonTreats",
        "offset": 0,
        "slot": "14",
        "type": "t_mapping(t_address,t_mapping(t_uint256,t_uint256))"
      },
      {
        "astId": 11358,
        "contract": "contracts/TreatNFT.sol:TreatNFT",
        "label": "seasonTreatCounts",
        "offset": 0,
        "slot": "15",
        "type": "t_mapping(t_uint256,t_uint256)"
      },
      {
        "astId": 11362,
        "contract": "contracts/TreatNFT.sol:TreatNFT",
        "label": "rarityTotals",
        "offset": 0,
        "slot": "16",
        "type": "t_mapping(t_string_memory_ptr,t_uint256)"
      }
    ],
    "types": {
      "t_address": {
        "encoding": "inplace",
        "label": "address",
        "numberOfBytes": "20"
      },
      "t_array(t_string_storage)dyn_storage": {
        "base": "t_string_storage",
        "encoding": "dynamic_array",
        "label": "string[]",
        "numberOfBytes": "32"
      },
      "t_array(t_uint256)dyn_storage": {
        "base": "t_uint256",
        "encoding": "dynamic_array",
        "label": "uint256[]",
        "numberOfBytes": "32"
      },
      "t_bool": {
        "encoding": "inplace",
        "label": "bool",
        "numberOfBytes": "1"
      },
      "t_mapping(t_address,t_bool)": {
        "encoding": "mapping",
        "key": "t_address",
        "label": "mapping(address => bool)",
        "numberOfBytes": "32",
        "value": "t_bool"
      },
      "t_mapping(t_address,t_mapping(t_address,t_bool))": {
        "encoding": "mapping",
        "key": "t_address",
        "label": "mapping(address => mapping(address => bool))",
        "numberOfBytes": "32",
        "value": "t_mapping(t_address,t_bool)"
      },
      "t_mapping(t_address,t_mapping(t_uint256,t_uint256))": {
        "encoding": "mapping",
        "key": "t_address",
        "label": "mapping(address => mapping(uint256 => uint256))",
        "numberOfBytes": "32",
        "value": "t_mapping(t_uint256,t_uint256)"
      },
      "t_mapping(t_address,t_uint256)": {
        "encoding": "mapping",
        "key": "t_address",
        "label": "mapping(address => uint256)",
        "numberOfBytes": "32",
        "value": "t_uint256"
      },
      "t_mapping(t_string_memory_ptr,t_uint256)": {
        "encoding": "mapping",
        "key": "t_string_memory_ptr",
        "label": "mapping(string => uint256)",
        "numberOfBytes": "32",
        "value": "t_uint256"
      },
      "t_mapping(t_uint256,t_address)": {
        "encoding": "mapping",
        "key": "t_uint256",
        "label": "mapping(uint256 => address)",
        "numberOfBytes": "32",
        "value": "t_address"
      },
      "t_mapping(t_uint256,t_string_storage)": {
        "encoding": "mapping",
        "key": "t_uint256",
        "label": "mapping(uint256 => string)",
        "numberOfBytes": "32",
        "value": "t_string_storage"
      },
      "t_mapping(t_uint256,t_struct(TreatMetadata)11343_storage)": {
        "encoding": "mapping",
        "key": "t_uint256",
        "label": "mapping(uint256 => struct TreatNFT.TreatMetadata)",
        "numberOfBytes": "32",
        "value": "t_struct(TreatMetadata)11343_storage"
      },
      "t_mapping(t_uint256,t_uint256)": {
        "encoding": "mapping",
        "key": "t_uint256",
        "label": "mapping(uint256 => uint256)",
        "numberOfBytes": "32",
        "value": "t_uint256"
      },
      "t_string_memory_ptr": {
        "encoding": "bytes",
        "label": "string",
        "numberOfBytes": "32"
      },
      "t_string_storage": {
        "encoding": "bytes",
        "label": "string",
        "numberOfBytes": "32"
      },
      "t_struct(TreatMetadata)11343_storage": {
        "encoding": "inplace",
        "label": "struct TreatNFT.TreatMetadata",
        "members": [
          {
            "astId": 11325,
            "contract": "contracts/TreatNFT.sol:TreatNFT",
            "label": "rarity",
            "offset": 0,
            "slot": "0",
            "type": "t_string_storage"
          },
          {
            "astId": 11328,
            "contract": "contracts/TreatNFT.sol:TreatNFT",
            "label": "ingredients",
            "offset": 0,
            "slot": "1",
            "type": "t_array(t_string_storage)dyn_storage"
          },
          {
            "astId": 11330,
            "contract": "contracts/TreatNFT.sol:TreatNFT",
            "label": "ingredientCount",
            "offset": 0,
            "slot": "2",
            "type": "t_uint256"
          },
          {
            "astId": 11332,
            "contract": "contracts/TreatNFT.sol:TreatNFT",
            "label": "playerLevel",
            "offset": 0,
            "slot": "3",
            "type": "t_uint256"
          },
          {
            "astId": 11334,
            "contract": "contracts/TreatNFT.sol:TreatNFT",
            "label": "seasonId",
            "offset": 0,
            "slot": "4",
            "type": "t_uint256"
          },
          {
            "astId": 11336,
            "contract": "contracts/TreatNFT.sol:TreatNFT",
            "label": "createdAt",
            "offset": 0,
            "slot": "5",
            "type": "t_uint256"
          },
          {
            "astId": 11338,
            "contract": "contracts/TreatNFT.sol:TreatNFT",
            "label": "creator",
            "offset": 0,
            "slot": "6",
            "type": "t_address"
          },
          {
            "astId": 11340,
            "contract": "contracts/TreatNFT.sol:TreatNFT",
            "label": "isReady",
            "offset": 20,
            "slot": "6",
            "type": "t_bool"
          },
          {
            "astId": 11342,
            "contract": "contracts/TreatNFT.sol:TreatNFT",
            "label": "treatName",
            "offset": 0,
            "slot": "7",
            "type": "t_string_storage"
          }
        ],
        "numberOfBytes": "256"
      },
      "t_uint256": {
        "encoding": "inplace",
        "label": "uint256",
        "numberOfBytes": "32"
      }
    }
  }
}