{
  "_format": "hh-sol-artifact-1",
  "contractName": "LABToken",
  "sourceName": "contracts/LABToken.sol",
  "abi": [
    {
      "inputs": [
        {
          "internalType": "address",
          "name": "_owner",
          "type": "address"
        },
        {
          "internalType": "address",
          "name": "_rewardDistributor",
          "type": "address"
        },
        {
          "internalType": "address",
          "name": "_publicSale",
          "type": "address"
        },
        {
          "internalType": "address",
          "name": "_liquidity",
          "type": "address"
        },
        {
          "internalType": "address",
          "name": "_marketing",
          "type": "address"
        },
        {
          "internalType": "address",
          "name": "_teamVesting",
          "type": "address"
        }
      ],
      "stateMutability": "nonpayable",
      "type": "constructor"
    },
    {
      "inputs": [
        {
          "internalType": "address",
          "name": "spender",
          "type": "address"
        },
        {
          "internalType": "uint256",
          "name": "allowance",
          "type": "uint256"
        },
        {
          "internalType": "uint256",
          "name": "needed",
          "type": "uint256"
        }
      ],
      "name": "ERC20InsufficientAllowance",
      "type": "error"
    },
    {
      "inputs": [
        {
          "internalType": "address",
          "name": "sender",
          "type": "address"
        },
        {
          "internalType": "uint256",
          "name": "balance",
          "type": "uint256"
        },
        {
          "internalType": "uint256",
          "name": "needed",
          "type": "uint256"
        }
      ],
      "name": "ERC20InsufficientBalance",
      "type": "error"
    },
    {
      "inputs": [
        {
          "internalType": "address",
          "name": "approver",
          "type": "address"
        }
      ],
      "name": "ERC20InvalidApprover",
      "type": "error"
    },
    {
      "inputs": [
        {
          "internalType": "address",
          "name": "receiver",
          "type": "address"
        }
      ],
      "name": "ERC20InvalidReceiver",
      "type": "error"
    },
    {
      "inputs": [
        {
          "internalType": "address",
          "name": "sender",
          "type": "address"
        }
      ],
      "name": "ERC20InvalidSender",
      "type": "error"
    },
    {
      "inputs": [
        {
          "internalType": "address",
          "name": "spender",
          "type": "address"
        }
      ],
      "name": "ERC20InvalidSpender",
      "type": "error"
    },
    {
      "inputs": [
        {
          "internalType": "address",
          "name": "owner",
          "type": "address"
        }
      ],
      "name": "OwnableInvalidOwner",
      "type": "error"
    },
    {
      "inputs": [
        {
          "internalType": "address",
          "name": "account",
          "type": "address"
        }
      ],
      "name": "OwnableUnauthorizedAccount",
      "type": "error"
    },
    {
      "anonymous": false,
      "inputs": [
        {
          "indexed": true,
          "internalType": "address",
          "name": "owner",
          "type": "address"
        },
        {
          "indexed": true,
          "internalType": "address",
          "name": "spender",
          "type": "address"
        },
        {
          "indexed": false,
          "internalType": "uint256",
          "name": "value",
          "type": "uint256"
        }
      ],
      "name": "Approval",
      "type": "event"
    },
    {
      "anonymous": false,
      "inputs": [
        {
          "indexed": true,
          "internalType": "address",
          "name": "previousOwner",
          "type": "address"
        },
        {
          "indexed": true,
          "internalType": "address",
          "name": "newOwner",
          "type": "address"
        }
      ],
      "name": "OwnershipTransferred",
      "type": "event"
    },
    {
      "anonymous": false,
      "inputs": [
        {
          "indexed": true,
          "internalType": "address",
          "name": "newDistributor",
          "type": "address"
        }
      ],
      "name": "RewardDistributorUpdated",
      "type": "event"
    },
    {
      "anonymous": false,
      "inputs": [
        {
          "indexed": false,
          "internalType": "uint256",
          "name": "amount",
          "type": "uint256"
        }
      ],
      "name": "TeamTokensReleased",
      "type": "event"
    },
    {
      "anonymous": false,
      "inputs": [
        {
          "indexed": true,
          "internalType": "address",
          "name": "from",
          "type": "address"
        },
        {
          "indexed": true,
          "internalType": "address",
          "name": "to",
          "type": "address"
        },
        {
          "indexed": false,
          "internalType": "uint256",
          "name": "value",
          "type": "uint256"
        }
      ],
      "name": "Transfer",
      "type": "event"
    },
    {
      "inputs": [],
      "name": "COMMUNITY_ALLOCATION",
      "outputs": [
        {
          "internalType": "uint256",
          "name": "",
          "type": "uint256"
        }
      ],
      "stateMutability": "view",
      "type": "function"
    },
    {
      "inputs": [],
      "name": "LIQUIDITY_ALLOCATION",
      "outputs": [
        {
          "internalType": "uint256",
          "name": "",
          "type": "uint256"
        }
      ],
      "stateMutability": "view",
      "type": "function"
    },
    {
      "inputs": [],
      "name": "MARKETING_ALLOCATION",
      "outputs": [
        {
          "internalType": "uint256",
          "name": "",
          "type": "uint256"
        }
      ],
      "stateMutability": "view",
      "type": "function"
    },
    {
      "inputs": [],
      "name": "PUBLIC_SALE_ALLOCATION",
      "outputs": [
        {
          "internalType": "uint256",
          "name": "",
          "type": "uint256"
        }
      ],
      "stateMutability": "view",
      "type": "function"
    },
    {
      "inputs": [],
      "name": "TEAM_ALLOCATION",
      "outputs": [
        {
          "internalType": "uint256",
          "name": "",
          "type": "uint256"
        }
      ],
      "stateMutability": "view",
      "type": "function"
    },
    {
      "inputs": [],
      "name": "TOTAL_SUPPLY",
      "outputs": [
        {
          "internalType": "uint256",
          "name": "",
          "type": "uint256"
        }
      ],
      "stateMutability": "view",
      "type": "function"
    },
    {
      "inputs": [
        {
          "internalType": "address",
          "name": "owner",
          "type": "address"
        },
        {
          "internalType": "address",
          "name": "spender",
          "type": "address"
        }
      ],
      "name": "allowance",
      "outputs": [
        {
          "internalType": "uint256",
          "name": "",
          "type": "uint256"
        }
      ],
      "stateMutability": "view",
      "type": "function"
    },
    {
      "inputs": [
        {
          "internalType": "address",
          "name": "spender",
          "type": "address"
        },
        {
          "internalType": "uint256",
          "name": "value",
          "type": "uint256"
        }
      ],
      "name": "approve",
      "outputs": [
        {
          "internalType": "bool",
          "name": "",
          "type": "bool"
        }
      ],
      "stateMutability": "nonpayable",
      "type": "function"
    },
    {
      "inputs": [
        {
          "internalType": "address",
          "name": "account",
          "type": "address"
        }
      ],
      "name": "balanceOf",
      "outputs": [
        {
          "internalType": "uint256",
          "name": "",
          "type": "uint256"
        }
      ],
      "stateMutability": "view",
      "type": "function"
    },
    {
      "inputs": [],
      "name": "decimals",
      "outputs": [
        {
          "internalType": "uint8",
          "name": "",
          "type": "uint8"
        }
      ],
      "stateMutability": "view",
      "type": "function"
    },
    {
      "inputs": [],
      "name": "getReleasableAmount",
      "outputs": [
        {
          "internalType": "uint256",
          "name": "",
          "type": "uint256"
        }
      ],
      "stateMutability": "view",
      "type": "function"
    },
    {
      "inputs": [],
      "name": "name",
      "outputs": [
        {
          "internalType": "string",
          "name": "",
          "type": "string"
        }
      ],
      "stateMutability": "view",
      "type": "function"
    },
    {
      "inputs": [],
      "name": "owner",
      "outputs": [
        {
          "internalType": "address",
          "name": "",
          "type": "address"
        }
      ],
      "stateMutability": "view",
      "type": "function"
    },
    {
      "inputs": [],
      "name": "releaseTeamTokens",
      "outputs": [],
      "stateMutability": "nonpayable",
      "type": "function"
    },
    {
      "inputs": [],
      "name": "renounceOwnership",
      "outputs": [],
      "stateMutability": "nonpayable",
      "type": "function"
    },
    {
      "inputs": [],
      "name": "rewardDistributor",
      "outputs": [
        {
          "internalType": "address",
          "name": "",
          "type": "address"
        }
      ],
      "stateMutability": "view",
      "type": "function"
    },
    {
      "inputs": [
        {
          "internalType": "address",
          "name": "_rewardDistributor",
          "type": "address"
        }
      ],
      "name": "setRewardDistributor",
      "outputs": [],
      "stateMutability": "nonpayable",
      "type": "function"
    },
    {
      "inputs": [],
      "name": "symbol",
      "outputs": [
        {
          "internalType": "string",
          "name": "",
          "type": "string"
        }
      ],
      "stateMutability": "view",
      "type": "function"
    },
    {
      "inputs": [],
      "name": "teamCliffEnd",
      "outputs": [
        {
          "internalType": "uint256",
          "name": "",
          "type": "uint256"
        }
      ],
      "stateMutability": "view",
      "type": "function"
    },
    {
      "inputs": [],
      "name": "teamTokensReleased",
      "outputs": [
        {
          "internalType": "uint256",
          "name": "",
          "type": "uint256"
        }
      ],
      "stateMutability": "view",
      "type": "function"
    },
    {
      "inputs": [],
      "name": "teamVesting",
      "outputs": [
        {
          "internalType": "address",
          "name": "",
          "type": "address"
        }
      ],
      "stateMutability": "view",
      "type": "function"
    },
    {
      "inputs": [],
      "name": "teamVestingEnd",
      "outputs": [
        {
          "internalType": "uint256",
          "name": "",
          "type": "uint256"
        }
      ],
      "stateMutability": "view",
      "type": "function"
    },
    {
      "inputs": [],
      "name": "totalSupply",
      "outputs": [
        {
          "internalType": "uint256",
          "name": "",
          "type": "uint256"
        }
      ],
      "stateMutability": "view",
      "type": "function"
    },
    {
      "inputs": [
        {
          "internalType": "address",
          "name": "to",
          "type": "address"
        },
        {
          "internalType": "uint256",
          "name": "value",
          "type": "uint256"
        }
      ],
      "name": "transfer",
      "outputs": [
        {
          "internalType": "bool",
          "name": "",
          "type": "bool"
        }
      ],
      "stateMutability": "nonpayable",
      "type": "function"
    },
    {
      "inputs": [
        {
          "internalType": "address",
          "name": "from",
          "type": "address"
        },
        {
          "internalType": "address",
          "name": "to",
          "type": "address"
        },
        {
          "internalType": "uint256",
          "name": "value",
          "type": "uint256"
        }
      ],
      "name": "transferFrom",
      "outputs": [
        {
          "internalType": "bool",
          "name": "",
          "type": "bool"
        }
      ],
      "stateMutability": "nonpayable",
      "type": "function"
    },
    {
      "inputs": [
        {
          "internalType": "address",
          "name": "newOwner",
          "type": "address"
        }
      ],
      "name": "transferOwnership",
      "outputs": [],
      "stateMutability": "nonpayable",
      "type": "function"
    }
  ],
  "bytecode": "0x60806040523480156200001157600080fd5b50604051620012f7380380620012f78339810160408190526200003491620003b6565b85604051806040016040528060098152602001682620a1102a37b5b2b760b91b815250604051806040016040528060038152602001622620a160e91b8152508160039081620000849190620004dc565b506004620000938282620004dc565b5050506001600160a01b038116620000c657604051631e4fbdf760e01b8152600060048201526024015b60405180910390fd5b620000d181620001d6565b50600680546001600160a01b038088166001600160a01b031992831617909255600780549284169290911691909117905562000112426301e13380620005a8565b600881905562000127906301e13380620005a8565b6009556001600160a01b03851615620001575762000151856af330ebef7f58e6e600000062000228565b6200016e565b6200016e306af330ebef7f58e6e600000062000228565b62000185846a22bdd88fed9efc6a00000062000228565b6200019c836a22bdd88fed9efc6a00000062000228565b620001b3826a115eec47f6cf7e3500000062000228565b620001ca306a115eec47f6cf7e3500000062000228565b505050505050620005d0565b600580546001600160a01b038381166001600160a01b0319831681179093556040519116919082907f8be0079c531659141344cd1fd0a4f28419497f9722a3daafe3b4186f6b6457e090600090a35050565b6001600160a01b038216620002545760405163ec442f0560e01b815260006004820152602401620000bd565b620002626000838362000266565b5050565b6001600160a01b03831662000295578060026000828254620002899190620005a8565b90915550620003099050565b6001600160a01b03831660009081526020819052604090205481811015620002ea5760405163391434e360e21b81526001600160a01b03851660048201526024810182905260448101839052606401620000bd565b6001600160a01b03841660009081526020819052604090209082900390555b6001600160a01b038216620003275760028054829003905562000346565b6001600160a01b03821660009081526020819052604090208054820190555b816001600160a01b0316836001600160a01b03167fddf252ad1be2c89b69c2b068fc378daa952ba7f163c4a11628f55a4df523b3ef836040516200038c91815260200190565b60405180910390a3505050565b80516001600160a01b0381168114620003b157600080fd5b919050565b60008060008060008060c08789031215620003d057600080fd5b620003db8762000399565b9550620003eb6020880162000399565b9450620003fb6040880162000399565b93506200040b6060880162000399565b92506200041b6080880162000399565b91506200042b60a0880162000399565b90509295509295509295565b634e487b7160e01b600052604160045260246000fd5b600181811c908216806200046257607f821691505b6020821081036200048357634e487b7160e01b600052602260045260246000fd5b50919050565b601f821115620004d757600081815260208120601f850160051c81016020861015620004b25750805b601f850160051c820191505b81811015620004d357828155600101620004be565b5050505b505050565b81516001600160401b03811115620004f857620004f862000437565b62000510816200050984546200044d565b8462000489565b602080601f8311600181146200054857600084156200052f5750858301515b600019600386901b1c1916600185901b178555620004d3565b600085815260208120601f198616915b82811015620005795788860151825594840194600190910190840162000558565b5085821015620005985787850151600019600388901b60f8161c191681555b5050505050600190811b01905550565b80820180821115620005ca57634e487b7160e01b600052601160045260246000fd5b92915050565b610d1780620005e06000396000f3fe608060405234801561001057600080fd5b506004361061018e5760003560e01c80638e80bd39116100de578063acc2166a11610097578063dd62ed3e11610071578063dd62ed3e1461032c578063f2fde38b14610365578063f9428f381461021b578063fd99cbed146102a257600080fd5b8063acc2166a14610307578063bc4e0b041461031a578063cd8817421461032357600080fd5b80638e80bd39146102a2578063902d55a5146102b457806395d89b41146102c7578063993eb1c5146102cf578063a1809b95146102e1578063a9059cbb146102f457600080fd5b8063313ce5671161014b57806370a082311161012557806370a0823114610258578063715018a6146102815780638401b968146102895780638da5cb5b1461029157600080fd5b8063313ce5671461020c5780633dc762f01461021b578063619f3d6c1461022d57600080fd5b806306fdde0314610193578063095ea7b3146101b157806314c411c7146101d457806318160ddd146101de57806323497879146101f057806323b872dd146101f9575b600080fd5b61019b610378565b6040516101a89190610b0d565b60405180910390f35b6101c46101bf366004610b77565b61040a565b60405190151581526020016101a8565b6101dc610424565b005b6002545b6040519081526020016101a8565b6101e260085481565b6101c4610207366004610ba1565b610588565b604051601281526020016101a8565b6101e26a22bdd88fed9efc6a00000081565b600754610240906001600160a01b031681565b6040516001600160a01b0390911681526020016101a8565b6101e2610266366004610bdd565b6001600160a01b031660009081526020819052604090205490565b6101dc6105ac565b6101e26105c0565b6005546001600160a01b0316610240565b6101e26a115eec47f6cf7e3500000081565b6101e26b015b6a759f4835dc2400000081565b61019b6105cf565b6101e26af330ebef7f58e6e600000081565b6101dc6102ef366004610bdd565b6105de565b6101c4610302366004610b77565b6106c6565b600654610240906001600160a01b031681565b6101e260095481565b6101e2600a5481565b6101e261033a366004610bff565b6001600160a01b03918216600090815260016020908152604080832093909416825291909152205490565b6101dc610373366004610bdd565b6106d4565b60606003805461038790610c32565b80601f01602080910402602001604051908101604052809291908181526020018280546103b390610c32565b80156104005780601f106103d557610100808354040283529160200191610400565b820191906000526020600020905b8154815290600101906020018083116103e357829003601f168201915b5050505050905090565b600033610418818585610712565b60019150505b92915050565b6008544210156104745760405162461bcd60e51b815260206004820152601660248201527510db1a5999881c195c9a5bd9081b9bdd08195b99195960521b60448201526064015b60405180910390fd5b6a115eec47f6cf7e35000000600a54106104d05760405162461bcd60e51b815260206004820152601860248201527f416c6c207465616d20746f6b656e732072656c65617365640000000000000000604482015260640161046b565b60006104da610724565b9050600081116105235760405162461bcd60e51b81526020600482015260146024820152734e6f20746f6b656e7320746f2072656c6561736560601b604482015260640161046b565b80600a60008282546105359190610c82565b90915550506007546105529030906001600160a01b0316836107b1565b6040518181527f4856c68262aaf0ccd29dbcbf45f154ee742d5b1ee2afac2ca5606a9b656cd2569060200160405180910390a150565b600033610596858285610810565b6105a18585856107b1565b506001949350505050565b6105b461088f565b6105be60006108bc565b565b60006105ca610724565b905090565b60606004805461038790610c32565b6105e661088f565b6001600160a01b03811661062e5760405162461bcd60e51b815260206004820152600f60248201526e496e76616c6964206164647265737360881b604482015260640161046b565b6006546001600160a01b03161580156106615750306000908152602081905260409020546af330ebef7f58e6e600000011155b1561067c5761067c30826af330ebef7f58e6e60000006107b1565b600680546001600160a01b0319166001600160a01b0383169081179091556040517f15057bbec20fe352ac8931e529ade6a9ce138c954ffc87d6aa3423dd066c4acd90600090a250565b6000336104188185856107b1565b6106dc61088f565b6001600160a01b03811661070657604051631e4fbdf760e01b81526000600482015260240161046b565b61070f816108bc565b50565b61071f838383600161090e565b505050565b60006008544210156107365750600090565b6000600954421061075357506a115eec47f6cf7e3500000061079e565b60006008546009546107659190610c95565b90506000600854426107779190610c95565b90508161078f826a115eec47f6cf7e35000000610ca8565b6107999190610cbf565b925050505b600a546107ab9082610c95565b91505090565b6001600160a01b0383166107db57604051634b637e8f60e11b81526000600482015260240161046b565b6001600160a01b0382166108055760405163ec442f0560e01b81526000600482015260240161046b565b61071f8383836109e3565b6001600160a01b03838116600090815260016020908152604080832093861683529290522054600019811015610889578181101561087a57604051637dc7a0d960e11b81526001600160a01b0384166004820152602481018290526044810183905260640161046b565b6108898484848403600061090e565b50505050565b6005546001600160a01b031633146105be5760405163118cdaa760e01b815233600482015260240161046b565b600580546001600160a01b038381166001600160a01b0319831681179093556040519116919082907f8be0079c531659141344cd1fd0a4f28419497f9722a3daafe3b4186f6b6457e090600090a35050565b6001600160a01b0384166109385760405163e602df0560e01b81526000600482015260240161046b565b6001600160a01b03831661096257604051634a1406b160e11b81526000600482015260240161046b565b6001600160a01b038085166000908152600160209081526040808320938716835292905220829055801561088957826001600160a01b0316846001600160a01b03167f8c5be1e5ebec7d5bd14f71427d1e84f3dd0314c0f7b2291e5b200ac8c7c3b925846040516109d591815260200190565b60405180910390a350505050565b6001600160a01b038316610a0e578060026000828254610a039190610c82565b90915550610a809050565b6001600160a01b03831660009081526020819052604090205481811015610a615760405163391434e360e21b81526001600160a01b0385166004820152602481018290526044810183905260640161046b565b6001600160a01b03841660009081526020819052604090209082900390555b6001600160a01b038216610a9c57600280548290039055610abb565b6001600160a01b03821660009081526020819052604090208054820190555b816001600160a01b0316836001600160a01b03167fddf252ad1be2c89b69c2b068fc378daa952ba7f163c4a11628f55a4df523b3ef83604051610b0091815260200190565b60405180910390a3505050565b600060208083528351808285015260005b81811015610b3a57858101830151858201604001528201610b1e565b506000604082860101526040601f19601f8301168501019250505092915050565b80356001600160a01b0381168114610b7257600080fd5b919050565b60008060408385031215610b8a57600080fd5b610b9383610b5b565b946020939093013593505050565b600080600060608486031215610bb657600080fd5b610bbf84610b5b565b9250610bcd60208501610b5b565b9150604084013590509250925092565b600060208284031215610bef57600080fd5b610bf882610b5b565b9392505050565b60008060408385031215610c1257600080fd5b610c1b83610b5b565b9150610c2960208401610b5b565b90509250929050565b600181811c90821680610c4657607f821691505b602082108103610c6657634e487b7160e01b600052602260045260246000fd5b50919050565b634e487b7160e01b600052601160045260246000fd5b8082018082111561041e5761041e610c6c565b8181038181111561041e5761041e610c6c565b808202811582820484141761041e5761041e610c6c565b600082610cdc57634e487b7160e01b600052601260045260246000fd5b50049056fea26469706673582212203ca9ae43b951115ba1753f803cefd20c27b12a8d4cff883f6e5b099abf1ecb4464736f6c63430008140033",
  "linkReferences": {},
  "deployedLinkReferences": {}
}