{
  "_format": "hh-sol-artifact-1",
  "contractName": "RewardDistributor",
  "sourceName": "contracts/RewardDistributor.sol",
  "abi": [
    {
      "inputs": [
        {
          "internalType": "address",
          "name": "_labToken",
          "type": "address"
        },
        {
          "internalType": "address",
          "name": "_owner",
          "type": "address"
        }
      ],
      "stateMutability": "nonpayable",
      "type": "constructor"
    },
    {
      "inputs": [
        {
          "internalType": "address",
          "name": "owner",
          "type": "address"
        }
      ],
      "name": "OwnableInvalidOwner",
      "type": "error"
    },
    {
      "inputs": [
        {
          "internalType": "address",
          "name": "account",
          "type": "address"
        }
      ],
      "name": "OwnableUnauthorizedAccount",
      "type": "error"
    },
    {
      "inputs": [],
      "name": "ReentrancyGuardReentrantCall",
      "type": "error"
    },
    {
      "anonymous": false,
      "inputs": [
        {
          "indexed": true,
          "internalType": "address",
          "name": "previousOwner",
          "type": "address"
        },
        {
          "indexed": true,
          "internalType": "address",
          "name": "newOwner",
          "type": "address"
        }
      ],
      "name": "OwnershipTransferred",
      "type": "event"
    },
    {
      "anonymous": false,
      "inputs": [
        {
          "indexed": true,
          "internalType": "uint256",
          "name": "seasonId",
          "type": "uint256"
        },
        {
          "indexed": true,
          "internalType": "address",
          "name": "user",
          "type": "address"
        },
        {
          "indexed": false,
          "internalType": "uint256",
          "name": "amount",
          "type": "uint256"
        }
      ],
      "name": "RewardClaimed",
      "type": "event"
    },
    {
      "anonymous": false,
      "inputs": [
        {
          "indexed": true,
          "internalType": "uint256",
          "name": "seasonId",
          "type": "uint256"
        },
        {
          "indexed": false,
          "internalType": "uint256",
          "name": "unclaimedAmount",
          "type": "uint256"
        }
      ],
      "name": "SeasonClosed",
      "type": "event"
    },
    {
      "anonymous": false,
      "inputs": [
        {
          "indexed": true,
          "internalType": "uint256",
          "name": "seasonId",
          "type": "uint256"
        },
        {
          "indexed": false,
          "internalType": "bytes32",
          "name": "merkleRoot",
          "type": "bytes32"
        },
        {
          "indexed": false,
          "internalType": "uint256",
          "name": "startTime",
          "type": "uint256"
        },
        {
          "indexed": false,
          "internalType": "uint256",
          "name": "endTime",
          "type": "uint256"
        },
        {
          "indexed": false,
          "internalType": "uint256",
          "name": "totalRewards",
          "type": "uint256"
        }
      ],
      "name": "SeasonCreated",
      "type": "event"
    },
    {
      "anonymous": false,
      "inputs": [
        {
          "indexed": true,
          "internalType": "uint256",
          "name": "seasonId",
          "type": "uint256"
        },
        {
          "indexed": false,
          "internalType": "uint256",
          "name": "amount",
          "type": "uint256"
        }
      ],
      "name": "UnclaimedTokensRecovered",
      "type": "event"
    },
    {
      "inputs": [],
      "name": "UNCLAIMED_PERIOD",
      "outputs": [
        {
          "internalType": "uint256",
          "name": "",
          "type": "uint256"
        }
      ],
      "stateMutability": "view",
      "type": "function"
    },
    {
      "inputs": [
        {
          "internalType": "uint256",
          "name": "seasonId",
          "type": "uint256"
        },
        {
          "internalType": "uint256",
          "name": "amount",
          "type": "uint256"
        },
        {
          "internalType": "bytes32[]",
          "name": "merkleProof",
          "type": "bytes32[]"
        }
      ],
      "name": "claimReward",
      "outputs": [],
      "stateMutability": "nonpayable",
      "type": "function"
    },
    {
      "inputs": [
        {
          "internalType": "uint256",
          "name": "seasonId",
          "type": "uint256"
        }
      ],
      "name": "closeSeason",
      "outputs": [],
      "stateMutability": "nonpayable",
      "type": "function"
    },
    {
      "inputs": [
        {
          "internalType": "bytes32",
          "name": "_merkleRoot",
          "type": "bytes32"
        },
        {
          "internalType": "uint256",
          "name": "_startTime",
          "type": "uint256"
        },
        {
          "internalType": "uint256",
          "name": "_endTime",
          "type": "uint256"
        },
        {
          "internalType": "uint256",
          "name": "_totalRewards",
          "type": "uint256"
        }
      ],
      "name": "createSeason",
      "outputs": [],
      "stateMutability": "nonpayable",
      "type": "function"
    },
    {
      "inputs": [],
      "name": "currentSeason",
      "outputs": [
        {
          "internalType": "uint256",
          "name": "",
          "type": "uint256"
        }
      ],
      "stateMutability": "view",
      "type": "function"
    },
    {
      "inputs": [
        {
          "internalType": "uint256",
          "name": "amount",
          "type": "uint256"
        }
      ],
      "name": "emergencyWithdraw",
      "outputs": [],
      "stateMutability": "nonpayable",
      "type": "function"
    },
    {
      "inputs": [
        {
          "internalType": "uint256",
          "name": "seasonId",
          "type": "uint256"
        },
        {
          "internalType": "address",
          "name": "user",
          "type": "address"
        }
      ],
      "name": "getClaimedAmount",
      "outputs": [
        {
          "internalType": "uint256",
          "name": "",
          "type": "uint256"
        }
      ],
      "stateMutability": "view",
      "type": "function"
    },
    {
      "inputs": [
        {
          "internalType": "uint256",
          "name": "seasonId",
          "type": "uint256"
        }
      ],
      "name": "getSeasonInfo",
      "outputs": [
        {
          "internalType": "bytes32",
          "name": "merkleRoot",
          "type": "bytes32"
        },
        {
          "internalType": "uint256",
          "name": "startTime",
          "type": "uint256"
        },
        {
          "internalType": "uint256",
          "name": "endTime",
          "type": "uint256"
        },
        {
          "internalType": "uint256",
          "name": "totalRewards",
          "type": "uint256"
        },
        {
          "internalType": "uint256",
          "name": "totalClaimed",
          "type": "uint256"
        },
        {
          "internalType": "bool",
          "name": "active",
          "type": "bool"
        }
      ],
      "stateMutability": "view",
      "type": "function"
    },
    {
      "inputs": [
        {
          "internalType": "uint256",
          "name": "seasonId",
          "type": "uint256"
        },
        {
          "internalType": "address",
          "name": "user",
          "type": "address"
        }
      ],
      "name": "hasClaimedSeason",
      "outputs": [
        {
          "internalType": "bool",
          "name": "",
          "type": "bool"
        }
      ],
      "stateMutability": "view",
      "type": "function"
    },
    {
      "inputs": [],
      "name": "labToken",
      "outputs": [
        {
          "internalType": "contract IERC20",
          "name": "",
          "type": "address"
        }
      ],
      "stateMutability": "view",
      "type": "function"
    },
    {
      "inputs": [],
      "name": "owner",
      "outputs": [
        {
          "internalType": "address",
          "name": "",
          "type": "address"
        }
      ],
      "stateMutability": "view",
      "type": "function"
    },
    {
      "inputs": [],
      "name": "renounceOwnership",
      "outputs": [],
      "stateMutability": "nonpayable",
      "type": "function"
    },
    {
      "inputs": [
        {
          "internalType": "uint256",
          "name": "",
          "type": "uint256"
        }
      ],
      "name": "seasons",
      "outputs": [
        {
          "internalType": "bytes32",
          "name": "merkleRoot",
          "type": "bytes32"
        },
        {
          "internalType": "uint256",
          "name": "startTime",
          "type": "uint256"
        },
        {
          "internalType": "uint256",
          "name": "endTime",
          "type": "uint256"
        },
        {
          "internalType": "uint256",
          "name": "totalRewards",
          "type": "uint256"
        },
        {
          "internalType": "bool",
          "name": "active",
          "type": "bool"
        },
        {
          "internalType": "uint256",
          "name": "totalClaimed",
          "type": "uint256"
        }
      ],
      "stateMutability": "view",
      "type": "function"
    },
    {
      "inputs": [
        {
          "internalType": "address",
          "name": "newOwner",
          "type": "address"
        }
      ],
      "name": "transferOwnership",
      "outputs": [],
      "stateMutability": "nonpayable",
      "type": "function"
    }
  ],
  "bytecode": "0x60a060405234801561001057600080fd5b506040516110cd3803806110cd83398101604081905261002f916100ea565b806001600160a01b03811661005e57604051631e4fbdf760e01b81526000600482015260240160405180910390fd5b6100678161007e565b5050600180556001600160a01b031660805261011d565b600080546001600160a01b038381166001600160a01b0319831681178455604051919092169283917f8be0079c531659141344cd1fd0a4f28419497f9722a3daafe3b4186f6b6457e09190a35050565b80516001600160a01b03811681146100e557600080fd5b919050565b600080604083850312156100fd57600080fd5b610106836100ce565b9150610114602084016100ce565b90509250929050565b608051610f796101546000396000818161020f0152818161043a0152818161058a0152818161075a0152610af30152610f796000f3fe608060405234801561001057600080fd5b50600436106100ea5760003560e01c8063715018a61161008c5780639821f5f2116100665780639821f5f214610275578063bcb3962114610288578063f2fde38b14610291578063f5d709a1146102a457600080fd5b8063715018a6146102495780637c82716f146102515780638da5cb5b1461026457600080fd5b806344b90c03116100c857806344b90c03146101a55780634867b6db146101bd5780635312ea8e146101f75780636a031bee1461020a57600080fd5b8063089bcf2f146100ef57806319d3da97146101175780631bae2b6c1461012c575b600080fd5b6101026100fd366004610d5f565b61031b565b60405190151581526020015b60405180910390f35b61012a610125366004610d8b565b61034a565b005b61017661013a366004610d8b565b6000908152600260208190526040909120805460018201549282015460038301546006840154600490940154929591939092909160ff90911690565b6040805196875260208701959095529385019290925260608401526080830152151560a082015260c00161010e565b6101af62ed4e0081565b60405190815260200161010e565b6101af6101cb366004610d5f565b60008281526002602090815260408083206001600160a01b038516845260050190915290205492915050565b61012a610205366004610d8b565b610580565b6102317f000000000000000000000000000000000000000000000000000000000000000081565b6040516001600160a01b03909116815260200161010e565b61012a610659565b61012a61025f366004610da4565b61066d565b6000546001600160a01b0316610231565b61012a610283366004610dd6565b6108b3565b6101af60035481565b61012a61029f366004610e59565b610bcc565b6102ec6102b2366004610d8b565b60026020819052600091825260409091208054600182015492820154600383015460048401546006909401549294939192909160ff169086565b6040805196875260208701959095529385019290925260608401521515608083015260a082015260c00161010e565b60008281526002602090815260408083206001600160a01b038516845260050190915290205415155b92915050565b610352610c07565b6000818152600260205260409020600481015460ff166103ad5760405162461bcd60e51b8152602060048201526011602482015270536561736f6e206e6f742061637469766560781b60448201526064015b60405180910390fd5b62ed4e0081600201546103c09190610e8a565b421161040e5760405162461bcd60e51b815260206004820152601a60248201527f556e636c61696d656420706572696f64206e6f7420656e64656400000000000060448201526064016103a4565b60048101805460ff191690556006810154600382015460009161043091610e9d565b90508015610541577f00000000000000000000000000000000000000000000000000000000000000006001600160a01b031663a9059cbb6104796000546001600160a01b031690565b6040516001600160e01b031960e084901b1681526001600160a01b039091166004820152602481018490526044016020604051808303816000875af11580156104c6573d6000803e3d6000fd5b505050506040513d601f19601f820116820180604052508101906104ea9190610eb0565b6105065760405162461bcd60e51b81526004016103a490610ed2565b827f8bf8c12aaf3f386ef3478eacc1f8773954d9909e45d1c9d546290cb0cc760ccb8260405161053891815260200190565b60405180910390a25b827f1e1fd0d309f16671cc0c385264689511ca3162df39c2f0540e4cf202a296cd418260405161057391815260200190565b60405180910390a2505050565b610588610c07565b7f00000000000000000000000000000000000000000000000000000000000000006001600160a01b031663a9059cbb6105c96000546001600160a01b031690565b6040516001600160e01b031960e084901b1681526001600160a01b039091166004820152602481018490526044016020604051808303816000875af1158015610616573d6000803e3d6000fd5b505050506040513d601f19601f8201168201806040525081019061063a9190610eb0565b6106565760405162461bcd60e51b81526004016103a490610ed2565b50565b610661610c07565b61066b6000610c34565b565b610675610c07565b8183106106b95760405162461bcd60e51b8152602060048201526012602482015271496e76616c69642074696d652072616e676560701b60448201526064016103a4565b4282116106fb5760405162461bcd60e51b815260206004820152601060248201526f115b99081d1a5b59481a5b881c185cdd60821b60448201526064016103a4565b600081116107435760405162461bcd60e51b8152602060048201526015602482015274125b9d985b1a59081c995dd85c9908185b5bdd5b9d605a1b60448201526064016103a4565b6040516370a0823160e01b815230600482015281907f00000000000000000000000000000000000000000000000000000000000000006001600160a01b0316906370a0823190602401602060405180830381865afa1580156107a9573d6000803e3d6000fd5b505050506040513d601f19601f820116820180604052508101906107cd9190610efb565b10156108125760405162461bcd60e51b8152602060048201526014602482015273496e73756666696369656e742062616c616e636560601b60448201526064016103a4565b6003805490600061082283610f14565b909155505060038054600090815260026020818152604092839020888155600180820189905592810187905580850186905560048101805460ff19169093179092559254825188815293840187905291830185905260608301849052917fbf41d8da6c70ff8b957c759a473e48adfc3d2e0a5d906ed127052144ee645fdf9060800160405180910390a25050505050565b6108bb610c84565b6000848152600260205260409020600481015460ff166109115760405162461bcd60e51b8152602060048201526011602482015270536561736f6e206e6f742061637469766560781b60448201526064016103a4565b806001015442101561095a5760405162461bcd60e51b815260206004820152601260248201527114d9585cdbdb881b9bdd081cdd185c9d195960721b60448201526064016103a4565b806002015442111561099d5760405162461bcd60e51b815260206004820152600c60248201526b14d9585cdbdb88195b99195960a21b60448201526064016103a4565b336000908152600582016020526040902054156109ee5760405162461bcd60e51b815260206004820152600f60248201526e105b1c9958591e4818db185a5b5959608a1b60448201526064016103a4565b6040516bffffffffffffffffffffffff193360601b16602082015260348101859052600090605401604051602081830303815290604052805190602001209050610a6e8484808060200260200160405190810160405280939291908181526020018383602002808284376000920191909152505085549150849050610cae565b610aaa5760405162461bcd60e51b815260206004820152600d60248201526c24b73b30b634b210383937b7b360991b60448201526064016103a4565b3360009081526005830160205260408120869055600683018054879290610ad2908490610e8a565b909155505060405163a9059cbb60e01b8152336004820152602481018690527f00000000000000000000000000000000000000000000000000000000000000006001600160a01b03169063a9059cbb906044016020604051808303816000875af1158015610b44573d6000803e3d6000fd5b505050506040513d601f19601f82011682018060405250810190610b689190610eb0565b610b845760405162461bcd60e51b81526004016103a490610ed2565b604051858152339087907f24b5efa61dd1cfc659205a97fb8ed868f3cb8c81922bab2b96423e5de1de2cb79060200160405180910390a35050610bc660018055565b50505050565b610bd4610c07565b6001600160a01b038116610bfe57604051631e4fbdf760e01b8152600060048201526024016103a4565b61065681610c34565b6000546001600160a01b0316331461066b5760405163118cdaa760e01b81523360048201526024016103a4565b600080546001600160a01b038381166001600160a01b0319831681178455604051919092169283917f8be0079c531659141344cd1fd0a4f28419497f9722a3daafe3b4186f6b6457e09190a35050565b600260015403610ca757604051633ee5aeb560e01b815260040160405180910390fd5b6002600155565b600082610cbb8584610cc4565b14949350505050565b600081815b8451811015610d0957610cf582868381518110610ce857610ce8610f2d565b6020026020010151610d11565b915080610d0181610f14565b915050610cc9565b509392505050565b6000818310610d2d576000828152602084905260409020610d3c565b60008381526020839052604090205b9392505050565b80356001600160a01b0381168114610d5a57600080fd5b919050565b60008060408385031215610d7257600080fd5b82359150610d8260208401610d43565b90509250929050565b600060208284031215610d9d57600080fd5b5035919050565b60008060008060808587031215610dba57600080fd5b5050823594602084013594506040840135936060013592509050565b60008060008060608587031215610dec57600080fd5b8435935060208501359250604085013567ffffffffffffffff80821115610e1257600080fd5b818701915087601f830112610e2657600080fd5b813581811115610e3557600080fd5b8860208260051b8501011115610e4a57600080fd5b95989497505060200194505050565b600060208284031215610e6b57600080fd5b610d3c82610d43565b634e487b7160e01b600052601160045260246000fd5b8082018082111561034457610344610e74565b8181038181111561034457610344610e74565b600060208284031215610ec257600080fd5b81518015158114610d3c57600080fd5b6020808252600f908201526e151c985b9cd9995c8819985a5b1959608a1b604082015260600190565b600060208284031215610f0d57600080fd5b5051919050565b600060018201610f2657610f26610e74565b5060010190565b634e487b7160e01b600052603260045260246000fdfea2646970667358221220781a5ef86a085f7e43f2316cadc3ace79de43506f0fbb724db574a3372be44c464736f6c63430008140033",
  "linkReferences": {},
  "deployedLinkReferences": {}
}